:400000000080002011000000CD0C0000CD0C000008B5044B1A6803F53F5302331A6000F06FFE00BFFA46004010B5054C237833B9044B13B10448AFF300800123237010BD58
:400040008881FF1F00000000DC230000084B10B51BB108490848AFF300800848036803B910BD074B002BFBD0BDE81040184700BF000000008C81FF1FDC230000C880FF1F84
:400080000000000008B50C4B1B68012B12D10022094B1A6000F08AFA032000F049FC022000F06CF900F096FB4FF4FA6000F052FF00F074FC08BD00BF2883FF1F000000005B
:4000C00008B519A3D3E900231949112000F090FF0022184B1A6062B6174801F037FB174801F05CFB164801F08DFB00F0A3F900F0A3FB00F007FC01F049FC0322114B1A6041
:4001000004E000F0ADFAFA2000F024FF094B1B68012B02D1F5E700F027FC064B1B68002BF9D0F3E7AFF300809A99999999992940D881FF1F2883FF1F85000000F9070000C9
:40014000310800000C82FF1F70B4024609E002EB4203064C0025E5549E1CA5550133E554013243189A42F2DB70BC7047D881FF1F70B44418112C01DDC0F11101044605E024
:4001800004EB44051544044E735501340D18AC42F6DB70BC704700BFD881FF1F10B5002416E011210020FFF7CFFF00F0AFFF4FF4FA7000F0CFFE1923012211210020FFF7BE
:4001C000D7FF00F0A3FF4FF4FA7000F0C3FE0134092CE6DD10BD00BF08B511210020FFF7B3FF1923012211210020FFF7C1FF1923002211211046FFF7BBFF00F087FF112124
:400200000020FFF7A1FF1923002211211046FFF7AFFF00F07BFF08BD38B500253DE011210020FFF791FF224C84FB0534EB17C3EBE40404EB04142C1B192300220321204654
:40024000FFF796FF04F10800112807DD192300220321A4F10800FFF78BFF04E0192300220321FFF785FF0F2C01D0072C05D11923002201211046FFF77BFF102C01D0082CBE
:4002800005D11923002202211046FFF771FF00F03DFF192000F05EFE0135A92DBFDD1923002211211046FFF763FF00F02FFF38BD7978787838B511210020FFF745FF1923EB
:4002C000012204210020FFF753FF00F01FFF4FF47A7000F03FFE012413E0A5001923012204212846FFF744FF1923002204212846FFF73EFF00F00AFF4FF47A7000F02AFE9C
:400300000134022CE9DD1923002204210C20FFF72FFF00F0FBFE4FF47A7000F01BFE11210020FFF711FF00240BE01923002201212046FFF71DFF00F0E9FE192000F00AFE3B
:400340000134102CF1DD002414E011210020FFF7FBFE00F0DBFE322000F0FCFD1923002211211046FFF704FF00F0D0FE322000F0F1FD0134032CE8DD38BD00BF08B503284F
:400380000ED8DFE800F00205080BFFF793FF08BDFFF704FF08BDFFF73FFF08BDFFF71CFF08BD00BF074B01221A6019685A6811449A680A44DB681344042B02D10A22014B02
:4003C0001A617047A481FF1F074B01225A6019685A6811449A680A44DB681344042B02D11422014B1A617047A481FF1F074B01229A6019685A6811449A680A44DB681344ED
:40040000042B02D11E22014B1A617047A481FF1F074B0122DA6019685A6811449A680A44DB681344042B02D12822014B1A617047A481FF1F08B501F05FF801F0BBF801F0E1
:40044000ABF800F0ABFF084800F036FF074800F0CDFF074800F0F2FF064801F017F8064801F03CF808BD00BF95040000A5030000C9030000ED03000011040000044B186968
:4004800000221A611A605A609A60DA60704700BFA481FF1F08B501F045F800F035FF1E4B18601B685B001D4A1360126840F2AC439A4203DD1A4A136901331361184B1B6910
:4004C0000B3B1E2B1FD8DFE803F0101E1E1E1E1E1E1E1E1E131E1E1E1E1E1E1E1E1E171E1E1E1E1E1E1E1E1E1B0000F033F90CE0012000F0E9F808E0022000F0E5F804E088
:4005000000F028F901E000F00DF8FFF7B7FF00F0EFFE01F041F808BD3884FF1F3C84FF1FA481FF1F08B50F4B1B68012B19D101F087F801F071FA002001F056F8012001F074
:4005400047F8002001F05CF8012001F065F8502001F08AF8502001F073FA01F0CFF801F0B9FA08BD2883FF1F08B50F4B1B68012B19D101F065F801F04FFA012001F034F857
:40058000002001F025F8012001F03AF8002001F043F8502001F068F8502001F051FA01F0ADF801F097FA08BD2883FF1F08B501F047F801F031FA08BD08B501F041F801F0C4
:4005C0002BFA154B1A68154B53F832300A3B3C2B09D8AA2001F042F80F4B1A680F4B13F8320001F041F80C4B1A680C4B03EBC2035B68283B3C2B0AD8AA2001F01BFA064B55
:400600001A68064B03EBC203187901F019FA01F075F801F05FFA08BD0C82FF1FCC80FF1F08B5012802D0B0F1FF3F15D10B4B1B68002B08DDB0F1FF3F05D11844074B1860DB
:40064000FFF7BAFF08BD052B06DC012804D11844024B1860FFF7B0FF08BD00BF0C82FF1F08B5174B1B689BB9002001F087FE01F013FE01F039FE134A80FB0223C218C31799
:40068000C3EBA203C3EBC303C31A033B0C4A13600B4B1B68002B08DA4FF0FF30FFF7C0FF074A13680133136008BD002B06DD0120FFF7B6FF024A1368013B136008BD00BF7A
:4006C0001C82FF1F93244992214B1B68012B3ED110B5044600F0B4FF01F09EF9FA2000F039FC012C02D0022C0DD018E0002000F07BFF012000F06CFF012000F081FF002050
:4007000000F08AFF0BE0002000F062FF012000F06BFF012000F080FF002000F071FF642000F0A2FF642001F08BF900F0E7FF01F0D1F94FF4FA7000F00DFC00F081FF01F0B3
:400740006BF9FA2000F006FCFFF7ECFE10BD70472883FF1F08B51E4B1B68012B36D100F06FFF01F059F9FA2000F0F4FBFFF7FCFE4FF47A7000F0EEFB00F062FF01F04CF9E9
:40078000FA2000F0E7FB002000F02EFF012000F01FFF012000F034FF002000F03DFF00F0ADFF01F097F9642000F05EFF642001F047F94FF47A7000F0CDFB00F041FF01F0A8
:4007C0002BF9FA2000F0C6FBFFF7ACFE08BD00BF2883FF1F08B5002000F0EEFF40F6B83000F0B8FB012000F0E7FF08BD0122014B1A6070472482FF1F08B5FFF7F7FF08BD14
:4008000008B5FFF7D3FE022000F092F80120FFF7B5FD4FF4FA6000F09DFB0023024A1360024A136008BD00BF2482FF1F2883FF1F08B5FFF7E5FF08BD08B5012000F0BCFF13
:4008400008BD00BF0023054A1380054A1380054A1380054A1380054A138070471882FF1F2E83FF1F2082FF1FD481FF1F3484FF1F38B501F099F8FFF7E5FF002433E0002080
:4008800001F0A2F800282DD001F0B0F8184D28800A2000F05FFB174A1388013313802B8840F6AB5293420CD8134A138801339BB21380082B16D101F07FF801200F4B18806B
:4008C00038BD40F6AC5293420CD90D4A138801339BB21380082B05D101F06EF80020074B188038BD0134132CC9DD002038BD00BF2E83FF1F3484FF1FD481FF1F1882FF1FF2
:400900002082FF1F10B501F011F9084C0821204601F026F9142000F01DFB0821601801F01FF9142000F016FB10BD00BFE023000008B5022808D003280BD001280DD10821A5
:40094000064801F00DF908BD0821054801F008F908BD0821034801F003F908BDF0230000F82300000024000008B50A4B1B68012B0FD1FFF77DFF60B10120FFF7D9FF002095
:40098000FFF7FCFC41F2883000F0E4FA0122024B1A6008BD2482FF1F2883FF1F08B50022084B1A60FFF764FF0128FBD0FFF760FF0128FBD140F6B83000F0CCFA0122014BCE
:4009C0001A6008BD2883FF1FFEE700BFF0B40022174611E050F82760F3B226F0FF0608E001EB420511F812406D78A5550132013BDBB2002BF4D101371F2FEBD9F0BC7047BA
:400A000008B50A46002101F0E0FB08BDF8B5164B1B78DBB2154E3478E4B2154F3D78EDB203F00701134A11701B090132137044F00303337045F003033B700123A2F242728A
:400A4000137040220C490A7002310A700B4A137020220B4B1A700A2000F092FA3D7034704422084B1A70F8BDCF010049F8460040F94600406E58004001590040205B0040BB
:400A8000235B00407658004008B501F093FB08BD38B50122374B1A801823374A1370032402321480023213706521023211800232137040F29721023211800232137040F2BE
:400AC000FB31023211800232137004222B492C48FFF7DAFF02222B4B1A7008224FF040231A7003F500731C70274B1B78DBB2274A13701122264B1A8041F25122023B1A80BF
:400B0000002419250CE0234B1B7803F0010343EA440404F003044FF4F07001F04DF8013D0DB1032CEFD115B90320FFF74DFF1A4B4FF480721A8007221A70002217490A7025
:400B40004820023108701A700222033B1A7004220A331A70124A137843F01F031370013A137843F001031370013A137843F08003137038BD8040004082400040A8070048D3
:400B8000004100400043004008010049A146004022420040254200400440004006400040A243004038B572B6334C61232370FFF76FFF01232370314A137843F004031370B5
:400BC00000240CE02E4D630019194A0011462A44084691882858FFF713FF0134E4B2052CF0D928494FF09040FFF7F0FE04212648FFF706FF254A137843F002031370103229
:400C0000137843F002031370214C237843F040032370A2F58632513A137843F01003137008221C491C48FFF72FFF0A221B491C48FFF72AFF08221B491B48FFF725FF0822D0
:400C40001A491B48FFF720FF08221A491A48FFF71BFF082219491A48FFF716FF194A137843F008031370FFF7D1FE0E2221461648FFF70AFF38BD00BF00480040E84600408F
:400C800008240000800000480076004003500140A043004074070048025100407C070048C051004088070048F251004090070048125100409807004822510040A0070048FC
:400CC0003251004022430040B0430040FEE700BF08B5094B1A681044084BC31A802B02DC054B186005E001F031FA0C2303604FF0FF32104608BD00BF0481FF1F5084FF1FDB
:400D000008B5104E104D16E029686B68AC68002204E051F8040B43F8040B0432A242F8D1E868002203E0002143F8041B04328242F9D11035013E002EE6D101F00DFAFFF757
:400D4000BFF9FEE7010000005424000008B5114A114B1A60114A136843F40073136000230AE0032B03D80E4A52F8231000E00D490D4A42F8231001332F2BF2D90B4B1A7856
:400D80000B4B1A70084A0B4B1A60FFF70BFF00F013F808BD0004FA050CED00E014ED00E000000000CD0C00000080FF1FBC760040C080FF1F08ED00E00B4A7F23137080217D
:400DC000517007E0DA0002F1804202F5F042013BDBB21370002BF5D1DB0003F1804303F5F04300221A7070470881FF1F172815D831B103010A495A5C42F020025A5405E08D
:400E0000030107495A5C02F0DF025A540001044A835C43F00103835400207047012070471070004017280BD80001064A835C03F0F103490001F00E011943815400207047F2
:400E4000012070471070004041F6FF73994201D14FF4005141F6FF739A4201D14FF40052172808D8C00000F1804000F5EC408180C280002070470120704700BF172805D886
:400E8000034B03EB0010417200207047012070471070004017281BD810B4C00000F1804404F5EC44D201D2B201F07F01114321709DF804201201D2B203F00F031343637005
:400EC0009DF8083003F00F03A3700020E07001E00120704710BC704710B500F075FE0A4B5B78182B0BD9084A1478013B5370E30003F1804303F5F0431B78137000E0FF242F
:400F000000F066FE204610BD0881FF1F10F0800F0CD111F4704F0BD1C00000F1804000F5F04001808270C37000207047012070470120704710F0800F08D1C00000F18040DB
:400F400000F5F0408180C280002070470120704701BE704710B5044605E0084B186800F02BFEA4F50044B4F5004FF6D8034B586800FB04F000F020FE10BD00BF1081FF1F1B
:400F800008B5034B1B7A00FB03F000F015FE08BD1081FF1F70B504460E46074B1D681F2802D90020FFF7D4FF04F01F04103455F8240045F8246070BD08ED00E038B50446C1
:400FC0000D46072902D90020FFF7C2FF1F2C02D90020FFF7BDFF04F01F0000F1604000F564406D01EDB2057038BD00BF000000002DE9F04704468A4600203D4908600020BC
:401000003C4900F013FF06460F4602460B460020394900F00BFF804689462FA3D3E9002301F06AF8002854D14046494601F06EF85FFA80F832463B4629A1D1E9000100F0C2
:40104000F5FE01F063F8C5B232463B4626A1D1E9000100F0EBFE01F059F8C6B204EB4404264B1C6000F08EF800F0AEF800F0D4F8234B83F80080701EC0B200F0DBF8681E0E
:40108000C0B200F0AFF84FF4804341F6FF720121084600F0D5F81B4B1870BAF1000F0ED1204601F07FF8124B186018B10122164B1A700AE00020114B1860BDE8F0870C4BFA
:4010C000C3F800A00022104B1A70094B1868BDE8F0870020BDE8F0870000000000E06F40666666666666E63F666666666666D63F2483FF1F0000F03F0000F43FCC81FF1F3F
:40110000396400402C83FF1F0B82FF1F38B50F4B1B68CBB1FFF7E0FE0D4C20702123FE220C490988FFF7F2FE46F24942074B19882078FFF7FFFE084D21782878FFF79EFEC6
:4011400001212878FFF752FE38BD00BF2483FF1F1082FF1FCC81FF1F2C83FF1F0622014B1A7070478964004008B500F02DFD044A137843F02003137000F02AFD08BD00BF00
:401180009964004008B5054B1B7823B9FFF7E6FF0122024B1A70FFF7E7FF08BDB881FF1F0C22014B1A7070478965004008B500F00BFD044A137843F02003137000F008FD64
:4011C00008BD00BF9965004008B5054B1B7823B9FFF7E6FF0122024B1A70FFF7E7FF08BDB981FF1F014B1870704700BF896500400622014B1A7070478864004008B500F0DD
:40120000E3FC044A137843F02003137000F0E0FC08BD00BF9864004008B5054B1B7823B9FFF7E6FF0122024B1A70FFF7E7FF08BDBA81FF1F014B1870704700BF88640040D0
:40124000F0B583B016461F460B4D00242C700194009423460A4601462046FFF71BFE3A4631462878FFF7F0FD02212878FFF7DAFD287803B0F0BD00BF2081FF1F014B1B68C8
:401280001866704708ED00E04001C0B2014B1870704700BF08E400E04FF48072014B1A60704700BF00E100E04FF48072014B1A60704700BF80E100E010B50446FFF7F4FF7F
:4012C0002046FFF7DBFF0020FFF7DEFFFFF7E4FF10BD00BF024A137843F080031370704776650040014B1870704700BF87650040014B1878704700BF67650040014B1880C6
:40130000704700BF0C6A0040014B188880B270478C6A0040014B1880704700BF4C6A0040014B1880704700BF6C6A004008B501E0FFF7EAFFFFF7DCFF10F0400FF8D108BD8B
:4013400008B5144A137803F0F80343F001031370137803F0FC0343F008031370FFF7E6FF4FF6FE70FFF7D6FF0020FFF7C7FF1020FFF7B8FFFFF7BCFF0120FFF7D1FF00F047
:4013800023FC054A137843F01003137000F020FC08BD00BF766500409765004008B5054B1B7823B9FFF7CCFF0122024B1A70FFF791FF08BDBB81FF1F014B1B689864704726
:4013C00008ED00E04001C0B2014B1870704700BF02E400E00422014B1A60704700E100E00422014B1A60704780E100E010B50446FFF7F6FF2046FFF7DFFF0120FFF7E2FFE1
:40140000FFF7E8FF10BD00BF014B1B68D864704708ED00E04001C0B2014B1870704700BF03E400E00822014B1A60704700E100E00822014B1A60704780E100E010B5044689
:40144000FFF7F6FF2046FFF7DFFF0120FFF7E2FFFFF7E8FF10BD00BF014B1B681865704708ED00E04001C0B2014B1870704700BF04E400E01022014B1A60704700E100E0D9
:401480001022014B1A60704780E100E010B50446FFF7F6FF2046FFF7DFFF0120FFF7E2FFFFF7E8FF10BD00BF014B1B685865704708ED00E04001C0B2014B1870704700BF92
:4014C00005E400E02022014B1A60704700E100E02022014B1A60704780E100E010B50446FFF7F6FF2046FFF7DFFF0120FFF7E2FFFFF7E8FF10BD00BF054A137843F00403FA
:4015000013701032137843F004031370704700BFA2430040024A137843F08003137070477D640040024A137803F07F03137070477D640040014B1880704700BF186800405A
:40154000014B1880704700BF98680040014B1880704700BF5868004008B50E4A137803F0C00343F0090313701F32137843F0010313700132137843F00103137048F23520C2
:40158000FFF7D8FF48F23520FFF7DAFF0520FFF7DDFF08BD7D64004008B5054B1B7823B9FFF7DAFF0122024B1A70FFF7B3FF08BDBC81FF1F054A137843F001031370103240
:4015C000137843F001031370704700BFA2430040044A137803F0FE0300F0010018431070704700BF00510040044A137803F0DF03400100F02000184310707047F051004059
:40160000044A137803F0FD03400000F0020018431070704700510040044A137803F0DF03400100F0200018431070704700510040024A137843F0800313707047726400408A
:40164000024A137803F07F031370704772640040014B1870704700BF02640040014B1870704700BF42640040014B1870704700BF22640040014B1870704700BF826400402E
:40168000014B1878704700BF62640040014B1878704700BF5264004008B501E0FFF7F6FFFFF7EEFF10F0100FF8D108BD10B5114A137803F0C00343F0090313700E4C237859
:4016C00043F001032370C820FFF7C2FFC820FFF7C5FF0020FFF7C8FF0020FFF7CBFF00F073FA237843F01003237000F071FAFFF7D3FF10BD726400409264004008B5054B08
:401700001B7823B9FFF7D2FF0122024B1A70FFF78FFF08BDBD81FF1F014B1B685864704708ED00E04001C0B2014B1870704700BF01E400E00222014B1A60704700E100E099
:401740000222014B1A60704780E100E010B50446FFF7F6FF2046FFF7DFFF0220FFF7E2FFFFF7E8FF10BD00BF014B1B689865704708ED00E04001C0B2014B1870704700BF9C
:4017800006E400E04022014B1A60704700E100E04022014B1A60704780E100E010B50446FFF7F6FF2046FFF7DFFF0320FFF7E2FFFFF7E8FF10BD00BF044A137803F0FB033E
:4017C000800000F0040018431070704720510040014B1B68D865704708ED00E04001C0B2014B1870704700BF07E400E08022014B1A60704700E100E08022014B1A607047D3
:4018000080E100E010B50446FFF7F6FF2046FFF7DFFF0020FFF7E2FFFFF7E8FF10BD00BF08B50A280FD00C2802D0082806D102E04FF4805209E04FF4807206E00020FFF7E7
:4018400087FB002201E04FF480620021094B198042F2107303FB02F303F6C413064A82FB0302DB17C3EBE223044A1360044B198008BD00BF4084FF1FAD8BDB684484FF1F4F
:401880004284FF1F10B500F09FF904461E4A137843F0010313701032137843F0010313701A3A137843F0010313701032137843F00103137002F5AA521232137843F003035E
:4018C00013701822114B1A70013B1A7842F040021A701A7802F0FC021A70C822053B1A700222A3F597530C3B1A70094A137843F0080313700A20FFF743FB0122054B1A6058
:40190000204600F065F910BDAB43004006590040275B004080E200E010B504460A280DD00C2802D0082804D101E0C22207E0422205E00020FFF70CFBC22200E08222034B64
:401940001A702046FFF76CFF10BD00BF0259004008B5102000F018F907210020FFF72EFB07490020FFF716FB064A137843F0060313700C20FFF7D0FF0022034B1A8008BDC9
:40198000051A0000015900404884FF1F08B5054B1B7823B9FFF7DCFF0122024B1A70FFF771FF08BDBE81FF1F024A137843F001031370704700590040024A137803F0FE0309
:4019C000137070470059004010B5074B1B7813F0010401D10028F8D024B10120FFF7D0FA014B1B78204610BD01590040034B188880B2034B1B88C01A00B27047A05B0040AF
:401A00004284FF1F704700BF024A137843F080031370704773640040024A137803F07F031370704773640040014B1870704700BF03640040014B1870704700BF43640040AF
:401A4000014B1870704700BF23640040014B1870704700BF83640040014B1878704700BF63640040014B1878704700BF5364004008B501E0FFF7F6FFFFF7EEFF10F0100FB7
:401A8000F8D108BD10B5114A137803F0C00343F0090313700E4C237843F001032370C820FFF7C2FFC820FFF7C5FF0020FFF7C8FF0020FFF7CBFF00F087F8237843F0100368
:401AC000237000F085F8FFF7D3FF10BD736400409364004008B5054B1B7823B9FFF7D2FF0122024B1A70FFF78FFF08BDBF81FF1F0622044B1A70472210331A7002224F3342
:401B00001A7070472B65004010B500F05DF80446054A137843F01003137000F03FF8204600F056F810BD00BF9A65004008B5054B1B7823B9FFF7DCFF0122024B1A70FFF7CA
:401B4000E3FF08BDC081FF1F034B1B7813F0040FFAD1024B187070476A6500404A650040084B1B7833B97047305DFFF7EDFF0134E4B203E070B50D4606460024AC42F3D3D1
:401B800070BD00BFC081FF1F034B1A7800F0F80010431870704700BF02410040054A137843F0080313701032137843F008031370704700BFA24300400230800803D000BF2E
:401BC00001380046FCD17047EFF3108072B6704780F31088704700BF70B54FF0FF0C4CF4E06C1CEA11541DBF1CEA135594EA0C0F95EA0C0F00F0DEF82C4481EA030621EA78
:401C00004C5123EA4C5350EA013518BF52EA033541F4801143F4801338D0A0FB02CE4FF00005E1FB02E506F00042E0FB03E54FF00006E1FB03569CF0000F18BF4EF0010E62
:401C4000A4F1FF04B6F5007F64F5407404D25FEA4E0E6D4146EB060642EAC62141EA55514FEAC52040EA5E504FEACE2EB4F1FD0C88BFBCF5E06F1ED8BEF1004F08BF5FEA27
:401C8000500E50F1000041EB045170BD06F0004646EA010140EA020081EA0301B4EB5C04C2BFD4EB0C0541EA045170BD41F480114FF0000E013C00F3AB8014F1360FDEBF7C
:401CC000002001F0004170BDC4F10004203C35DA0C341BDC04F11404C4F1200500FA05F320FA04F001FA05F240EA020001F0004221F0004110EBD37021FA04F642EB0601F9
:401D00005EEA430E08BF20EAD37070BDC4F10C04C4F1200500FA04F320FA05F001FA04F240EA020001F0004110EBD37041F100015EEA430E08BF20EAD37070BDC4F12005B6
:401D400000FA05F24EEA020E20FA04F301FA05F243EA020321FA04F001F0004121FA04F220EA020000EBD3705EEA430E08BF20EAD37070BD94F0000F0FD101F000464000A5
:401D800041EB010111F4801F08BF013CF7D041EA060195F0000F18BF704703F00046520043EB030313F4801F08BF013DF7D043EA0603704794EA0C0F0CEA135518BF95EAC7
:401DC0000C0F0CD050EA410618BF52EA4306D1D181EA030101F000414FF0000070BD50EA410606BF1046194652EA430619D094EA0C0F02D150EA013613D195EA0C0F05D1C6
:401E000052EA03361CBF104619460AD181EA030101F0004141F0FE4141F470014FF0000070BD41F0FE4141F4780170BD70B54FF0FF0C4CF4E06C1CEA11541DBF1CEA1355A4
:401E400094EA0C0F95EA0C0F00F0A7F8A4EB050481EA030E52EA03354FEA013100F088804FEA03334FF0805545EA131343EA12634FEA022245EA111545EA10654FEA002686
:401E80000EF000419D4208BF964244F1FD0404F5407402D25B084FEA3202B61A65EB03055B084FEA32024FF480104FF4002CB6EB020E75EB030E22BFB61A754640EA0C00E0
:401EC0005B084FEA3202B6EB020E75EB030E22BFB61A754640EA5C005B084FEA3202B6EB020E75EB030E22BFB61A754640EA9C005B084FEA3202B6EB020E75EB030E22BF07
:401F0000B61A754640EADC0055EA060E18D04FEA051545EA16754FEA06164FEAC30343EA52734FEAC2025FEA1C1CC0D111F4801F0BD141EA00014FF000004FF0004CB6E760
:401F400011F4801F04BF01430020B4F1FD0C88BFBCF5E06F3FF6AFAEB5EB030C04BFB6EB020C5FEA500C50F1000041EB045170BD0EF0004E4EEA113114EB5C04C2BFD4EBF5
:401F80000C0541EA045170BD41F480114FF0000E013C90E645EA060E8DE60CEA135594EA0C0F08BF95EA0C0F3FF43BAF94EA0C0F0AD150EA01347FF434AF95EA0C0F7FF42C
:401FC00025AF104619462CE795EA0C0F06D152EA03353FF4FDAE1046194622E750EA410618BF52EA43067FF4C5AE50EA41047FF40DAF52EA43057FF4EBAE12E74FF0FF3C50
:4020000006E000BF4FF0010C02E000BF4FF0010C4DF804CD4FEA410C7FEA6C5C4FEA430C18BF7FEA6C5C1BD001B050EA410C0CBF52EA430C91EA030F02BF90EA020F0020F3
:40204000704710F1000F91EA030F58BF994208BF90422CBFD8176FEAE37040F0010070474FEA410C7FEA6C5C02D150EA013C07D14FEA430C7FEA6C5CD6D152EA033CD3D0BC
:402080005DF8040B704700BF8446104662468C461946634600E000BF01B5FFF7B7FF002848BF10F1000F01BD4DF808EDFFF7F4FF0CBF012000205DF808FB00BF4DF808ED26
:4020C000FFF7EAFF34BF012000205DF808FB00BF4DF808EDFFF7E0FF94BF012000205DF808FB00BF4DF808EDFFF7CEFF94BF012000205DF808FB00BF4DF808EDFFF7C4FF61
:4021000034BF012000205DF808FB00BF4A0011D212F5001211D20DD56FF47873B3EB62520ED44FEAC12343F0004343EA505323FA02F070474FF00000704750EA013002D16A
:402140004FF0FF3070474FF000007047014B1868704700BF8481FF1F0E4B70B51E460E4C0025E41AA410A54204D056F8253098470135F8E700F05CF9084B094C1E46E41A2B
:40218000A4100025A54204D056F8253098470135F8E770BD3C2400003C2400003C24000044240000024B0146186800F017B800BF8481FF1F10B5431E0A44914204D011F866
:4021C000014B03F8014FF8E710BD03460244934202D003F8011BFAE77047000070B5CD1C25F0030508350C2D38BF0C25002D064601DBA94202D90C23336046E000F0E4F81F
:40220000234B1C681A462146A1B10B685B1B0ED40B2B03D90B60CC18CD501EE08C420BBF63684B681360636018BF0C4615E00C464968E9E7174C23681BB9304600F08EF861
:4022400020602946304600F089F8431C18D0C41C24F00304A0420DD12560304600F0B5F804F10B00231D20F00700C31A0ED05A42E25070BD211A304600F070F80130EBD1EB
:402280000C233360304600F0A0F8002070BD00BFC881FF1FC481FF1F38B5124B05461C68A36BD3B91820FFF77DFF43F20E33A06303804AF6CD33438041F2342383804EF25F
:4022C0006D63C3804DF6EC630381052343810B23838101220023C0E90423A36B00221D615A6138BD8481FF1F194B10B51C68A36BD3B91820FFF756FF43F20E33A06303803A
:402300004AF6CD33438041F2342383804EF26D63C3804DF6EC630381052343810B23838101220023C0E90423A16B0A4C0B6948695C43094A02FB0040A3FB0223013203447D
:4023400043F10003C1E9042323F0004010BD00BF8481FF1F2DF451582D7F954C38B5064C0023054608462360FEF7B2FC431C02D1236803B12B6038BD4C84FF1F13B5084BE1
:40238000044600221868694600F00CF80028BCBF4FF0FF330093009804B1206002B010BD8481FF1F38B5074C0023054608461146236000F00BF8431C02D1236803B12B60B3
:4023C00038BD00BF4C84FF1F70477047024B58221A604FF0FF3070474C84FF1F000000007E09000002FFF5EF7E0600001DFFDCEF7E0F000101FFEFEF7E0F000102FFEEEFCA
:402400007E0F000103FFEDEF40510040300000000140001000140140000800400140000A004C0140000200500140200043000000F8B500BFF8BC08BC9E4670474D000000A7
:402440004D0D0000F8B500BFF8BC08BC9E4670472900000068240000C880FF1FC0000000C802000000000000000000000A000000640000001E0000006400000032000000BC
:402480006400000046000000640000004600000050000000460000003C00000046000000280000005084FF1F7F8000000100000000009C6338C7000033000000C0320A0366
:4024C000FF00000000000000000000000000000000000000000000000000000000000000000000002C2400000000000000000000000000000000000000000000000000008D
:402500000000000000000000000000000000000000000000000000000000000000000000000000002481FF1F000000000000000000000000000000000000000000000000D8
:40254000000000000000000000000000000000000000000000000000000000000000000000000000000000000000000000000000000000000000000000000000000000005B
:40258000000000000000000000000000000000000000000000000000000000000000000000000000000000000000000000000000000000000000000000000000000000001B
:4025C00000000000000000000000000000000000000000000000000000000000000000000000000000000000000000000000000000000000000000000000000000000000DB
:40260000000000000000000000000000000000000000000000000000000000000000000000000000000000000000000000000000000000000000000000000000000000009A
:020000040003F7
:0200000480007A
:4000000005520040046400400365004058020140380301400505014003070140440801402D090140070B0140400C0140220D0140021501405D160140331701403C180140AC
:4000400036190140551A0140401B014007400140104101400C4201400A4301400545014007460140044701400D48014005490140044C0140054D0140075001400451014051
:4000800000400140108260806180820D830D887F897F8777897F8A0F01020B0416021E02220127052A042D013004320133043402350237013E103F104030410445D0472198
:4000C000483249FF4AFF4BFF4DA04F04501852805405580459045A045B045C445D445F01604062C06440654066C068C06AC06CC06EC08E0192029703A201A901AA04AF027B
:40010000B101B204B302B401B602BE10C010C105C5D0C602C701C816C9FFCAFFCBFFCDA0CF04D018D280D405D804D904DA04DB04DC44DD44DF01E040E2C0E440E540E6C0D8
:40014000E8C0EAC0ECC0EEC001800B400D080F0210881684180119801A041B081C201D081E482010210125202640272029802B082E4830083C203E0140814101450A4902EF
:400180004B804F01508853405502560C5701588059025A045E885F017340768089208C10C001C2A8C45ACA5CCC02CEA0D0C8D208D6DBE210E680EE0485409601B720E608AA
:4001C000EE10A540AE01E6495602573A5B045D105F018204842F853787C8880489A08A028B5092109417950496089C319DF99E0E9F02A108A411A5CAA735A808A950ABA0F8
:40020000AE02B020B21FB3F0B70FB802BB08BE01C013C104C5ECC6B0C706C81BC9FFCAFFCBFFCD20CEF0D110D602D737D804D904DA04DB04DC11DD11DF01E2E0E301E501CF
:40024000E701E860E901EB01EC10ED50EE10EF500014012209800A5010281380184019081A1020102180292930083180382440404180421048204B0250185A025E04611033
:40028000671071017240750281048E019202940497029D08A580C00EC20DC407CA07CC0ACE06D00BD641D844E6489202940497029D08A580B440E6084060410349FF4AFF84
:4002C0004BFF4DA04F0450185A045D025F01604062C06440654066C068C06AC06CC06EC0840485018A02920198049D019E04A602A701B004B101B202B401BE01BF01C0604B
:40030000C102C501C620C809C9FFCAFFCBFFCDAFCE0FCF04D018D280D804D904DA04DB04DC02DD22DF01E040E2C0E440E540E6C0E8C0EAC0ECC0EEC0000401200810098066
:400340000A401020184019301B182201281029083180380441204610482049104F2051205210724087089702AB01C006C20BC404CA02CC08CE02D044D224E402B704EE040E
:4003800001010405080509050C051010110314051501180322032630280A302031043203340C3501361037023E443F4140314104420149FF4AFF4BFF4DA04F0150185280DF
:4003C000580459045A045B045F016040628064406540668068406A506BA86C406D206E506FA880019402A20AA605B004B208B402B601B902BE50BF01C035C104C205C505D6
:40040000C6C2C70EC81FC9FFCAFFCBFFCDAFCE07CF01D018D417D604D804D904DA04DB04DF01E040E280E440E540E680E840EA50EBA8EC40ED20EE50EFA80102062007068F
:400440000A100D040E8810A015201680170819421A141C021D881E8821022541270837063E21410A458A48A1529459505A04618062146340768081108280874089148A0179
:400480008B028D018E20A540C0E8C274C47CCCC0CEA0D0D3D208D60ED80FE020E210E4E0010C030207020B040C01130A180219011E011F0620012B0C32033301370E380866
:4004C0003B803F04580459045C335F018420850B864087048A0C8C0C8E03900192069440962097089C609D059F0AA001A20EA506A603A709AA08AC10B00FB210B307B46067
:40050000B508BA02BE14BF04D602D73AD804D904DB04DC13DD10DF010004030A05400701080109800A100C100F0A1010111012011302170219141A041B031D081F082004D6
:4005400023102644270229082F083008318034013640372138043D103F2A5A0463107380921094049604971099089A019D149F80A008A180C087C2CDC41FCA22CCBACEE280
:40058000D602D8020010020C060307010902101C110112021409161019041D01200C22112301241428102B0131013302341F35043F154012410545EB46E0470C481B49FF2D
:4005C0004AFF4BFF4EF04F44500C5401580459045A045B045C035D335F0166C06A406B0281028403860487018C038E0C910396089A059C0A9E04A003A103A204B103B60F20
:40060000B902BA80BF01C001C640C9FFCA07CBFFCC40CD20CEF0CF05D008D804D904DA04DC03DD03DF01E040E1A8E240E3200004038004080540072009090D080F0A102005
:40064000112013021702180419101D401F802224238027402A022B042F8030013110338034013601370238283D023E063F0A420443804740482049014A014F0850145510DD
:40068000571059015A085BA086209B029D40A108A301A714AA04B720C0ACC2ECC41ECA85CC8DCEC6D01CD208D60FE402EE103008338034423B803C40CCF0CE30311435805C
:4006C0003702600166088B408E0897809C42A408A780A840CCF0D640D880EE200101840887809C429D949F02A408A780B401C010E240E610810484408D8091019C429D94FD
:400700009F02AD01E690E81057045F028702D402D60103101B018701B704C008C608E80286108F109B10E60200042780870289058B808C0691019C029D109F02C010C8805B
:40074000E64001049504A910C010EE200C200E20A610C20574048404B420DE04EE08001608100C020E04100B1A011C0A00FF01FF0203100100E3E300C00000008000048052
:4007800080008000000000001120200000000000A04B4B0000000000008686008200010001000000000000001F0018010000000000000000000000000000000000000000EA
:4007C00000000000000000000000000000000000000000000000000000000000000000000000000000000000000000000000000000000000000000000000000000000000F9
:4008000000000000000000000000000000000000000000000000000000000000000000000000000000000000000000000000000000000000000000000000000000000000B8
:400840000000000000000000000000000000000000000000000000000000000000000000000000000000000000000000000000000000000000000000000000000000000078
:400880000000000000000000000000000000000000000000000000000000000000000000000000000000000000000000000000000000000000000000000000000000000038
:0200000490006A
:0400000000004005B7
:0200000490105A
:04000000BC90ACAF55
:0200000490303A
:02000000D59396
:0200000490402A
:4000000000000000000000000000000000000000000000000000000000000000000000000000000000000000000000000000000000000000000000000000000000000000C0
:400040000000000000000000000000000000000000000000000000000000000000000000000000000000000000000000000000000000000000000000000000000000000080
:400080000000000000000000000000000000000000000000000000000000000000000000000000000000000000000000000000000000000000000000000000000000000040
:4000C0000000000000000000000000000000000000000000000000000000000000000000000000000000000000000000000000000000000000000000000000000000000000
:0200000490501A
:0C00000000012E16106900012E26E5FC00
:00000001FF