:4000000000800020110000002D0900002D09000080B500AF024A034B1B68136000F0BAFCBC760040FA46004010B5054C237833B9044B13B10448AFF300800123237010BDF5
:400040006889FF1F0000000090770000084B10B51BB108490848AFF300800848036803B910BD074B002BFBD0BDE81040184700BF000000006C89FF1F90770000C880FF1FA4
:400080000000000090B583B002AF00F083F962B600F086F800F028F80D4B1B68184602F043FC03460C46CDE900340A4AFF210A4803F0DCF8084802F009FA084B1B68084A2C
:4000C000FF21084803F0D2F8064802F0FFF9DFE7EC8AFF1FA0770000FC8AFF1FE089FF1FBC770000E889FF1FB0B500AF264B1968264B83FB01235A10CB17D21A13469B00F8
:400100001344CA1A002A03D01F4B1B68012B34D11F4B1B68184602F007FC19A3D3E9002302F0A4FA03460C4625461C46194B1B68184602F0F9FB02460B462046294602F00B
:40014000A7FC0346002B0CD0012002F059FA124802F0BCF94FF4FA6000F0AAFE0A4B00221A600E4BB3F90030184601F0BFF80246084B1A60002002F043FA00BFB0BD00BF75
:40018000EC51B81E85EBB13FE089FF1F67666666EC8AFF1FF88AFF1FD8770000F08AFF1FB0B500AF424B00221A60424B4FF000021A60414B47F6FF721A80404B4FF4004228
:4001C0001A803F4B00221A800EE03E4B01221A7000BF3C4B1B78DBB2002BFAD1384B1B8801339AB2364B1A80354B1B88B3F5806FEBD32F4B1B689B121AB2334B1A80324B5B
:40020000B3F90030184602F025FD04462E4BB3F90030184602F01EFD03461946204602F06DFD03461A46234B1B681946104602F003FF0346002B24D01E4B1B684FF089415C
:40024000184602F00FFE03461C461F4BB3F90030184602F0FFFC05461B4BB3F90030184602F0F8FC03461946284602F047FD03461946204602F038FC03461A46134B1A6013
:4002800003E0124B4FF000021A60114B1B6801330F4A13600C4BB3F90030184601F026F802460C4B1A600B4B1B681846B0BD00BFDC89FF1FF48AFF1FEA8AFF1FF28AFF1FFD
:4002C000E88AFF1F78640040F08AFF1FD889FF1FE089FF1FEC8AFF1F80B582B000AF4FF480434FF480420121022001F029FB0346FB7100F035FD03463B7138790223FF22E3
:40030000022100F05BFD3B794CF2A17244F61061184600F093FD3A79FB791146184600F0B1FCFB790121184600F0F8FB00BF0837BD4680BD80B582B000AF41F6FF734FF434
:4003400080420121022001F05BFC0346FB7100F007FD03463B7138790523FF22022100F02DFD3B790A4A92B24CF2A971184600F065FD3A79FB791146184600F083FCFB7947
:400380000121184600F0CAFB00BF0837BD4680BDE489FF1F80B500AF01F002FE02F0E4F801F0EEFC02F016F801F0CCFD00F05AFF022000F06FFF00F089FFFFF78DFF01F053
:4003C00099FB0221002001F0A7FBFFF7B3FF044801F048FC034B00221A7000BF80BD00BFE90300007864004098B500AF224B00221A70224BB3F900301A46214B1B681344A9
:400400001F4A13601D4BB3F90030184602F022FC04461A4BB3F90030184602F01BFC03461946204602F06AFC03461A46154B1B681946104602F05AFB03461A46114B1A60CF
:400440000E4BB3F90020104BB3F900309A4204DA0A4BB3F900200C4B1A80084BB3F900200A4BB3F900309A4204DD044BB3F90020064B1A8000BF98BD78640040E489FF1F86
:40048000DC89FF1FF48AFF1FEA8AFF1FF28AFF1F80B582B000AF786039603A680021786802F096FE00BF0837BD4680BD80B584B000AFF860B9607A607A68B968F86802F04B
:4004C00011FE00BF1037BD4680BD00BF80B483B000AF0346FB71FEE780B487B000AF7860396000233B6100237B6127E07B699B007A6813441B68BB60BB68FB73BB6823F0CB
:40050000FF03BB6014E03B695B003A6813441B781A46BB68134419463B695B003A6813445B780B703B6901333B61FB7B013BFB73FB7B002BE7D17B6901337B617B691C2B94
:40054000D4D900BF1C37BD4680BC704780B582B000AF434B00221A80424B50221A70424B4FF49C721A80414B18221A70404B40F685021A803F4B18221A7008223E493F48AD
:40058000FFF794FF3E4B06221A703E4B52221A703D4B3E4A1278D2B21A703D4B4FF4E1621A803C4B41F251221A800023FB7019237B6014E0FB785B00DAB2374B1B78DBB244
:4005C00003F00103DBB21343DBB203F00303FB704FF4F07002F034F87B68013B7B607B68002B02D0FB78032BE4D17B68002B02D10320FFF76BFF294B4FF480721A80274B26
:4006000007221A70264B00221A70264B48221A70224B00221A70244B00221A70234B02221A70234B04221A70224A224B1B78DBB243F00703DBB213701F4A1F4B1B78DBB2DE
:4006400043F00303DBB213701C4A1C4B1B78DBB263F07F03DBB2137000BF0837BD4680BD80400040824000408440004086400040884000408A4000408004004800410040B6
:400680000043004000420040A14600400F01004922420040204200402542004004400040064000400840004009400040014000400B400040A2430040A1430040A043004035
:4006C00080B483B000AF214B1B78FB71204AFB7903F00703DBB213701E4AFB791B09DBB213701D4B80221A701C4B09221A701C4B80221A701B4B04221A701B4B40221A70D3
:400700001A4B10221A701A4B80221A70194B80221A70194B10221A70184B40221A70184B20221A70174B40221A70174B80221A70164B22221A70164B90221A70154B44226B
:400740001A7000BF0C37BD4680BC7047CF0100496E5800406F5800403D5100406C580040245A0040275A0040285A0040305A0040345A0040935A0040945A0040DB5A004056
:40078000DC5A0040005B0040045B0040465B0040585B00407658004080B586B000AF72B60023FB7513E0FA7D13465B0013445B00494A13443B613B691A683B699B889BB242
:4007C00019461046FFF764FEFB7D0133FB75FB7D082BE8D90023FB751CE0FA7D13469B0013445B003D4A1344FB60FB681B68BB60FB685B687B60FB681A7A5B7A1B0213433E
:400800007B807B881A467968B868FFF74FFEFB7D0133FB75FB7D002BDFD031494FF09040FFF75AFE2F4B0A221A7004212E48FFF72FFE04222D492E48FFF738FE2D4A2D4BB6
:400840001B78DBB243F00203DBB213702A4A2A4B1B78DBB243F00203DBB21370274A274B1B78DBB243F04003DBB21370244A244B1B78DBB243F01003DBB21370082221494F
:400880002148FFF713FE0A2220492148FFF70EFE082220492048FFF709FE204A1F4B1B78DBB243F00803DBB213701D4B61221A70FFF74CFE1A4B81221A701A4B01221A7035
:4008C000FFF7FEFE0E220D491748FFF7EFFD00BF1837BD4680BD00BFEC7700002478000074000048835800405076004088040048407600400350014013500140A043004031
:40090000C243004064040048025100406C040048C05100407804004832510040224300400048004004000840B043004080B500AF02F0AAFB03461B680C2B00D1FEE7FEE7DA
:4009400080B584B000AF7860104B1A687B6813441A460F4BD31AB3F5805F09DC0B4B1B68FB600A4B1A687B681344084A136007E002F08AFB02460C2313604FF0FF33FB603F
:40098000FB6818461037BD4680BD00BFCC80FF1F088CFF1F80B586B000AF224B7B61224B3B61204B7B6135E03B691B68FB603B695B68BB603B699B683B6000237B600CE01C
:4009C000FB681A68BB681A60BB680433BB60FB680433FB607B6804337B607A683B689A42EED13B69DB683B6000237B6008E0BB6800221A60BB680433BB607B6804337B6065
:400A00007A683B689A42F2D13B6910333B617B69013B7B617B69002BC6D102F03BFBFFF731FBFEE7010000001C80000080B582B000AF194B194A1A60194A194B1B6843F4C9
:400A40000073136000237B600FE07B68032B04D8144A7B6852F8233000E0134B13497A6841F822307B6801337B607B682F2BECD90F4B1B78DAB20F4B1A700F4B0B4A1A6057
:400A8000FFF78AFE00F01CF80C4B00221A6000BF0837BD4680BD00BF0CED00E00004FA0514ED00E0000000002D0900000080FF1FBC760040C480FF1F08ED00E0C080FF1F2C
:400AC00080B483B000AF134B7F221A70124B80221A707F23FB710CE0FB79DB0003F1804303F5F043FA79013AD2B21A70FB79013BFB71FB79002BEFD1FB79DB0003F1804366
:400B000003F5F04300221A7000BF0C37BD4680BC704700BFD180FF1FD080FF1F80B485B000AF03460A46FB711346BB710123FB60FB79172B2FD8BB79002B0ED0FB791A01A0
:400B4000184B1344FA791101164A0A441278D2B242F02002D2B21A700DE0FB791A01114B1344FA7911010F4A0A441278D2B222F02002D2B21A70FB791A010A4B1344FA79BF
:400B80001101084A0A441278D2B242F00102D2B21A700023FB60FB6818461437BD4680BC704700BF1070004080B485B000AF03460A46FB711346BB710123FB60FB79172B5C
:400BC0001BD8FB791A01104B13441B78DBB223F00E03FB72FB791A010B4B1344BA795200D2B252B202F00E0251B297F90B200A4352B2D2B21A700023FB60FB68184614371E
:400C0000BD4680BC704700BF1070004080B485B000AF0346FB710B46BB8013467B800123FB60BB8841F6FF72934202D14FF40053BB807B8841F6FF72934202D14FF40053C6
:400C40007B80FB79172B17D8FB79DB0003F1804303F5EC430433BB60BB68BA881A80FB79DB0003F1804303F5EC430633BB60BB687A881A800023FB60FB6818461437BD4689
:400C800080BC704780B485B000AF03460A46FB711346BB710123FB60FB79172B07D8FB791A01064B1344BA795A720023FB60FB6818461437BD4680BC704700BF1070004056
:400CC00090B484B000AF0446084611461A462346FB710346BB710B467B7113463B710123FB60FB79172B34D8FB79DB0003F1804303F5EC43BA7902F07F02D1B27A79D20195
:400D0000D2B20A43D2B21A70FB79DB0003F1804303F5EC433A7E1201D1B23A7902F00F02D2B20A43D2B25A70FB79DB0003F1804303F5EC433A7F02F00F02D2B29A70FB7999
:400D4000DB0003F1804303F5EC430022DA700023FB60FB6818461037BD4690BC704700BF80B582B000AFFF23FB7101F071FC0346BB71104B1B78182B12D90F4B1B78FB7117
:400D80000C4B1B78013BDAB20A4B1A70FB79DB0003F1804303F5F0431B78DAB2064B1A70BB79184601F058FCFB7918460837BD4680BD00BFD080FF1FD180FF1F90B484B03B
:400DC00000AF0446084611461A462346FB710346BB800B46BB711346FB700123FB6097F90730002B23DBBB8823F47F6323F00F039BB2002B1BD1FB79DB0003F1804303F529
:400E0000F043BB60BB68BA881A80FB79DB0003F1804303F5F043BA799A70FB79DB0003F1804303F5F043FA78DA700023FB60FB6818461037BD4690BC704700BF80B485B056
:400E400000AF0346FB710B46BB8013467B800123FB6097F90730002B17DBFB79DB0003F1804303F5F0430433BB60BB68BA881A80FB79DB0003F1804303F5F0430633BB60C4
:400E8000BB687A881A800023FB60FB6818461437BD4680BC704700BF80B483B000AF0346FB7101BE00BF0C37BD4680BC704700BF80B582B000AF786008E00C4B1B681846E5
:400EC00001F0BEFB7B68A3F500437B607B68B3F5004FF2D8064B1B687A6802FB03F3184601F0AEFB00BF0837BD4680BDE480FF1FDC80FF1F80B582B000AF0346FB80FB88D3
:400F0000054A127802FB03F3184601F099FB00BF0837BD4680BD00BFE080FF1F80B584B000AF03463960FB710F4B1B68FB60FB791F2B02D90020FFF7AFFFFB7903F01F0303
:400F400010339B00FA6813441B68BB60FB7903F01F0310339B00FA6813443A681A60BB6818461037BD4680BD08ED00E080B582B000AF03460A46FB711346BB71BB79072B1D
:400F800002D90020FFF788FFFB791F2B02D90020FFF782FFFB7903F01F0303F1604303F56443BA795201D2B21A7000BF0837BD4680BD00BF80B582B002AF414B01221A70E8
:400FC000404B00221A70102001F0A8F9102001F0BFF807211D20FFF7C9FF3B4B04221A703A4B00221A703A4B00221A70394A394B1B78DBB243F01803DBB21370364B00223D
:401000001A70364B00221A70354B00221A70354B0A221A70344B00221A70344B00221A70334B5B221A70334B5E221A70324B00221A70324B14221A700123009310234FF4A1
:40104000004249F25B11052000F06CFB0223009310234FF4004249F2DA01042000F062FB0323009310234FF4004249F2DA01042000F058FB0423009310234FF4004249F279
:40108000DA01042000F04EFB1D4A0D4B1B78DBB2013B1C499B000B449B7813701A4A084B1B78DBB2013B174931F823301380044B1B78DBB2184600F03BF900BFBD4680BD86
:4010C000E880FF1F8489FF1F96580040975800409E580040075B004093580040885B0040895B004080580040815800408358004088580040895800408D580040014E004057
:401100000E4E00408C89FF1F0C4E004080B582B000AF01F09DFA0346FB71444B1B78BB71434A434B1B78DBB243F00103DBB213703F4A3F4B1B78DBB243F01003DBB213709A
:401140003C4A3C4B1B78DBB243F00103DBB21370384A384B1B78DBB243F01003DBB21370354A354B1B78DBB243F00203DBB21370324A324B1B78DBB243F00203DBB21370B8
:401180002F4A2F4B1B78DBB243F00303DBB213700320FFF7AFFE284A274B1B78DBB223F00203DBB21370254A244B1B78DBB223F00203DBB21370234A224B1B78DBB243F08E
:4011C0000603DBB21370204B7A221A701F4A1F4B1B78DBB243F00103DBB213701C4A1C4B1B78DBB243F00103DBB21370194A194B1B78DBB243F00103DBB21370164A164BE8
:401200001B78DBB243F00103DBB21370134B4FF000521A60124B4FF000521A60FB79184601F01AFA00BF0837BD4680BDE880FF1FAA430040BA430040F8460040F946004074
:40124000915800407758004082580040A1430040B1430040A2430040B243004080E200E000E100E080B500AF084B1B78002B09D1074B1B78DBB2002B01D1FFF79BFE034B4C
:4012800001221A70FFF742FF00BF80BD8689FF1F8789FF1F80B485B000AF0346FB710A4B1B78DBB223F00303FB73FB7903F00303DAB2FB7B1343FB73034AFB7B137000BFF2
:4012C0001437BD4680BC7047144E004080B400AF054A054B1B78DBB243F00103DBB2137000BFBD4680BC7047004E004090B585B000AF78600C4B1B687A68D31A7B6078687A
:4013000001F0A8FC0446094B1B68184601F0A2FC03461946204601F0A5FD0346FB60FB6818461437BD4690BD8889FF1FFC8BFF1F80B582B000AF0346FB71C14B00221A7012
:40134000FB79012B63D1BF4B38221A70BE4B04221A70BE4B07221A70BD4B00221A70BD4B00221A70BC4B3F221A70BC4B00221A70BB4B00221A70BB4B00221A70BA4B01229D
:401380001A70BA4B50221A70B94B13221A70B94B2B221A70B84B00221A70B84B44221A70B74B48221A70B74B02221A70B64B01221A70B64B11221A70B54B19221A70B54B8B
:4013C00097221A70442000F065FAB34B58221A70B24B00221A70B24B05221A70B14B01221A70B14B00221A70B04B0A221A70B04B4FF47A521A600121052000F0D1FE0121F0
:401400002E2000F0E7FDAB491D20FFF787FDFB79022B63D18B4B38221A708B4B04221A708A4B07221A708A4B00221A70894B00221A70894B3F221A70884B00221A70884B30
:4014400000221A70874B00221A70874B01221A70864B50221A70864B27221A70854B2C221A70854B00221A70844B55221A70844B5A221A70834B05221A70834B01221A708F
:40148000824B11221A70824B19221A70814B97221A70442000F0FEF97F4B58221A707F4B00221A707E4B05221A707E4B01221A707D4B00221A707D4B0A221A707C4B4FF486
:4014C000FA421A600121052000F06AFE0121252000F080FD78491D20FFF720FDFB79032B63D1584B38221A70574B04221A70574B07221A70564B00221A70564B00221A7014
:40150000554B3F221A70554B00221A70544B00221A70544B00221A70534B01221A70534B50221A70524B27221A70524B2C221A70514B00221A70514B55221A70504B5A2278
:401540001A70504B05221A704F4B01221A704F4B11221A704E4B19221A704E4B97221A70442000F097F94C4B58221A704B4B00221A704B4B05221A704A4B01221A704A4BDE
:4015800000221A70494B0A221A70494B4FF4FA421A600121052000F003FE0121252000F019FD46491D20FFF7B9FCFB79042B40F0A680244B38221A70234B04221A70234BB4
:4015C00007221A70224B00221A70224B00221A70214B3F221A70214B00221A70204B00221A70204B00221A701F4B01221A701F4B50221A701E4B27221A701E4B2C221A706F
:401600001D4B00221A701D4B55221A701C4B5A221A701C4B05221A701B4B01221A701B4B11221A701A4B19221A701A4B97221A70442000F02FF9184B58221A7040E000BFDE
:401640008589FF1F004E0040024E0040034E0040044E0040054E0040064E0040084E0040094E00400A4E0040144E0040845800408558004086580040875800408A580040D7
:401680008B5800408C5800408E5800408F580040905800409158004094580040955800409A5800409B5800409C5800409D580040FC8BFF1F111900001D19000029190000D7
:4016C000114B00221A70114B05221A70104B01221A70104B00221A700F4B0A221A700F4B4FF4FA421A600121052000F059FD0121252000F06FFC0A491D20FFF70FFC00BFC4
:401700000837BD4680BD00BF955800409A5800409B5800409C5800409D580040FC8BFF1F3519000090B587B000AF0446084611461A462346FB710346BB800B467B80134605
:40174000BB7197F82830002B00F08B8097F82830042B00F28680FB79013B092B4AD801A252F823F08D170000F5170000F51700008D170000F5170000F5170000A7170000E6
:40178000C1170000F5170000DB170000BB790F2B04D9374B1B78DBB2FB752EE0354B1B78DBB2FB7529E0BB790F2B04D9324B1B78DBB2FB7521E0314B1B78DBB2FB751CE06E
:4017C000BB790F2B04D92E4B1B78DBB2FB7514E02C4B1B78DBB2FB750FE0BB790F2B04D9294B1B78DBB2FB7507E0284B1B78DBB2FB7502E00023FB7500BFBA8897F9173025
:401800005B0113443B617B883A6902FB03F3FB60FB68DB0BBB82BB790D2B12D8BA8ABB79C3F10E0342FA03F3BB8297F82830013BBA790132D1B2164A9B0013440A469A7025
:4018400007E097F82830013B114A9B0013440F229A7097F82830013B0D49BA8A21F8232002E00020FFF718FB00BF1C37BD4690BD180100491C010049190100491D010049BE
:401880001A0100491E0100491B0100491F0100498C89FF1F80B584B000AF0346FB7100F0D7FE0346FB73174A164B1B78DBB243F00303DBB21370144A134B1B78DBB243F0D8
:4018C0000303DBB21370114AFB7913700320FFF711FB0C4A0B4B1B78DBB223F00303DBB21370094A084B1B78DBB223F00303DBB21370FB7B184600F0AFFE00BF1037BD46FD
:4019000080BD00BFF8460040F94600409258004080B400AF00BFBD4680BC704780B400AF00BFBD4680BC704780B400AF00BFBD4680BC704780B400AF00BFBD4680BC704724
:4019400090B585B002AF0446084611461A462346FB710346BB710B46BB8013467B80104B0A221A700E4B1878BA79F97900230193002300930023FFF7A3F9094B1B787A8819
:40198000B9881846FFF742F9054B1B7802211846FFF70AF9024B1B7818460C37BD4690BDE980FF1FF8B500AF304A304B1B78DBB243F01003DBB213702D4A2D4B1B78DBB2CC
:4019C00023F00103DBB213702A4B3F221A702A4B3F221A70294A2A4B104619464FF480731A4601F07FFB274A254B104619464FF480731A4601F076FB234A244B1046194643
:401A00004FF480731A4601F06DFB214A214B104619464FF400731A4601F064FB1E4A1F4B104619464FF400731A4601F05BFB1C4B1C4A14461E4604F1400E354623461868AF
:401A400059689A68DB680FC5103410367445F4D1094B00221A70002000F0AAF8012000F0BBF8114BF8221A7000BFF8BDA643004080C7004088C700408CC7004000C40040C4
:401A80003078000000C5004000C60040707D000000C000403079000000C20040307B000000C70040307D000084C7004080B400AF0D4A0D4B1B78DBB243F01003DBB21370E9
:401AC0000A4A0A4B1B78DBB243F01003DBB21370074A074B1B78DBB243F00103DBB2137000BFBD4680BC7047A6430040B643004080C7004080B500AF064B1B78002B04D157
:401B0000FFF750FF034B01221A70FFF7CFFF00BF80BD00BF9C89FF1F80B483B000AF03460A46FB711346BB71FB79002B1AD11F4A1E4B1B78DBB223F03303DBB213701B49CA
:401B40001A4B1B78DAB2BB791343DBB20B701749164B1B78DAB2BB791B01DBB21343DBB20B701EE0FB79012B1BD1104A0F4B1B78DBB203F03303DBB213700C490B4B1B785F
:401B8000DAB2BB799B00DBB21343DBB20B700749064B1B78DAB2BB799B01DBB21343DBB20B7000BF0C37BD4680BC7047B0C7004080B483B000AF0346FB71FB7903F01F0361
:401BC000FB71044AFB79137000BF0C37BD4680BC704700BF98C7004080B483B000AF0346FB71FB7903F00F03FB71044AFB79137000BF0C37BD4680BC704700BF9CC700408F
:401C000090B585B002AF0446084611461A462346FB710346BB710B46BB8013467B80104B08221A700E4B1878BA79F97900230193002300930823FFF743F8094B1B787A88B1
:401C4000B9881846FEF7E2FF054B1B7802211846FEF7AAFF024B1B7818460C37BD4690BDEA80FF1F80B582B000AF786000F03CF8786800F009F8072000F018F800F028F87A
:401C800000BF0837BD4680BD80B485B000AF7860054B1B68FB60FB6840337A681A6000BF1437BD4680BC704708ED00E080B483B000AF0346FB71054AFB795B01DBB21370C7
:401CC00000BF0C37BD4680BC704700BF00E400E080B400AF034B01221A6000BFBD4680BC704700BF00E100E080B400AF034B01221A6000BFBD4680BC704700BF80E100E0E3
:401D000080B500AF094B02221A70094B0C221A70084B01221A70002000F060F8032000F07FF8032000F03EF800BF80BD0C5800400D5800400E58004080B400AF0D4A0D4BF9
:401D40001B78DBB243F00803DBB213700A4A0A4B1B78DBB243F00803DBB21370074A074B1B78DBB263F07F03DBB2137000BFBD4680BC7047A9430040B9430040775800400A
:401D800080B500AF064B1B78002B04D1044B01221A70FFF7B5FFFFF7CFFF00BF80BD00BF9D89FF1F80B485B000AF0346FB710A4B1B78DBB223F00303FB73FB7903F00303BC
:401DC000DAB2FB7B1343FB73034AFB7B137000BF1437BD4680BC70470D58004080B483B000AF0346FB71FB79072B11D80B4A0B4B1B78DBB223F07003DBB213700749074BD5
:401E00001B78DAB2FB791B01DBB21343DBB20B7000BF0C37BD4680BC704700BF0E58004080B483B000AF0346FB71FB79032B11D80B4A0B4B1B78DBB223F00C03DBB2137058
:401E40000749074B1B78DAB2FB799B00DBB21343DBB20B7000BF0C37BD4680BC704700BF0E58004080B582B000AF144B7B60144B04221A70134B08221A701349786801F0AC
:401E8000DBF80346002B03D0104B05221A7002E00E4B07221A700E4A0D4B1B78DBB243F00803DBB21370032000F05EF8102000F077FA00BF0837BD4680BD00BF0000304188
:401EC00008580040095800400000C8420A5800402B5A004080B500AF154A154B1B78DBB243F00403DBB21370124A124B1B78DBB243F00403DBB213700F4A0F4B1B78DBB22D
:401F000043F00203DBB213700C4A0C4B1B78DBB243F00203DBB2137000F028FA084A084B1B78DBB263F07F03DBB2137000BF80BDA9430040B9430040A1430040B1430040CC
:401F40007758004080B500AF064B1B78002B04D1FFF788FF034B01221A70FFF7BBFF00BF80BD00BF9E89FF1F80B485B000AF0346FB710A4B1B78DBB223F00303FB73FB7925
:401F800003F00303DAB2FB7B1343FB73034AFB7B137000BF1437BD4680BC70470958004080B400AF094A094B1B78DBB243F00403DBB21370064A064B1B78DBB243F004038C
:401FC000DBB2137000BFBD4680BC7047A2430040B243004080B584B000AF03460A46FB8013467B7100F0CEF80346FB7300F0A4F80346BB81FA88BB899A4200F08880464BA8
:402000001B78DBB203F00103FB72FB7B002B20D1BB89002B02D0FB88002B1AD1BB89002B0BD13E4AFB8813803D4A3D4B1B78DBB223F04003DBB2137069E0394A384B1B7850
:40204000DBB243F04003DBB21370344AFB8813805DE0FB7A002B33D0324B00221A70324B01221A70314B00221A70314A304B1B78DBB203F07F03DBB21370294B1B78DBB22F
:4020800003F00803002B02D0FB88002B18D1294ABB891380234B07221A7000BF214B1B78DBB203F00103002BF8D11B4A1A4B1B78DBB223F00103DBB213701A4B00221A70CB
:4020C000154B1B78DBB203F00103002B13D0194AFB881380134A7B79002B01D0032300E00123137000BF0F4B1B78DBB203F00103002BF8D10BE0094AFB8813800649064BD0
:402100001B78DAB2FB7A1343DBB20B70FFE700BF1037BD4680BD00BFA14300400041004002410040014000401440004010400040084000400240004080B400AF034B1B8817
:402140009BB21846BD4680BC704700BF0041004080B483B000AF0346FB710949084B1B78DBB25AB297F9073023F007035BB213435BB2DBB20B7000BF0C37BD4680BC70478E
:402180000241004080B400AF044B1B78DBB203F00703DBB21846BD4680BC70470241004080B584B000AF03460A46FB8013467B7100F0CEF80346FB7300F0A4F80346BB81FA
:4021C000FA88BB899A4200F08880464B1B78DBB203F00103FB72FB7B002B20D1BB89002B02D0FB88002B1AD1BB89002B0BD13E4AFB8813803D4A3D4B1B78DBB223F0400356
:40220000DBB2137069E0394A384B1B78DBB243F04003DBB21370344AFB8813805DE0FB7A002B33D0324B00221A70324B01221A70314B00221A70314A304B1B78DBB203F0A1
:402240007F03DBB21370294B1B78DBB203F00803002B02D0FB88002B18D1294ABB891380234B07221A7000BF214B1B78DBB203F00103002BF8D11B4A1A4B1B78DBB223F008
:402280000103DBB213701A4B00221A70154B1B78DBB203F00103002B13D0194AFB881380134A7B79002B01D0032300E00123137000BF0F4B1B78DBB203F00103002BF8D1DD
:4022C0000BE0094AFB8813800649064B1B78DAB2FB7A1343DBB20B70FFE700BF1037BD4680BD00BFA2430040804000408240004001400040104000401440004008400040B9
:402300000240004080B400AF034B1B889BB21846BD4680BC704700BF8040004080B483B000AF0346FB710949084B1B78DBB25AB297F9073023F007035BB213435BB2DBB26A
:402340000B7000BF0C37BD4680BC70478240004080B400AF044B1B78DBB203F00703DBB21846BD4680BC70478240004080B400AF094A094B1B78DBB243F00203DBB21370C4
:40238000064A064B1B78DBB243F00203DBB2137000BFBD4680BC7047A1430040B143004080B483B000AF0346FB710949084B1B78DBB25AB297F9073023F007035BB2134324
:4023C0005BB2DBB20B7000BF0C37BD4680BC70470641004080B500AF064B1B78002B04D100F00AF8034B01221A7000F025F800BF80BD00BF9F89FF1F80B400AF094B7222BB
:402400001A70094B20221A70084B06221A70084B47221A70074B00221A7000BFBD4680BC704700BF896500408864004029640040396400408964004080B582B000AF00F0FE
:4024400007F90346FB71114A104B1B78DBB243F02003DBB213700E4A0D4B1B78DBB243F01003DBB213700B4A0A4B1B78DBB243F01003DBB2137000F0A9F8FB79184600F0D2
:40248000EBF800BF0837BD4680BD00BF99650040986400409964004080B483B000AF0346FB7100BF074B1B78DBB203F00403002BF8D1054AFB79137000BF0C37BD4680BC14
:4024C000704700BF696400404965004080B584B000AF78600023FB810C4B1B78002B10D009E0FB897A6813441B781846FFF7D4FFFB890133FB81FB897A6813441B78002BD8
:40250000EFD100BF1037BD4680BD00BF9F89FF1F80B500AF032000F039F800BF80BD00BF80B400AF0D4A0D4B1B78DBB243F06003DBB213700A4A0A4B1B78DBB243F008034E
:40254000DBB21370074A074B1B78DBB243F00803DBB2137000BFBD4680BC704777580040A4430040B443004080B500AF064B1B78002B04D1044B01221A70FFF7C9FFFFF7A0
:40258000CFFF00BF80BD00BFA189FF1F80B483B000AF0346FB710C4A0B4B1B78DBB223F00303DBB213700849074B1B78DAB2FB7903F00303DBB21343DBB20B7000BF0C376E
:4025C000BD4680BC704700BF5E58004080B400AF094A094B1B78DBB243F00203DBB21370064A064B1B78DBB243F00203DBB2137000BFBD4680BC7047A2430040B243004026
:4026000080B485B000AF0346FB710B4B1B78DBB223F00203FB730849FB795B00DBB203F00203DAB2FB7B1343DBB20B7000BF1437BD4680BC704700BF30510040000000004C
:402640000230800803D000BF01380046FCD17047EFF3108072B6704780F31088704700BF81F0004102E000BF83F0004330B54FEA41044FEA430594EA050F08BF90EA020F68
:402680001FBF54EA000C55EA020C7FEA645C7FEA655C00F0E2804FEA5454D4EB5555B8BF6D420CDD2C4480EA020281EA030382EA000083EA010180EA020281EA0303362D3B
:4026C00088BF30BD11F0004F4FEA01314FF4801C4CEA113102D0404261EB410113F0004F4FEA03334CEA133302D0524263EB430394EA050F00F0A780A4F10104D5F1200E44
:402700000DDB02FA0EFC22FA05F2801841F1000103FA0EF2801843FA05F359410EE0A5F120050EF1200E012A03FA0EFC28BF4CF0020C43FA05F3C01851EBE37101F000455D
:4027400007D54FF0000EDCF1000C7EEB00006EEB0101B1F5801F1BD3B1F5001F0CD349085FEA30004FEA3C0C04F101044FEA445212F5800F80F09A80BCF1004F08BF5FEA7C
:40278000500C50F1000041EB045141EA050130BD5FEA4C0C404141EB010111F4801FA4F10104E9D191F0000F04BF01460020B1FA81F308BF2033A3F10B03B3F120020CDA54
:4027C0000C3208DD02F1140CC2F10C0201FA0CF021FA02F10CE002F11402D8BFC2F1200C01FA02F120FA0CFCDCBF41EA0C019040E41AA2BF01EB0451294330BD6FEA040465
:402800001F3C1CDA0C340EDC04F11404C4F1200220FA04F001FA02F340EA030021FA04F345EA030130BDC4F10C04C4F1200220FA02F001FA04F340EA0300294630BD21FA9E
:4028400004F0294630BD94F0000F83F4801306BF81F480110134013D4EE77FEA645C18BF7FEA655C29D094EA050F08BF90EA020F05D054EA000C04BF1946104630BD91EAF2
:40288000030F1EBF0021002030BD5FEA545C05D14000494128BF41F0004130BD14F580043CBF01F5801130BD01F0004545F0FE4141F470014FF0000030BD7FEA645C1ABFA2
:4028C000194610467FEA655C1CBF0B46024650EA013406BF52EA033591EA030F41F4002130BD00BF90F0000F04BF0021704730B54FF4806404F132044FF000054FF0000169
:4029000050E700BF90F0000F04BF0021704730B54FF4806404F1320410F0004548BF40424FF000013EE700BF42004FEAE2014FEA31014FEA02701FBF12F07F4393F07F4FE7
:4029400081F06051704792F0000F14BF93F07F4F704730B54FF4607401F0004521F0004120E700BF50EA010208BF704730B54FF000050AE050EA010208BF704730B511F059
:40298000004502D5404261EB41014FF4806404F132045FEA915C3FF4DCAE4FF003025FEADC0C18BF03325FEADC0C18BF033202EBDC02C2F1200300FA03FC20FA02F001FA47
:4029C00003FE40EA0E0021FA02F11444C1E600BF4FF0FF3C06E000BF4FF0010C02E000BF4FF0010C4DF804CD4FEA410C7FEA6C5C4FEA430C18BF7FEA6C5C1BD001B050EA47
:402A0000410C0CBF52EA430C91EA030F02BF90EA020F0020704710F1000F91EA030F58BF994208BF90422CBFD8176FEAE37040F0010070474FEA410C7FEA6C5C02D150EAE9
:402A4000013C07D14FEA430C7FEA6C5CD6D152EA033CD3D05DF8040B704700BF8446104662468C461946634600E000BF01B5FFF7B7FF002848BF10F1000F01BD4DF808ED0F
:402A8000FFF7F4FF0CBF012000205DF808FB00BF4DF808EDFFF7EAFF34BF012000205DF808FB00BF4DF808EDFFF7E0FF94BF012000205DF808FB00BF4DF808EDFFF7CEFFEF
:402AC00094BF012000205DF808FB00BF4DF808EDFFF7C4FF34BF012000205DF808FB00BF80F0004002E000BF81F0004142001FBF5FEA410392EA030F7FEA226C7FEA236CC0
:402B00006AD04FEA1262D2EB1363C1BFD218414048404140B8BF5B42192B88BF704710F0004F40F4000020F07F4018BF404211F0004F41F4000121F07F4118BF494292EA51
:402B4000030F3FD0A2F1010241FA03FC10EB0C00C3F1200301FA03F100F0004302D5494260EB4000B0F5000F13D3B0F1807F06D340084FEA310102F10102FE2A51D2B1F1CE
:402B8000004F40EBC25008BF20F0010040EA03007047490040EB000010F4000FA2F10102EDD1B0FA80FCACF1080CB2EB0C0200FA0CF0AABF00EBC25052421843BCBFD0409A
:402BC0001843704792F0000F81F4000106BF80F400000132013BB5E74FEA41037FEA226C18BF7FEA236C21D092EA030F04D092F0000F08BF0846704790EA010F1CBF002000
:402C0000704712F07F4F04D1400028BF40F00040704712F100723CBF00F50000704700F0004343F0FE4040F4000070477FEA226216BF08467FEA23630146420206BF5FEAA7
:402C4000412390EA010F40F4800070474FF0000304E000BF10F0004348BF40425FEA000C08BF704743F0964301464FF000001CE050EA010208BF70474FF000030AE000BF43
:402C800050EA010208BF704711F0004302D5404261EB41015FEA010C02BF84460146002043F0B64308BFA3F18053A3F50003BCFA8CF2083AA3EBC25310DB01FA02FC63444D
:402CC00000FA02FCC2F12002BCF1004F20FA02F243EB020008BF20F00100704702F1200201FA02FCC2F1200250EA4C0021FA02F243EB020008BF20EADC7070474FF0FF0C78
:402D00001CEAD0521EBF1CEAD15392EA0C0F93EA0C0F6FD01A4480EA010C400218BF5FEA41211ED04FF0006343EA501043EA5111A0FB01310CF00040B1F5000F3EBF4900AD
:402D400041EAD3715B0040EA010062F17F02FD2A1DD8B3F1004F40EBC25008BF20F00100704790F0000F0CF0004C08BF49024CEA502040EA51207F3AC2BFD2F1FF0340EA5C
:402D8000C250704740F400004FF00003013A5DDC12F1190FDCBF00F000407047C2F10002410021FA02F1C2F1200200FA02FC5FEA310040F1000053EA4C0308BF20EADC708E
:402DC000704792F0000F00F0004C02BF400010F4000F013AF9D040EA0C0093F0000F01F0004C02BF490011F4000F013BF9D041EA0C018FE70CEAD15392EA0C0F18BF93EA5C
:402E00000C0F0AD030F0004C18BF31F0004CD8D180EA010000F00040704790F0000F17BF90F0004F084691F0000F91F0004F14D092EA0C0F01D142020FD193EA0C0F03D133
:402E40004B0218BF084608D180EA010000F0004040F0FE4040F40000704740F0FE4040F4400070474FF0FF0C1CEAD0521EBF1CEAD15392EA0C0F93EA0C0F69D0A2EB030207
:402E800080EA010C49024FEA402037D04FF0805343EA111143EA10130CF000408B4238BF5B0042F17D024FF4000C8B4224BF5B1A40EA0C00B3EB510F24BFA3EB510340EA5B
:402EC0005C00B3EB910F24BFA3EB910340EA9C00B3EBD10F24BFA3EBD10340EADC001B0118BF5FEA1C1CE0D1FD2A3FF650AF8B4240EBC25008BF20F0010070470CF0004C43
:402F00004CEA50207F32C2BFD2F1FF0340EAC250704740F400004FF00003013A37E792F0000F00F0004C02BF400010F4000F013AF9D040EA0C0093F0000F01F0004C02BF87
:402F4000490011F4000F013BF9D041EA0C0195E70CEAD15392EA0C0F08D142027FF47DAF93EA0C0F7FF470AF084676E793EA0C0F04D14B023FF44CAF08466EE730F0004C02
:402F800018BF31F0004CCAD130F000427FF45CAF31F000437FF43CAF5FE700BF4FF0FF3C06E000BF4FF0010C02E000BF4FF0010C4DF804CD4FEA40024FEA41037FEA226C2E
:402FC00018BF7FEA236C11D001B052EA530C18BF90EA010F58BFB2EB030088BFC81738BF6FEAE17018BF40F0010070477FEA226C02D15FEA402C05D17FEA236CE4D15FEAEC
:40300000412CE1D05DF8040B704700BF844608466146FFE70FB5FFF7C9FF002848BF10F1000F0FBD4DF808EDFFF7F4FF0CBF012000205DF808FB00BF4DF808EDFFF7EAFF07
:4030400034BF012000205DF808FB00BF4DF808EDFFF7E0FF94BF012000205DF808FB00BF4DF808EDFFF7D2FF94BF012000205DF808FB00BF4DF808EDFFF7C8FF34BF012094
:4030800000205DF808FB00BF014B1868704700BF1885FF1F70B50F4E0F4D761BB61018BF002405D0013455F8043B9847A642F9D10A4E0B4D04F09EFF761BB61018BF0024F2
:4030C00006D0013455F8043B9847A642F9D170BD70BD00BF00800000008000000C80000000800000844641EA000313F0030349D1403A23D30B6803604B6843608B688360F6
:40310000CB68C3600B6903614B6943618B698361CB69C3610B6A03624B6A43628B6A8362CB6AC3620B6B03634B6B43638B6B8363CB6BC36340304031403ADBD230320BD3B9
:403140000B6803604B6843608B688360CB68C36010301031103AF3D20C3205D351F8043B40F8043B043AF9D2043208D0D2071CBF11F8013B00F8013B01D30B88038060467E
:40318000704700BF082A13D38B07B1D010F00303AED0C3F10403D21ADB071CBF11F8013B00F8013BA4D331F8023B20F8023B9FE7043AD9D3013A11F8013B00F8013BF9D2EC
:4031C0000B7803704B7843708B7883706046704770B4840746D0541E002A41D0CDB2034602E0621EE4B3144603F8015B9A07F8D1032C2ED9CDB245EA05250F2C45EA054500
:4032000019D9264603F11002103E0F2E42F8105C42F80C5C42F8085C42F8045C02F11002F2D8A4F1100222F00F0204F00F041032032C13440DD91E462246043A032A46F85C
:40324000045BFAD8221F22F003020432134404F003042CB1C9B21C4403F8011BA342FBD170BC704714460346C2E700BF0CB4F0B5234B00299DB01D683CDB4FF402730C46E0
:4032800002900690ADF814304FF6FF7723AE15D04C1E229A334602A9284604940794ADF81670019600F02EF8421C19DB029B00221A701DB0BDE8F04002B070473346229AEE
:4032C00002A9284604940794ADF81670019600F019F8431C07DB1DB0BDE8F04002B070478B232B60E2E78B232B601DB0BDE8F04002B070478B232B604FF0FF30EBE700BFF5
:403300001885FF1F2DE9F04FC1B00C46099115460E930A9002F086FB03681846179303F0A3F9A38916901E0603D52369002B01F05D8100231A46A8460DF1C009DFF860A4AE
:40334000129319930B9325932493CDF88C901492159298F800304446EBB1252B02D11AE0252B03D014F8013F002BF9D1C8EB04058DB1249B259A01332A44072BC9F80080CD
:40338000C9F804502592249300F3328309F108090B9B2B440B932378002B00F0EA814FF0FF3B5D4600231A468DF86F3019460C930793637804F1010808F10108A3F1200019
:4033C000582800F24586DFE810F0F30343064306FC034306430643064306430643065900040443066600D0034306EC03BC05BC05BC05BC05BC05BC05BC05BC05BC0543065F
:40340000430643064306430643064306430643064306E205F7044306F70443064306430643064205430643064A0543064306430643064306740543064306CD0543064306AD
:40344000430643064306430643064306430643061D060E06F704F704F70415060E0643064306A3044306A805AE046D000A0443061204430635044306430670040E9C236835
:4034800018460C932346002803F104030E9306DA0C9B5B420C93079B43F00403079398F8003089E7AB460E9A0027079830217823BB4514688DF8701002F104024FF0000570
:4034C0008DF871308DF86F7040F00201C0F23D8620F0800141F00201079154EA05010E921193AD4800F0318130AE230943EA0573290904F00F020D461C46835C06F8013D68
:4035000054EA0503F1D130AB9B1B0D930D9B5B45B8BF5B4608930023139317B1089B01330893079B13F002030F9302D0089B02330893079B13F08403109340F018810C9B84
:40354000089A9D1A002D40F31281102D2599249A924F27DD189648461024B946099E2F460A9D04E0103F102F00F1080016DD01328A4B1031072A2591249280E81800F1DD9D
:4035800023AA3146284603F09DF8002840F0F880103F102F30A82599249AE8DC3D464F468146189E01326C18072A25942492C9F80070C9F8045000F3D0809DF86F7009F178
:4035C000080977B1249B013401330DF16F010122072B2594249389E8060000F3208209F108090F9B6BB1249B023401331CA90222072B2594249389E8060000F31C8209F1A4
:403600000809109B802B00F02C810D9BC3EB0B07002F33DD624A102F249B0F9222DD22464FF0100B0A9D099C04E0103F102F09F1080916DD01331032072B2592249389E890
:40364000000CF2DD23AA2146284603F03BF8002840F09680103F102F0DF1C009259A249BE8DC144601330F9A3C44072B2594249389E8840000F3C78109F10809079BDA058D
:4036800000F19080249B0D9901330C44072B2594C9F80060C9F80410249300F3E28109F10809079B590736D50C9B089A9D1A002D31DD102D249B394F22DD22461026DDF8E9
:4036C00028B0099C04E0103D102D09F1080916DD013332491032072B2592249389E84200F1DD23AA2146584602F0ECFF002847D1103D102D0DF1C009259A249BE8DC1446F3
:4037000001332C44072B25942493C9F80070C9F8045000F392840B9B0C9A08998A42ACBF9B185B180B93002C40F05981002324930DF1C0090DE60027BB458DF86F70C0F205
:403740000E85079B23F080030793BBF1000F00F06C84002400250027C6E623AA09990A9802F0B0FF60B99DF86F700DF1C009259C27E7259B23B10A9823AA099902F0A2FF20
:40378000099B9B8913F0400F0B9B18BF4FF0FF33184641B0BDE8F08FAC7E0000787E0000CC7E0000119B652B40F39F801498159900220023FFF762F9002800F06381249BEB
:4037C000AE49013301340122072B2594249389E8060000F3538409F108091D9B129A934203DB079BDB077FF55CAF249B16990133179A0C44072B2594C9F80020C9F80410FA
:40380000249300F3E68609F10809129B5D1E002D7FF747AF9A4A102D249B0F9240F3178110260A9FDDF824B005E009F10809103D102D40F30C8101331034072B259424937E
:40384000C9F800A0C9F80460EFDD23AA5946384602F038FF002893D10DF1C009259C249BE5E70C9B089A9F1A002F7FF7CEAE844A102F249B0F922BDD4A462146B946102581
:4038800037460A9C099E06E0A9F11009B9F1100F02F1080218DD01331031072B25912493C2F800A05560EFDD23AA3146204602F009FF00287FF464AFA9F11009B9F1100F2D
:4038C00030AA2599249BE6DC3E460C464F46914601330F9A3C44072B2594249389E8840000F32B8509F108098FE6129B249D012B04F1010405F1010540F3E8840123072DCF
:403900002594C9F800602495C9F8043000F3F98409F10809169A0135179B1444072D25942495C9F80030C9F8042000F3F88409F108090023149815990022FFF79FF8129BC5
:40394000002800F0EA805E1E002E40F3F5804C4B102E0F932CDDCDF834801027B046DDF828B0099E06E0A8F11008B8F1100F09F108091ADD01351034072D25942495C9F8B7
:4039800000A0C9F80470EEDD23AA3146584602F099FE00287FF4F4AEA8F11008B8F1100F0DF1C009259C249DE4DC4646DDF8348001350F9B3444072D2594249589E8480071
:4039C00040F3B88023AA09990A9802F07BFE00287FF4D6AE259C249D0DF1C009ACE023AA09990A9802F06EFE00283FF49FAEC7E623AA09990A9802F065FE00287FF4C0AEB9
:403A00000DF1C009C4E423AA09990A9802F05AFE00287FF4B5AE0DF1C009259C2EE623AA09990A9802F04EFE00287FF4A9AE0DF1C009259CD5E523AA09990A9802F042FE5C
:403A400000287FF49DAE0DF1C009259CD9E501330F9A2C44072B2594249389E824007FF71EAE23AA09990A9802F02CFE00287FF487AE259C0DF1C00913E600BFC87E0000D1
:403A8000CC7E00001D9D002D40F30E83139B129A9342A8BF1346002B1D460DDD249B2C440133072B2594C9F80060C9F80450249300F3158609F10809139B002DA8BF5B1B1E
:403AC000002B1D4640F3A083B94A102D249B0F9240F3458522461027DDF828B0099C05E009F10809103D102D40F3388501331032072B25922493C9F800A0C9F80470EFDD72
:403B000023AA2146584602F0DDFD00287FF438AE0DF1C009259A249BE4E7013B013501361C44072DC9F8006024952594C9F804303FF748AF09F10809199A013514441FAB4E
:403B4000072D25942495C9F80420C9F800307FF7A6AD23AA09990A9802F0B4FD00287FF40FAE0DF1C009259C9BE598F8003008F101042A2B00F02B87A3F13000092898BFEB
:403B8000002500F2AF8614F8013B05EB850500EB4505A3F130000928F5D945EAE575A0460CE4079B43F08003079398F8003003E498F8003000297FF4FFAB01222021FFF7A7
:403BC000FBBB079B43F00103079398F80030FFF7F3BB98F8003001222B21FFF7EDBB079B43F02003079398F80030FFF7E5BB0E9AAB461668002511938DF86F50141D002E00
:403C000000F0E585BBF1000FC0F23F855A462946304602F0B7F9002800F05886AB46831B0D9323EAE3730E940893CDF84CB09DF86F7072E41193AB46002A40F0ED86079A7F
:403C400012F0200300F043810E9C0027073424F0070303F10801BB450E91D3E900458DF86F70C0F2C18222F08003079354EA050300F04881002D08BF0A2CC0F0488130AE9C
:403C8000204629460A22002303F0F2FB303206F8012D2046294600230A2203F0E9FB04460D4654EA0503EBD12DE41193AB46002A40F0CA86079B3F489D0640F15D810E9C03
:403CC000073424F0070303F108020E92D3E90045079A12F0010700F0468254EA05033FF42AAD9DF8442000278DF87120079A3023BB458DF870308DF86F7042F00203C0F27D
:403D00008D8522F0800343F002030793FFF7ECBB98F800306C2B00F05284079840F010000790FFF749BB1193AB46002A40F09486079A12F0200300F0A0800E9C00270734F5
:403D400024F0070303F10801BB450E91D3E900458DF86F700BDB22F08003079354EA050306D1BBF1000F00F0A28500240025002730AEE20842EA4572E90804F007030D46C3
:403D80001446303354EA050206F8013DF1D1079AD1077FF5B8AB302B3FF4B5AB3022731E06F8012C30AAD21A0D921E46FFF7AEBBCC7E0000AC7E00001193AB46002A40F02C
:403DC0004786079B0E9C1A0704F1070440F16C8324F0070303F108020E921A685B6814921593159B149D23F00044284621464FF0FF32A94B03F0FEFA002840F0CD82284629
:403E000021464FF0FF32A44BFEF74CFE002840F0C3821498159900220023FEF739FE002840F0F6849DF86F7007999C4E21F080019B4B0791119903224FF0000B0892472912
:403E4000D8BF1E460D92CDF84CB0FFF766BB079B43F00803079398F80030FFF7ADBA1193AB46002A40F0EC85079B43F010030793079A12F020037FF460AF079911F010025C
:403E800000F068820E98BBF1000F024604688DF86F3002F104024FF00005C0F2C28421F08001079154EA05010E923FF45AAF1F465EE71193AB46002A40F0BE85079B43F0BF
:403EC00010030793079A12F020037FF4BDAE079911F0100200F026830E98BBF1000F024604688DF86F3002F104024FF00005C0F28C8421F08001079154EA05010E921F467A
:403F00007FF4B8AEBBF1000F00F09080002440AE303406F8414DFFF7F6BA002A40F08885079B9B0640F1CA820E9A134604330E930B9B1168DD171A462B46C1E90023FFF79E
:403F400008BAA3F1300000231C4618F8013B04EB840400EB4404A3F130000928F5D90C94FFF72CBA1193AB46002A40F05D85079B4C489D063FF5A3AE079BDC0640F1B582E6
:403F80000E9A00251346043314680E93A0E61193AB46002A40F04485079B43F010030793079B980640F1F1800E9C073424F00704D4E9002304F108011D4614460E91002A7D
:403FC00073F10003C0F2F280BBF1000F9DF86F70C0F20A81079B23F08003079354EA05037FF448AE8EE71193AB46002AD8D08DF86F10D5E7079B43F04003079398F800303B
:40400000FFF7DAB90E9911930A68002301201F468DF86F309B4613930B1D08908DF898200E930D9026AEFFF77CBA5F464FF0000BCDF834B030AEFFF769BA23AA09990A980B
:4040400002F040FB00287FF49BAB259CFFF763BB1193002A40F0D384119A002A3FF489AB002301211F4608918DF898208DF86F309B4613930D9126AEFFF753BA23AA0999BD
:404080000A9802F01FFB00287FF47AAB0DF1C009259CFFF7A2BB00BFFFFFEF7F8C7E0000887E0000987E0000249BB849013301340122072B2594249389E8060000F3C282CA
:4040C00009F108092DB9129B1BB9079BDF077FF5E8AA249B16990133179A0C44072B2594C9F80020C9F80410249300F3FF8309F108096D42002D40F3DB82A54A102D0F920C
:4041000040F34B8322461027DDF828B0099C05E009F10809103D102D40F33E8301331032072B25922493C9F800A0C9F80470EFDD23AA2146584602F0C5FA00287FF420ABBE
:404140000DF1C009259A249BE4E792480791119354EA05030E924FF000077FF4C5A900240025FFF7C1B9BBF1000F8DF86F70C0F2038222F08003079354EA05037FF4B4A9B8
:40418000BBF1000F7FF4E5AA4FE7079BD90640F1BA810E9A13461C680433E51722460E932B46002A73F10003BFF60EAF64424FF02D0765EB4505BBF1000F8DF86F70FFF623
:4041C00059AD079B23F08003079353E50E9ABBF1000F134614688DF86F7003F104034FF0000580F2E2810E9354EA05037FF442AD8DE623AA09990A9802F064FA00287FF447
:40420000BFAA259C0DF1C009139A1D9B32441746129A934249DB079AD50746D412990E44F51BCB1A9D42A8BF1D46002D2E460DDD249A2C440132072A2594C9F80070C9F8B6
:404240000450249200F3D28209F10809002EB4BF1D469D1B002D7FF724AA4D4A102D249B0F927FF7F4AB10260A9FDDF824B005E009F10809103D102D7FF7E9AB01331034E8
:40428000072B25942493C9F800A0C9F80460EFDD23AA5946384602F015FA00287FF470AA0DF1C009259C249BE4E7249A1698013217990444072A2594C9F80010C9F8040041
:4042C000249200F3778209F10809A7E7079BD8073FF514AB0123072D2594C9F800602495C9F804307FF726AC23AA09990A9802F0E9F900287FF444AA0DF1C009259C249D30
:404300001AE423AA09990A9802F0DCF900287FF437AA0DF1C009259C249DFFF7FBBA23AA09990A9802F0CEF900287FF429AA0DF1C009259C249DFFF7FCBA23AA09990A98F9
:4043400002F0C0F900287FF41BAA0DF1C009259CFFF75BB9079911F0400700F00F810E98BBF1000F034604888DF86F2003F104034FF00005C0F2738121F08001079154EAA1
:4043800005010E933FF4EDAC1746F1E4C87E0000CC7E0000AC7E0000149C22462046159C2346214603F026F8002840F0C182119BBBF1FF3F23F020030D9300F04982472B5A
:4043C00000F05081079B43F480731093159B1F1E149B0893B7BF3B46002303F100472D230F93119B662B00F01F82462B00F00D810D9B21A8452B18BF5D461EA908BF0BF16D
:404400000105049003911DA802213B460290089A019500910A9800F0CBFB119B0646672B40F03482079BDA0740F16F8274190898394600220023FEF721FB002840F04D81F5
:40444000219B9C4206D930215A1C21921970219B9C42F9D89B1B12930D9B472B00F03681119B652B40F32182119B662B1D9B139300F0FE81139A12998A42C0F2EC81079B38
:40448000D90700F1448222EAE2730D92672211920F9A002A40F0EF800893109B934607939DF86F70FFF739B824F00704236814936368159304F108030E9392E4079BDF0651
:4044C0000BD4079B5E0608D50E9A136804320E92BDF82C201A80FEF73CBF0E9A136804320E920B9A1A60FEF734BF0E9A079B002513F0400F134603F104030CBF146814887E
:404500000E93FFF7E5BB079B0E9A13F0400F13463FF441AEB2F900400433E5170E9322462B464CE5079911F040073FF44FAE0E98BBF1000F034604888DF86F2003F1040307
:404540004FF00005C0F2948021F08001079154EA05010E9317467FF48DABD3E4144601330F9A2C44072B2594249389E824003FF740AE09F1080947E60E9AE9E50E9ABBF15F
:40458000000F134614688DF86F7003F104034FF0000564DB079A0E9322F08002079254EA05027FF4E5ABFFF7DCBB079A0E9322F08002079254EA05027FF45CABA2E4079B9B
:4045C00008F1010843F02003079398F80030FEF7F3BE23AA09990A9802F074F800287FF4CFA80DF1C009259CFFF70FB940210A9801F01CFA099A10601061002800F0F58180
:40460000099A40235361FEF794BE21A81EA9049003911DA803210290089A3B46CDF804B000910A9800F0C4FA5D460646119B7419462B7FF4FCAE3378302B00F097811D9D4B
:404640002C44F4E623AA09990A9802F03BF800287FF496A80DF1C0091D9D259C32E50E93FFF785BBBBF1000F08BF4FF0010BA9E60E931746B8E50893109B2D2707938DF801
:404680006F704FF0000BFEF749BF304601F0ECFFAB460346FFF7C4BA23AA09990A9802F011F800287FF46CA8259C249B0DF1C009129901330C44072B25942493C9F80060E0
:4046C000C9F804107EF7EBAFFFF7CBB91D9BDD1C12DB9B4510DB1393CCE62346BAE623AA09990A9801F0EEFF00287FF449A80DF1C009259CFFF7E0B9119A023A1192013B3A
:404700009DF84420002B1D93B8BF5B428DF87C20B4BF2D222B22092B8DF87D2040F300810DF18B000446B84A82FB0321DA17C2EBA10101EB8102A3EB4202303209290B467B
:4047400004F8012DEFDC21463033DAB201F8012D884240F251810DF17E01234601E013F8012B984201F8012BF9D1431C1B1B0DF17E0213441FAA9B1A129A1993012A134470
:404780000D9340F309810D9B169A134400220D93139223EAE3737BE6144601330F9A2C44072B2594249389E824003FF775AF09F108097DE723AA09990A9801F083FF00286F
:4047C0007EF4DEAF0DF1C0091D9B259C26E55B46062B28BF06230D9323EAE373B346374613960E940893894EFEF797BE23AA09990A9801F067FF00287EF4C2AF1D9B129A36
:40480000259CD31A0DF1C00920E50E921F46EBE42D231F468DF86F30FFF706BB0793FEF763BE0E92FFF7A3BA21A81EA9049003911DA803210290089A3B46CDF804B0009197
:404840000A9800F0B5F95D46064600EB0B04F2E64FF0060BB6E5169A129B1344139A0D93002A40F39180672223EAE37311920FE6002B40F39B80BBF1000F6ED1079AD4076A
:404880006BD41A4623EAE3730D9201E6119B472B7FF4CCAD079BDB073FF5C8AE219B9B1B12930D9B472B3FF411AF1D9B27E7079B5F46DB0705D540AE302306F8413DFEF799
:4048C00022BECDF834B030AEFEF720BE2BEAEB73CDF834B0089383460E9413909DF86F70FEF71BBEA0460025FEF768BD23AA09990A9801F0E7FE00287EF442AF0DF1C00919
:404900001D9D259C249BFFF7F4BB219BA2E5169A139B134467220D93119223EAE373B7E5303330228DF87F308DF87E2020AB21E70799374E21F08001364B07911199032257
:404940004FF0000B08924729D8BF1E460D92CDF84CB09DF86F70FEF7E0BD139B169A9D1805EB0B030D9323EAE37391E50898394600220023FEF782F800287FF460AEC5F1C6
:4049800001051D952C4452E5139B0D9AC3F101031A4413460D9266E7079B13F001037FF4F2AE13930D9B23EAE37371E5BBF1000F02D1079BD80707D5169B5D1C05EB0B0312
:4049C0000D9323EAE37363E501230D9360E50E9898F8013005680430002D0E90A046BEF6EBAC4FF0FF35FEF7E7BC0A9A0C2313604FF0FF30FEF7CDBE0DF17E03BAE68DF87C
:404A00006F10FFF729BB00BF67666666C07E0000947E0000907E00008DF86F10FFF70FB98DF86F10FFF7B8BA8DF86F10FFF79FBA8DF86F10FFF774BA8DF86F10FFF73EBACC
:404A40008DF86F10FFF710BA8DF86F10FFF732B98DF86F10FFF7B5B98DF86F10FFF768B9024B13B1024800F005B8704700000000FD590000002301461A46184601F0A2BE7C
:404A80002DE9F04F03690F6983B09F4200F38980013F01F1140600F1140A56F827305AF827200133B2FBF3F8BB00009306EB030953440193B8F1000F3BD000231C46B44690
:404AC000D6465CF804BBDEF800501FFA8BF208FB02324FEA1B4B130C08FB0B3392B2A41A1FFA83FBAAB22244CBEB154404EB224492B242EA0442E1454EF8042B4FEA2444E4
:404B00004FEA1343DDD2009B5AF803308BB9019C231F9A450CD254F8043C4BB9A4F1080302E01A68043B1AB99A4507F1FF37F8D30761044601F07EFC00282EDB00235546AD
:404B4000194608F1010856F8042B2B6890B2081A120C99B2C2EB1343421803EB224392B242EA0342B14545F8042B4FEA2341EAD25AF827200AEB87037AB91A1F92450BD29F
:404B800053F8042C42B9083B02E01A68043B1AB99A4507F1FF37F8D32761404603B0BDE8F08F002003B0BDE8F08F00BF000000002DE9F04F016C99B0814692469B46259C07
:404BC00049B1426C012393408B604A6001F04CFA0023C9F84030BBF1000FD84633DB00232360A34B1A4608EA0303934214D00022002350465946FDF741FF054648B3249AB8
:404C000001231360269B002B00F0C58099481860013819B0BDE8F08F42F20F73249A1360BAF1000F00F0A2809348269B002BF0D0C378002B00F0B18000F10803269A13604D
:404C400019B0BDE8F08F01232BF000482360C346C7E716AA17AB0192009352465B46484601F09CFC5FEA1854099040F08880169D179C2C4404F23243202B40F38A82C3F189
:404C8000400304F2124008FA03F82AFA00F040EA0800FDF727FE0123013CA1F1F8710F930022764BFDF7E0FC6BA3D3E9002302F08FF96BA3D3E90023FDF7D8FC064620468E
:404CC0000F46FDF71FFE68A3D3E9002302F080F902460B4630463946FDF7C8FC06460F4602F09EFB00220390002330463946FDF7CFFE002840F02982039E162E00F222827B
:404D00005F49524601EBC6015B46D1E90001FDF7DDFE002800F04282731E039300230D932C1B631E049300F12B8200230693039B002BC0F21C82049A0C93114619440023A9
:404D400004910B93229B092B29D8052B40F35286043B22930025229B023B032B00F22F86DFE813F02703200232035304424B454AC8F31300002814BF1846104655E7CBF3B6
:404D8000130343F07F510F955046A4F2FF3441F44011169D84E73C483BE7C31C4EE70021C9F844104846229101F036F94FF0FF33229A07930E93012308902392C9F8400008
:404DC0000A93179B002BC0F2CA80039A0E2A00F3C6802B4B03EBC20318CBCDE90434239B002BC0F2FC8256465F46DDE904AB304652465B46394602F015FA02F011FB0446EF
:404E0000FDF780FD52465B4602F0E2F802460B4630463946FDF728FC079E089F04F13005012E3D7002460B4607F101055ED00022164B02F0CDF80022002306460F46FDF72B
:404E40001DFE002878D1CDF81890DDF81CA0DDF820B0DDE9048928E061436F63A787D23FB3C8608B288AC63FFB799F501344D33F0000F07FC97E0000E87E00000000F83FB7
:404E8000F87E0000DC7E0000C87E0000000024400022C34B02F09CF80022002306460F46FDF7ECFD002840F0B38342464B463046394602F0B7F902F0B3FA0446FDF722FDC5
:404EC00042464B4602F084F802460B4630463946FDF7CAFB04F1300605F8016BCBEB0506564502460B46D3D1DDF8189010461946FDF7BCFB06460F4602460B46DDE90401D5
:404F0000FDF7C6FD40B9DDE9040132463B46FDF7B5FD88B1E3070FD515F8014C6B1E089A04E09A4200F02C8413F8014D392C03F10105F6D001341C700999484601F094F87F
:404F40000022039B2A70249A01331360269B002B00F0A88308981D6019B0BDE8F08F0A9A002A00F01281229A012A40F35A82079B0B9A5F1EBA42C0F29883D71B079B002BCE
:404F8000C0F28C84069D079B069A01211A440692049A48461A44049201F0FEF8064665B1049900290B4608DDA942A8BF2B46069AED1AD21ACB1A069204930B9B002B40F35F
:404FC000FD820A9A002A00F00382002F00F0008231463A46484601F087F9DDF82480014642460646484601F0E1F841460446484601F03AF80B9BDB1B0B9340F0E8810121F5
:40500000484601F0C9F80C9B8046002B00F01B8201461A46484601F067F9229B8046012B40F3F9820027D8F8103008EB8303186901F064F8C0F12000049A104410F01F00C8
:4050400000F0F881C0F12003042B40F3CB84069BC0F11C00034406931346034405440493069B002B05DD21461A46484601F08CF90446049B002B05DD41461A46484601F09F
:4050800083F980460D9B002B40F07D82079B002B40F396820A9B002B40F0F681DDF820A0079F554604E02146484600F0E7FF044641462046FFF7E4FC303005F8010BCAEB6D
:4050C0000503BB424FF00A024FF00003EBDB089B079A8246012AACBF9B1801331D464FF0000B21460122484601F04EF94146099001F0A0F9002840F30E8315F8012C6B1E79
:40510000089904E08B4200F0798213F8012D392A03F10105F6D001321A704146484600F0A3FF002E3FF408AFBBF1000F05D0B34503D05946484600F097FF3146484600F057
:4051400093FFF9E601230D93EAE5DDF80C804046FDF7D8FB02460B4630463946FDF78EFC00287FF4C9AD08F1FF330393C4E5069A039BD21A5B420B93002306920C93E1E571
:405180005B42069300230493D1E50B9F069D0A9E05E7C3F120080AFA08F07AE50D90BFE50000244000230A93039B239A13440E930133002B079340F38582079C2646002116
:4051C000172EC9F844100BD9012204235B0003F11400B042114602F10102F7D9C9F84410484600F019FF0E2C0890C9F840003FF6E8AD002D3FF4E5AD5746D8460399CDE96E
:405200001078002940F39382924B01F00F020E1103EBC203F006D3E9004540F14E828E4B5046D3E90823594601F0FCFF82468B4606F00F064FF0030886B1874FF10709D51A
:40524000D7E900232046294601F0C2FE04460D4608F10108761007F10807EFD122462B465046594601F0DEFF06460F460D9B43B100227A4B30463946FDF70AFC002840F092
:4052800023834046FDF73EFB32463B4601F0A0FE734B0022FDF7EAF9079B0446A1F15075002B00F0E181039B1393079B12930A9B002B00F09882129A664B002003EBC20301
:4052C00053E90223674901F0ADFF22462B46FDF7CBF982468B463046394602F0A1F80446FDF710FB02460B4630463946FDF7BCF93034089DE4B206460F462C7002460B4661
:40530000504659460135FDF7E1FB00284ED132463B4600205149FDF7A7F902460B4650465946FDF7D3FB002840F00E83129A012A40F3B481129B089A134498460FE0324601
:405340003B4600204549FDF78FF952465B46FDF79FFB002840F0F882454500F09F81504659460022404B01F033FE00223E4B82468B463046394601F02BFE0F46064602F065
:405380004FF80446FDF7BEFA02460B4630463946FDF76AF93034E4B205F8014B52465B4606460F46FDF774FB0028C8D0139B0393C2E500230A93239B002B40F388811E4657
:4053C0001C460E930793FAE601230A93F3E709940B9A0999484600F087FF04460FE6079B002B3FF700AD40F0D982DDE9040100221E4B01F0EDFD52465B46FDF75DFBDDF8A8
:405400001C804646002800F0F180239B089DDB4303934146484600F027FE002E3FF48CAD8BE60F9A002A00F0418203F233430B9F069DA9E51C20069B054403440693049BFE
:40544000034404930CE6229B012B40F381820C9F0120F1E5F87E0000C07F00000000F03F00001C400000E03F0000244000001440314600230A22484600F000FE0E9B06464D
:40548000002B40F397820793002D05DD31462A46484600F079FF0646002F40F07B810696079B089A013BD318099317460AF00103C246DDF818B00A9351462046FFF7E0FA3B
:4054C00031460546204600F0B5FF5A4604905146484600F0CFFFC268804605F13003002A49D101462046079300F0A4FF41460690484600F0B9FD069A079B2AB9229919B98F
:405500000A99002900F0368204990029C0F2E48005D1229919B90A99002900F0DD80002A00F34C81099A07F1010897423B70454600F05381214600230A22484600F09EFD6F
:405540005E45044631464FF000034FF00A0248460BD000F093FD5946064600230A22484600F08CFD47468346A6E700F087FD474606468346A0E701464846069300F074FDC1
:405580000122069BC0E74146204600F053FF0028BFF67CAD2146039C0023013C0A224846039400F06BFD0A9B0446002B7FF460AF0E9B002B40F3F68107936FE5099C1EE58C
:4055C000229B022B7FF766AD079B002B40F07A8141460522484600F051FD01468046204600F028FF002809947FF70FAF039A08993123013203920B704D1C0AE7039A312323
:4056000001320392089A137087E501230A93CBE5DDF8189090E4BAF1000F7FF403ADCBF31303002B40F040812BF000473F0D3F0537B1069B012701330693049B0133049308
:405640000C9B0120002B3FF4F7ACECE44046FDF759F932463B4601F0BBFC0022BF4BFDF705F80446A1F15075304639460022BC4BFCF7FAFF22462B4606460F46FDF726FACE
:405680008046002840F00681224605F1004330463946FDF7FDF908B14646B6E6DDE910ABFFF78FBB0898FFF7B4BA0B9B0C9AFB1A1A440B970C92002760E4DDE910AB4FF0F5
:4056C0000208B9E51C460021C9F8441088E5012423940E940794F6E7002AD046CDF818B09A4611DD21460122484600F04DFE4146044600F09FFE002840F34981BAF1390FA3
:4057000000F0078105F1310AB34687F800A07D1C069E099401E504D11AF0010F01D0ECE4154615F8013C6A1E302BF9D0F5E4039B5C42002C00F0C180DDE91001894B04F0F6
:405740000F0203EBC203D3E9002301F041FC241106460F4600F02B81834D4FF00208E20709D5D5E900233046394601F031FC06460F4608F10108641005F10805EFD175E5DE
:40578000089930220A70039A15F8014C01320392FFF7D0BB7168484600F03EFC0546336906F10C019A1C92000C30FDF79BFC29460122484600F0E8FD069071E6392BCDF8A6
:4057C00018B0D04600F0A58003F1010AB34687F800A07D1C069E09949FE45A46D046B3469A4616467DE4129B5E4903F1FF3A01EBCA012246D1E900012B4601F0E9FBCDE99F
:4058000014013946304601F00BFE0446FDF77AF80B46024639463046FCF726FF129B0F4608993034012B06460C7001F101051FD0129B089AA84613449B4600224B4B304689
:40584000394601F0C5FB0F46064601F0E9FD0446FDF758F802460B4630463946FCF704FF303408F8014BC34506460F46E5D1554400223F4BDDE91401FCF7F8FE32463B465D
:40588000FDF706F900284CD0139B039315F8014CFFF744BB4FF000084646A7E6069B079A9D1A0023FFF770BB0027C9E6169B0B9FC3F13603069DFFF767BBDDE910674FF02C
:4058C0000208D3E40994A0E5079B002B3FF4BEAE0E9B002B7FF7E2AE0022244B3046394601F076FB06460F4608F10100FDF70AF832463B4601F06CFB0022184BFCF7B6FE89
:40590000039A0E9B013A04461392A1F150751293CDE43922B3460994069E3A707D1CFFF7EEBBDDE9142300201149FCF79DFE32463B46FDF7CBF808B9B0E6154615F8013C22
:405940006A1E302BF9D031E5139B0393FFF7E6BABAF1000F7FF47BAD61E600BF00001C4000001440F87E0000C07F0000000024400000E03F392BCDF818B0D046DDF810B0AC
:405980009A46C6D0BBF1000F3FF7BCAEBCE67FF4BBAE1AF0010F3FF4B7AEAFE64FF00008464632E5229B022B21DC0E9B04E64FF002085BE4229B022B19DC0E9B63E5002471
:4059C000C9F844402146484600F026FB4FF0FF3307930E93012308902394C9F840000A93FFF7EFB93FF43CABC0F13C0023E50E9B0793E9E50125FFF7AEB900BF38B5074D5E
:405A0000074C2C1BA41005D0013C55F8043D9847002CF9D1BDE8384002F0F8BA1C80000018800000004870471C85FF1F2DE9F04F01F10B05162D83B0064640F2A08035F060
:405A4000070500F1C080A94200F2BD8000F0E0FAB5F5FC7FC0F090826B0A00F0BB80042B00F27781A80900F1390E4FEA4E013830BE4F07EB81014C680839A14207D1AEE0CD
:405A8000002A80F2AE80E468A14200F0A880636823F003035A1B0F2AF2DDB4493C6901F1080E744500F0A881636823F003035A1B0F2A00F38E81002AC1F814E0C1F810E0E4
:405AC00080F29380B3F5007F80F05C81DB084A684FEAA3094FF0010C013351F833800CFA09F901EBC30C49EA0202ACF1080CC4F80CC0C4F808804A6041F83340C8F80C40DE
:405B0000831001249C4094427CD8144206D120F003006400144200F10400FAD007EBC009CC468046DCF80C108C4507D166E1002A80F27481C9688C4500F060814B6823F051
:405B400003035A1B0F2AF2DD0C46CB6854F808CF45F00108C1F804800D4442F00101CCF80C303046C3F808C07D613D61C5F80CE0C5F808E06960AA5000F04CFA1FE0102906
:405B800021D800F045FA102506230220774F07EB83035C68A3F10802944200F038816368E16823F0030323445A68A56842F00102E96030468D605A6000F02CFA0834204668
:405BC00003B0BDE8F08F002420460C23336003B0BDE8F08F80214FF0400E3F2048E770465BE723445A68E168DFE723445A68304642F001025A60083400F00CFA204603B0E6
:405C0000BDE8F08FBC68636823F00308A84504D3C5EB08030F2B00F38C80554BDFF860911A68D9F800302A44013304EB080A00F0608102F580520F3222F47F6222F00F02F8
:405C400011463046019200F0FDFCB0F1FF3F8346019A00F05881824500F2FC80454BDA4519681144196000F05381D9F80000DFF810E101301BBFCAEB0B0A5144CEF800B05F
:405C800019601BF0070100F01781C1F10800C1F58051834408315A44C2F30B02C2EB010949463046019300F0CDFC431C019B00F03F81CBEB00024A4442F001021968BC4281
:405CC0004944C7F808B01960CBF80420DFF8A49016D0B8F10F0F40F2FD806268A8F10C0323F0070302F00102E0184FF0050E1A430F2B6260C0F804E0C0F808E000F21C81E7
:405D00001D4BBC681A68914288BF19601B4B1A689142626888BF196022F003029542A2EB050301D80F2B04DC304600F073F9002445E745F0010243F00103254462603046D5
:405D4000BD6008346B6000F065F9204603B0BDE8F08F142B71D9542B00F2A480280B00F16F0E4FEA4E016E3082E600BF5485FF1FAC89FF1FB089FF1FA889FF1FA489FF1F2D
:405D80006089FF1F5A0A042A5ED9142A00F2B38002F15C0149005B3207EB810C57F82110ACF1080C8C45DFF8D88100F088804A6822F00302934202D289688C45F7D1D1F81C
:405DC0000CC07A68C4F80CC0A160CCF80840CC6096E645F0010742F001032544676030464D610D61C5F80CE0C5F808E06B60AA50083400F00FF9E2E64A6881E608F1010859
:405E000018F0030F0CF1080C7FF48CAE30E0DC68A34208BF02303FF440AEC0E60C460B445A68C96854F8085F42F001025A603046E9608D6000F0EEF8C1E603F15C0E03F1E0
:405E40005B004FEA4E0113E69A0902F1390149003832A1E7BC424A4B3FF400AF9C68626822F003025AE759F80839994540F0828010F0030F00F1FF30F5D17B6823EA04030F
:405E80007B6064009C423FF6BDAE002C3FF4BAAE1C4240467FF442AE64001C4200F10400FAD03BE6B3F5AA7F18D8E80B00F1780E4FEA4E017730DBE54FF48051EBE6012154
:405EC000D8F80430921001FA02F21A43C8F80420614677E70123CBF8043025E740F25452934220D8A80C00F17D0E4FEA4E017C30BEE51032A4E6542A26D81A0B02F16F0124
:405F000049006E3248E7BC68626822F0030205E7CAF30B0000287FF4A8AE4244BB6842F001025A60ECE6FE214FF07F0E7E209FE501224FF00009C1E604F10801304600F0B2
:405F400011FDD9F80010DBE6B2F5AA7F05D8DA0B02F17801490077321EE740F254518A4205D89A0C02F17D0149007C3214E7FE217E2211E77B6884E7E808431C5B0005E659
:405F80005485FF1F830770B4CDB23DD0531E02B30278AA421ED0421C04E0D3B10478013BAC4217D012F0030F104602F10102F4D1032B11D853B30278AA420BD00344421CBB
:405FC00002E00178A94205D09342104602F10102F7D1002070BC704704460E0206F47F462E4346EA0646226820467240A2F1013121EA020212F0803F04F10404DBD1043B75
:40600000032B2046EFD8D5E71346D1E71846E1E7704700BF704700BFC26C70B505460C4652B152F824308BB1196842F82410002218461A61DA6070BD2122042100F014FCA0
:40604000E86402460028ECD1002070BD012101FA04F6721D2846920000F006FC03460028F2D044608660E2E731B1C36C4A6853F82200086043F82210704700BFF0B50C46CA
:4060800005460E6983B001F1140E0027DEF80000013781B202FB0131000C0B0C02FB003389B201EB0341BE424EF8041B4FEA1343ECDC3BB1A268964207DA04EB8602013669
:4060C00053612661204603B0F0BD6168284601310193FFF7A1FF0746226904F10C01023292000C30FCF7FEFFEA6C6168019B52F82100206042F821403C46DEE7030C1B048A
:40610000B3B90004102310F07F4F04BF0002083310F0704F04BF0001043310F0404F04BF80000233002807DB420003D4202070470023E8E7581C704718467047036813F073
:40614000070207D0D90720D49A0720D49B0803600220704799B209B91B0C102213F0FF0F04BF1B0A0832190704BF1B090432990704BF9B080232D90704D45B0801D12020BA
:4061800070470132036010467047002070475B0803600120704700BF10B50C460121FFF73BFF01224461026110BD00BF2DE9F04F0D69166985B0B5420C46914604DA2A4644
:4061C0004C46354689461646A36805EB060861689845C8BF0131FFF71FFF00F1140A0AEB880BDA45019005D25346002143F8041B9B45FBD809F1140909EB860304F1140267
:40620000994502EB850C59D2CDF808B0CDF80C809B46904659F8047B1FFA87FEBEF1000F1FD047465646002100E00646304657F8045B3468ABB2A2B20EFB03222D0C240CB9
:406240000EFB0544531804EB13419AB242EA0142BC454FEA114140F8042BE6D8716059F8047C3F0C22D0DAF80030002255461E464046964600E025462C460288360C07FBC3
:40628000026699B206EB0E0241EA024344F8043B50F8041B6E68090CB3B207FB0131844501EB12434FEA134EE5D86B60CB450AF1040AAFD8DDF808B0DDF80C80B8F1000FE2
:4062C0000BDD5BF8043CABF1040B1BB105E05BF8043D13B9B8F10108F9D10198C0F8108005B0BDE8F08F00BF12F003032DE9F041144607462ED10E46A4101CD0BD6C95B318
:40630000E3074FF0000806D4641014D02868A8B10546E307F8D52A4631463846FFF746FFB6B17268FB6C641053F82210316043F822600646EAD13046BDE8F0812A46294616
:406340003846FFF733FF2860C0F800800546E0E70646D9E70B4A013B52F823200023FFF78DFE0646C8E701213846FFF755FE40F2712101220023416102610546B86403601A
:40638000BEE700BFE87F00002DE9F84F0B69541104EB03088B6808F101059D420E4691468346496804DD5B009D4201F10101FADC5846FFF731FE002C00F1140237DD02EB90
:4063C0008403002142F8041B9342FBD1346906F1140119F01F0901EB840E20D0C9F1200C00240F681A4607FA09FA4AEA040443F8044B51F8044B8E4524FA0CF4F1D8546002
:406400000CB108F10205DBF84C307268013D53F822100561316043F82260BDE8F88F043B51F8042B8E4543F8042FF9D8EBE71346CCE700BF02690B69D21A12D19B001430E8
:406440001431194410B4034401E098420BD253F8044D51F8042D9442F7D007D3012010BC704710467047002010BC70474FF0FF30F5E700BF2DE9F0470B690C46116990468A
:406480005B1A002B18D1890004F1140602F114077318394401E09E4269D253F8045D51F8042D9542F7D06BD22346B24644463E4698464FF0010906E066DB04F1140602F1E9
:4064C000140A4FF000096168FFF7A6FD5546D4F810E0D8F810303746C0F80C900AEB830C06EB8E0600F114044FF0000957F8042B55F8041B1FFA82F808EB09031FFA81F834
:40650000090CC8EB0303C1EB124202EB23429BB243EA0243AC4544F8043B4FEA2249E5D8BE4218D9A046BC465CF8042B95B205EB09010B1403EB12428BB243EA0243664557
:4065400048F8043B4FEA2249EED8FF43374427F0030704373C44043C2BB954F8043D0EF1FF3E002BF9D0C0F810E0BDE8F0870021FFF752FD0122002302614361BDE8F08725
:40658000BA464FF000099EE7234604F1140A08F1140644464FF00109984694E7F0B5012183B01C46C3F30A551646FFF735FDC4F3130407460DB144F48014019406B302A8C1
:4065C00040F8086DFFF7BAFD002830D19DE80C007A61002B0CBF01210221BB613961D5B9089A07EB8103A0F2324010601869FFF785FD099BC0EB41101860384603B0F0BDB2
:4066000001A8FFF79BFD019B0122114620303A617B61002DE4D0A5F23343089A03441360099BC0F135001860384603B0F0BD019BC0F12001009A03FA01F10A43C340019341
:406640007A61C6E738B5074C0023054608462360FAF776F9431C00D038BD2368002BFBD02B6038BD008CFF1F20F0030110F00300C0F1000051F8043B00F1040C4FEACC0C82
:406680006FF000021CBF22FA0CF213434FF0010C4CEA0C2C4CEA0C4CA3EB0C0222EA030212EACC1204BF51F8043B0430F4D0C2F1000102EA0102B2FA82F2C2F11F0200EB9A
:4066C000D20070472DE9F04F936883B09046002B72D04FF000090D464C468346166808688B68002C45D09C421F469A4646D3AB8913F4906F2DD06F69296907EB4707C1EB6A
:40670000000A07EBD777601C7F105044B8423A4684BF07463A465B0533D511465846FFF785F9002837D0524629690190FCF7DAFCAA89019B22F4906242F08002AA81CAEBF7
:40674000070203EB0A006F61A24627462B612860AA605246494600F0EDF9D8F80820AB682868DB1B5044141BAB602860C8F8084014B3D6F8009074680836B2E72746A246BC
:40678000E7E7584600F03AFA03460028D7D12969584600F0E7F80C23CBF80030AB89002243F040034FF0FF30AB81C8F80820C8F8042003B0BDE8F08F0020C8F8040003B06F
:4067C000BDE8F08F2DE9F047254C064625688846D5F8484192469946C4B360681F2817DC411C76B104EB8003C3F888A0D4F88851012282401543022EC4F88851C3F80891B6
:406800001ED0831C6160002044F82380BDE8F087144B03B34FF4C870AFF300800446D0B1D5F84831002784E888003846C5F848410121C4F88871C4F88C71002EE1D0D1E726
:40684000D4F88C311A43C4F88C21DAE705F5A674C5F84841C1E74FF0FF30BDE8F08700BF747E00000000000010B502FB01F1FFF7DDF80446D8B150F8042C22F00302043AAC
:40688000242A18D8132A14D900231B2A0360436016D9242A8360C36011BF00F110020361436100F118020023136053609360204610BD0246F7E70021FCF78AFC204610BD77
:4068C00000F10802EFE700BFF8B50C46224F0646FFF79EFBBB685D6825F00305291B01F6EF7121F47F6121F00F01A1F58054B4F5805F07DB00213046FFF7A4FEBB682B4472
:40690000984204D03046FFF785FB0020F8BD61423046FFF797FE01300DD0104BBA6819682D1B45F001053046091B55601960FFF771FB0120F8BD00213046FFF783FEBA6885
:40694000831A0F2BDEDD064C0449246843F00103001B53600860D5E75485FF1FB089FF1F6089FF1F002945D02DE9F0410D468046FFF74EFB55F8047C6A49A5F1080427F0C6
:406980000103E2188E685068B24220F0030062D0FE0750600BD455F8087C01F1080EE41BA5683B4475456FD0E768EF60BD6015186D68ED0742D543F001026260E350B3F566
:4069C000007F18D2DB0848689D100122013351F8337002FA05F501EBC3022843083AE260A760486041F83340FC604046BDE8F041FFF710BB70475A0A042A53D89A0902F137
:406A000039077F0002F1380501EB870051F827200838904243494DD0516821F003018B4202D292689042F7D1D068E060A2608460D4604046BDE8F041FFF7ECBA95683A4F96
:406A40000344BD423FD0D06843F00102E86085606260E350B3E7FF07034407D455F8085C641BE268A0682B44C26090602F4A43F001001268606093428C60B6D32C4B40463E
:406A80001968FFF721FFB0E711184968C90744D491680344D26843F00100CA6091606060E350A2E7142A17D802F15C077F0002F15B05A9E7AA104B68012505FA02F21343E0
:406AC0004B600246B1E743F001024C610C61E560A5606260E35088E7542A06D81A0B02F16F077F0002F16E058EE7B2F5AA7F06D8DA0B02F178077F0002F1770584E740F239
:406B00005450824206D89A0C02F17D077F0002F17C0579E7FE277E2576E743F001026260E35062E75485FF1F5C85FF1F5C89FF1FAC89FF1F8842F0B50DD98B1898420AD20C
:406B40008118002A51D09A1A13F8014D934201F8014DF9D1F0BD0F2A48D941EA00039B0746D1154600F1100401F1100353F8106C103D44F8106C53F80C6C0F2D44F80C6C6C
:406B800053F8086C04F1100444F8186C53F8046C03F1100344F8146CE8D8A2F1100323F00F0302F00F0E1033BEF1030F1944034421D90E4674461D1F56F8047B043C032C0D
:406BC00045F8047FF8D8AEF1040424F0030404342344214402F0030262B1013B0A4411F8014B8A4203F8014FF9D1F0BD0346F3E70346F2E7F0BD7246EEE700BF2DE9F04F35
:406C0000174683B0002900F08F800D46814607F10B04FFF7FDF955F804EC162C2EF00306A5F108083CD810221446A7423DD8964242DAC64B08EB060099688842416800F043
:406C4000D78021F0010303445B68DB074CD51EF0010F00F09D8039464846FEF7E7FE074600283AD055F8043CA0F1080223F0010343449A4200F03E81321F242A00F22B817C
:406C8000132A00F2FF8003462A46116819605168596092689A6029464846FFF763FE1CE024F00704002C2246BFDA0C230020C9F8003003B0BDE8F08F2F46331B0F2BD8F895
:406CC00004201DD802F00102324308EB0601C8F804204B6843F001034B604846FFF79AF9384603B0BDE8F08F21F003013144914220DBC36882682F46D3600E469A60DCE70C
:406D000002F0010208EB0401144343F00102C8F804400B444A605A68083142F001025A604846FFF71FFED8E7114603B0BDE8F04FFEF77CBE1EF0010F8DD155F8083CC3EBBA
:406D4000080ADAF8043023F0030C01EB0C0E964526DB5746C3688168321FCB60996057F8081FDAF80C30242ACB60996000F2C980132A40F292802B681B2ACAF808306B687A
:406D8000CAF80C3000F2CD8008350AF1100385E055F8083CC3EB080ADAF8043023F0030C06EB0C039342FFF656AF5746DAF80C1057F8080F321F242AC160886000F2AA80E9
:406DC000132A40F2A58029681B2ACAF808106968CAF80C1000F2BC8008350AF1100229681E4611606968D0465160AB68936064E721F0030B04F11000B344834557DA1EF0B7
:406E0000010F7FF428AF55F8081CC1EB080ADAF8041021F0030CE3445845C1DC5746DAF80C1057F8080F321F242AC160886000F2B180132A40F2A28029681B2ACAF8081065
:406E40006968CAF80C1000F2AC8008350AF110022968116069685160A9689160C4EB0B020AEB040142F0010299604A60DAF80430484603F001031C43CAF80440FFF7CAF83F
:406E800038462EE72B681B2A03606B68436026D800F1080305F10802F7E63B462A6876461A606A68D0465A60AA689A6005E7C4EB0B0B08EB04014BF0010299604A6055F8E9
:406EC000043C484603F001031C4345F8044CFFF7A1F8284605E72946FFF72CFEDBE6AB68242A8360EB68C36027D000F1100305F11002CAE650F8043C2F4623F003031E44C3
:406F0000DBE6294638467646D046FFF713FED4E63A4664E7294638461E46D046FFF70AFECBE6AB68242ACAF81030EB68CAF814301AD010350AF11803B0E72A6900F11803F8
:406F40000261696905F1180241619EE65485FF1FA968242ACAF81010E968CAF814100FD010350AF118023AE72A690AF12003CAF818206A691835CAF81C208FE73A4667E7D0
:406F800029690AF12002CAF8181069691835CAF81C1024E7294638460193FFF7CBFD019B5CE7A968242ACAF81010E968CAF8141003D010350AF118024AE729690AF120027D
:406FC000CAF8181069691835CAF81C1040E700BF70B54FF0FF0C4CF4E06C1CEA11541DBF1CEA135594EA0C0F95EA0C0F00F0DEF82C4481EA030621EA4C5123EA4C5350EA99
:40700000013518BF52EA033541F4801143F4801338D0A0FB02CE4FF00005E1FB02E506F00042E0FB03E54FF00006E1FB03569CF0000F18BF4EF0010EA4F1FF04B6F5007FCF
:4070400064F5407404D25FEA4E0E6D4146EB060642EAC62141EA55514FEAC52040EA5E504FEACE2EB4F1FD0C88BFBCF5E06F1ED8BEF1004F08BF5FEA500E50F1000041EBCA
:40708000045170BD06F0004646EA010140EA020081EA0301B4EB5C04C2BFD4EB0C0541EA045170BD41F480114FF0000E013C00F3AB8014F1360FDEBF002001F0004170BD74
:4070C000C4F10004203C35DA0C341BDC04F11404C4F1200500FA05F320FA04F001FA05F240EA020001F0004221F0004110EBD37021FA04F642EB06015EEA430E08BF20EABA
:40710000D37070BDC4F10C04C4F1200500FA04F320FA05F001FA04F240EA020001F0004110EBD37041F100015EEA430E08BF20EAD37070BDC4F1200500FA05F24EEA020E93
:4071400020FA04F301FA05F243EA020321FA04F001F0004121FA04F220EA020000EBD3705EEA430E08BF20EAD37070BD94F0000F0FD101F00046400041EB010111F4801FB8
:4071800008BF013CF7D041EA060195F0000F18BF704703F00046520043EB030313F4801F08BF013DF7D043EA0603704794EA0C0F0CEA135518BF95EA0C0F0CD050EA4106CD
:4071C00018BF52EA4306D1D181EA030101F000414FF0000070BD50EA410606BF1046194652EA430619D094EA0C0F02D150EA013613D195EA0C0F05D152EA03361CBF104644
:4072000019460AD181EA030101F0004141F0FE4141F470014FF0000070BD41F0FE4141F4780170BD70B54FF0FF0C4CF4E06C1CEA11541DBF1CEA135594EA0C0F95EA0C0FC3
