:400000000080002011000000F9080000F908000008B5044B1A6803F53F5302331A6000F08BFC00BFFA46004010B5054C237833B9044B13B10448AFF300800123237010BDEE
:400040008081FF1F00000000EC140000084B10B51BB108490848AFF300800848036803B910BD074B002BFBD0BDE81040184700BF000000008481FF1FEC140000C880FF1F92
:40008000000000000A4B1B68012B0FD110B5084C0023236000F056F9032000F095FA4FF4FA6000F011FD0123236010BD704700BFD882FF1F08B500231B4A13601B4A13602F
:4000C00062B61B4800F0D4FE00F080F800F054FA00F064FA00F09CFF0322164B1A6017E0012001F0F3F800F087F9FA2000F0ECFC01F04AF9104B83FB0032C317C3EBE20342
:4001000003EB83039A00831A042B01D100F028FA054B1B68012B02D1E2E700F033FA024B1B68002BF9D0F3E7D882FF1FD881FF1F85000000C881FF1F67666666074B0122C2
:400140001A6019685A6811449A680A44DB681344042B02D10A22014B1A6170479C81FF1F074B01225A6019685A6811449A680A44DB681344042B02D11422014B1A61704735
:400180009C81FF1F074B01229A6019685A6811449A680A44DB681344042B02D11E22014B1A6170479C81FF1F074B0122DA6019685A6811449A680A44DB681344042B02D1E5
:4001C0002822014B1A6170479C81FF1F08B500F00DFC00F069FC00F059FC00F051FD084800F0DCFC074800F073FD074800F098FD064800F0BDFD064800F0E2FD08BD00BF3A
:400200002D0200003D0100006101000085010000A9010000044B186900221A611A605A609A60DA60704700BF9C81FF1F08B500F0F3FB00F0DBFC1E4B18601B685B001D4AB1
:4002400013601368B3F5E16F03DD1B4A136901331361194B1B690B3B1E2B1FD8DFE803F0101E1E1E1E1E1E1E1E1E131E1E1E1E1E1E1E1E1E171E1E1E1E1E1E1E1E1E1B0088
:4002800000F02EF90CE0012000F0E4F808E0022000F0E0F804E000F023F901E000F00EF8FFF7B8FF00F096FC00F0F0FB08BD00BFE883FF1FEC83FF1F9C81FF1F08B50F4BBF
:4002C0001B68012B19D100F0C5FE00F037FF002000F090FD012000F081FD002000F096FD012000F09FFD502000F0C8FE502000F039FF00F00DFF00F07FFF08BDD882FF1FAB
:4003000008B50F4B1B68012B19D100F0A3FE00F015FF012000F06EFD002000F05FFD012000F074FD002000F07DFD502000F0A6FE502000F017FF00F0EBFE00F05DFF08BD20
:40034000D882FF1F08B500F085FE00F0F7FE08BD08B500F07FFE00F0F1FE154B1A68154B53F832300A3B3C2B09D8AA2000F080FE0F4B1A680F4B13F8320000F07FFE0C4B37
:400380001A680C4B03EBC2035B68283B3C2B0AD8AA2000F0E1FE064B1A68064B03EBC203187900F0DFFE00F0B3FE00F025FF08BDC881FF1FCC80FF1F08B5012802D0B0F1D0
:4003C000FF3F15D10B4B1B68002B08DDB0F1FF3F05D11844074B1860FFF7BAFF08BD052B06DC012804D11844024B1860FFF7B0FF08BD00BFC881FF1F08B5144B1B6873B915
:4004000000F0C2FF124A80FB0223C218C317C3EBA203C3EBC303C31A033B0C4A13600B4B1B68002B08DA4FF0FF30FFF7C5FF074A13680133136008BD002B06DD0120FFF745
:40044000BBFF024A1368013B136008BDD081FF1F93244992214B1B68012B3ED110B5044600F0F8FD00F06AFEFA2000F02DFB012C02D0022C0DD018E0002000F0BBFC0120F4
:4004800000F0ACFC012000F0C1FC002000F0CAFC0BE0002000F0A2FC012000F0ABFC012000F0C0FC002000F0B1FC642000F0E6FD642000F057FE00F02BFE00F09DFE4FF41E
:4004C000FA7000F001FB00F0C5FD00F037FEFA2000F0FAFAFFF7F2FE10BD7047D882FF1F08B51E4B1B68012B36D100F0B3FD00F025FEFA2000F0E8FAFFF702FF4FF47A7050
:4005000000F0E2FA00F0A6FD00F018FEFA2000F0DBFA002000F06EFC012000F05FFC012000F074FC002000F07DFC00F0F1FD00F063FE642000F0A2FD642000F013FE4FF47D
:400540007A7000F0C1FA00F085FD00F0F7FDFA2000F0BAFAFFF7B2FE08BD00BFD882FF1F08B5002000F092FC40F6B83000F0ACFA012000F08BFC08BD08B5012000F086FC74
:4005800008BD00BF034B1B68012B02D10122024B1A607047D881FF1FD882FF1F10B500F059FE084C0821204600F06EFE142000F08BFA0821601800F067FE142000F084FACB
:4005C00010BD00BFF014000008B5022808D003280BD001280DD10821064800F055FE08BD0821054800F050FE08BD0821034800F04BFE08BD001500000815000010150000DE
:40060000FEE700BFF0B40022174611E050F82760F3B226F0FF0608E001EB420511F812406D78A5550132013BDBB2002BF4D101371D2FEBD9F0BC704708B50A46002100F069
:400640009AFE08BDF8B5164B1B78DBB2154E3478E4B2154F3D78EDB203F00701134A11701B090132137044F00303337045F003033B700123A2F24272137040220C490A70FC
:4006800002310A700B4A137020220B4B1A700A2000F030FA3D7034704422084B1A70F8BDCF010049F8460040F94600406E58004001590040205B0040235B004076580040C9
:4006C00008B500F04DFE08BD38B50024354B1C80582202331A702F2202331A801823324A13704FF49C71023211800232137040F2DF11023211800232137004222B492C4805
:40070000FFF7DEFF02222B4B1A7008224FF040231A70032103F500731970274B1B78DBB226490B70264B1A8041F25122023B1A8019250CE0234B1B7803F0010343EA4404B9
:4007400004F003044FF4F07000F0CEFD013D0DB1032CEFD115B90320FFF752FF1A4B4FF480721A8007221A70002218490A704820023108701A700222033B1A7004220A332D
:400780001A70134A137843F00F031370013A137843F001031370013A137843F08003137038BD00BF804000408640004060060048004100400043004008010049A14600409B
:4007C00022420040254200400440004006400040A243004038B572B6324A137843F00403137000240CE0304D630019194A0011462A44084691882858FFF71EFF0134E4B2B0
:40080000052CF0D929494FF09040FFF7FBFE284A137843F0020313701032137843F002031370244C237843F040032370A2F58632513A137843F01003137008221E491F48D4
:40084000FFF73EFF0A221E491E48FFF739FF08221D491E48FFF734FF08221D491D48FFF72FFF08221C491D48FFF72AFF08221C491C48FFF725FF1C4A137843F00803137014
:400880001A4D61232B70FFF71FFF81232B700122174B1A70FFF7D6FE0E2221461548FFF70FFF38BDE8460040181500007800004803500140A04300402C060048025100407A
:4008C00034060048C051004040060048F2510040480600481251004050060048225100405806004832510040224300400048004004000840B043004008B500F005FD03685B
:400900000C2B00D1FEE7FEE708B5094B1A681044084BC31A802B02DC054B186005E000F0F3FC0C2303604FF0FF32104608BD00BF0481FF1F0084FF1F08B5104E104D16E02A
:4009400029686B68AC68002204E051F8040B43F8040B0432A242F8D1E868002203E0002143F8041B04328242F9D11035013E002EE6D100F0CFFCFFF79DFBFEE70100000048
:400980006415000008B5104A104B1A60104A136843F40073136000230AE0032B03D80D4A52F8231000E00C490C4A42F8231001332F2BF2D90A4B1A780A4B1A70074A0A4B39
:4009C0001A60FFF707FF08BD0004FA050CED00E014ED00E000000000F90800000080FF1FBC760040C080FF1F08ED00E0054A137843F0020313701032137843F0020313709E
:400A0000704700BFA2430040024A137843F08003137070477C640040024A137803F07F03137070477C640040014B1880704700BF18680040014B1880704700BF98680040DA
:400A4000014B1880704700BF5868004008B50E4A137803F0C00343F0090313702032137843F0010313700132137843F00103137048F23520FFF7D8FF48F23520FFF7DAFF3B
:400A80000520FFF7DDFF08BD7C64004008B5054B1B7823B9FFF7DAFF0122024B1A70FFF7B3FF08BDB081FF1F054A137843F0010313701032137843F001031370704700BFC8
:400AC000A243004001BE704710B5044605E0084B186800F009FCA4F50044B4F5004FF6D8034B586800FB04F000F0FEFB10BD00BF0881FF1F08B5034B1B7A00FB03F000F065
:400B0000F3FB08BD0881FF1F70B504460E46074B1D681F2802D90020FFF7D4FF04F01F04103455F8240045F8246070BD08ED00E038B504460D46072902D90020FFF7C2FFBB
:400B40001F2C02D90020FFF7BDFF04F01F0000F1604000F564406D01EDB2057038BD00BF014B1B681866704708ED00E04001C0B2014B1870704700BF08E400E04FF4807233
:400B8000014B1A60704700BF00E100E04FF48072014B1A60704700BF80E100E010B50446FFF7F4FF2046FFF7DBFF0120FFF7DEFFFFF7E4FF10BD00BF024A137843F0800372
:400BC0001370704774650040014B1870704700BF85650040014B1878704700BF65650040014B1880704700BF086A0040014B188880B27047886A0040014B1880704700BF65
:400C0000486A0040014B1880704700BF686A004008B501E0FFF7EAFFFFF7DCFF10F0400FF8D108BD08B5144A137803F0F80343F001031370137803F0FC0343F0080313709F
:400C4000FFF7E6FF4FF6FE70FFF7D6FF0020FFF7C7FF1020FFF7B8FFFFF7BCFF0120FFF7D1FF00F049FB054A137843F01003137000F046FB08BD00BF7465004095650040EB
:400C800008B5054B1B7823B9FFF7CCFF0122024B1A70FFF791FF08BDB181FF1F014B1B689864704708ED00E04001C0B2014B1870704700BF02E400E00422014B1A607047A5
:400CC00000E100E00422014B1A60704780E100E010B50446FFF7F6FF2046FFF7DFFF0220FFF7E2FFFFF7E8FF10BD00BF014B1B68D864704708ED00E04001C0B2014B18709B
:400D0000704700BF03E400E00822014B1A60704700E100E00822014B1A60704780E100E010B50446FFF7F6FF2046FFF7DFFF0220FFF7E2FFFFF7E8FF10BD00BF014B1B68C1
:400D40001865704708ED00E04001C0B2014B1870704700BF04E400E01022014B1A60704700E100E01022014B1A60704780E100E010B50446FFF7F6FF2046FFF7DFFF0220EF
:400D8000FFF7E2FFFFF7E8FF10BD00BF014B1B685865704708ED00E04001C0B2014B1870704700BF05E400E02022014B1A60704700E100E02022014B1A60704780E100E095
:400DC00010B50446FFF7F6FF2046FFF7DFFF0220FFF7E2FFFFF7E8FF10BD00BF044A137803F0FE0300F0010018431070704700BF00510040044A137803F0DF03400100F0DE
:400E00002000184310707047F0510040044A137803F0FD03400000F0020018431070704700510040044A137803F0DF03400100F0200018431070704700510040014B1B686D
:400E40005864704708ED00E04001C0B2014B1870704700BF01E400E00222014B1A60704700E100E00222014B1A60704780E100E010B50446FFF7F6FF2046FFF7DFFF0020D0
:400E8000FFF7E2FFFFF7E8FF10BD00BF044A137803F0FB03800000F004001843107070472051004008B50A280FD00C2802D0082806D102E04FF4805209E04FF4807206E09B
:400EC0000020FFF7FFFD002201E04FF480620021094B198042F2107303FB02F303F6C413064A82FB0302DB17C3EBE223044A1360044B198008BD00BFF083FF1FAD8BDB6880
:400F0000F483FF1FF283FF1F10B500F0F5F904461E4A137843F0010313701032137843F0010313701A3A137843F0010313701032137843F00103137002F5AA521232137886
:400F400043F0030313701822114B1A70013B1A7842F040021A701A7802F0FC021A70C822053B1A700222A3F597530C3B1A70094A137843F0080313700A20FFF7BBFD0122F8
:400F8000054B1A60204600F0BBF910BDAB43004006590040275B004080E200E010B504460A280DD00C2802D0082804D101E0C22207E0422205E00020FFF784FDC22200E046
:400FC0008222034B1A702046FFF76CFF10BD00BF0259004008B5102000F02AF807210020FFF7A6FD07490020FFF78EFD064A137843F0060313700C20FFF7D0FF0022034BBB
:401000001A8008BD2D10000001590040F883FF1F08B5054B1B7823B9FFF7DCFF0122024B1A70FFF771FF08BDB281FF1F704700BF034B1A7800F0F80010431870704700BF8F
:4010400002410040024A137843F080031370704776640040024A137803F07F031370704776640040014B1870704700BF06640040014B1870704700BF46640040014B187070
:40108000704700BF26640040014B1870704700BF86640040014B1878704700BF66640040014B1878704700BF5664004008B501E0FFF7F6FFFFF7EEFF10F0100FF8D108BDBB
:4010C00010B5114A137803F0C00343F0090313700E4C237843F001032370C820FFF7C2FFC820FFF7C5FF0020FFF7C8FF0020FFF7CBFF00F001F9237843F01003237000F0C2
:40110000FFF8FFF7D3FF10BD766400409664004008B5054B1B7823B9FFF7D2FF0122024B1A70FFF78FFF08BDB381FF1F024A137843F080031370704775640040024A137840
:4011400003F07F031370704775640040014B1870704700BF05640040014B1870704700BF45640040014B1870704700BF25640040014B1870704700BF85640040014B18781F
:40118000704700BF65640040014B1878704700BF5564004008B501E0FFF7F6FFFFF7EEFF10F0100FF8D108BD10B5114A137803F0C00343F0090313700E4C237843F00103FD
:4011C0002370C820FFF7C2FFC820FFF7C5FF0020FFF7C8FF0020FFF7CBFF00F08DF8237843F01003237000F08BF8FFF7D3FF10BD756400409564004008B5054B1B7823B99F
:40120000FFF7D2FF0122024B1A70FFF78FFF08BDB481FF1F0622054B1A70472210331A70022203F24F131A70704700BF2764004010B500F061F80446054A137843F010035B
:40124000137000F035F8204600F05AF810BD00BF9665004008B5054B1B7823B9FFF7DAFF0122024B1A70FFF7E3FF08BDB581FF1F034B1B7813F0040FFAD1024B18707047DB
:401280006665004046650040084B1B7833B97047305DFFF7EDFF0134E4B203E070B50D4606460024AC42F3D370BD00BFB581FF1F054A137843F0040313701032137843F01F
:4012C00004031370704700BFA2430040044A137803F0FD03400000F0020018431070704720510040000000000230800803D000BF01380046FCD17047EFF3108072B67047E8
:4013000080F31088704700BF014B1868704700BF7881FF1F0E4B70B51E460E4C0025E41AA410A54204D056F8253098470135F8E700F006F9084B094C1E46E41AA41000259C
:40134000A54204D056F8253098470135F8E770BD4C1500004C1500004C1500005415000010B5431E0A44914204D011F8014B03F8014FF8E710BD03460244934202D003F8CA
:40138000011BFAE770470000194B10B51C68A36BD3B9182000F032F843F20E33A06303804AF6CD33438041F2342383804EF26D63C3804DF6EC630381052343810B238381CD
:4013C00001220023C0E90423A16B0A4C0B6948695C43094A02FB0040A3FB02230132034443F10003C1E9042323F0004010BD00BF7881FF1F2DF451582D7F954C024B0146FB
:40140000186800F003B800BF7881FF1F70B5CD1C25F0030508350C2D38BF0C25002D064601DBA94202D90C23336046E000F05CF8234B1C681A462146A1B10B685B1B0ED4C5
:401440000B2B03D90B60CC18CD501EE08C420BBF63684B681360636018BF0C4615E00C464968E9E7174C23681BB9304600F02CF820602946304600F027F8431C18D0C41CCC
:4014800024F00304A0420DD12560304600F02DF804F10B00231D20F00700C31A0ED05A42E25070BD211A304600F00EF80130EBD10C233360304600F018F8002070BD00BF5C
:4014C000BC81FF1FB881FF1F38B5064C0023054608462360FFF718FA431C02D1236803B12B6038BDFC83FF1F70477047000000007E09000002FFF5EF7E0600001DFFDCEFE1
:401500007E0F000101FFEFEF7E0F000102FFEEEF7E0F000103FFEDEF40510040300000000140001000140140000800400140000A004C0140000200500140200043000000AA
:40154000F8B500BFF8BC08BC9E4670474D00000085090000F8B500BFF8BC08BC9E4670472900000078150000C880FF1FB80000008002000000000000000000000A00000032
:40158000640000001E00000064000000320000006400000046000000640000004600000050000000460000003C00000046000000280000000084FF1F0000E02EC05D0000B2
:4015C0001800000000366E0100000000000000000000000000000000000000000000000000000000000000003C1500000000000000000000000000000000000000000000DD
:40160000000000000000000000000000000000000000000000000000000000000000000000000000000000001881FF1F0000000000000000000000000000000000000000F3
:40164000000000000000000000000000000000000000000000000000000000000000000000000000000000000000000000000000000000000000000000000000000000006A
:40168000000000000000000000000000000000000000000000000000000000000000000000000000000000000000000000000000000000000000000000000000000000002A
:4016C00000000000000000000000000000000000000000000000000000000000000000000000000000000000000000000000000000000000000000000000000000000000EA
:4017000000000000000000000000000000000000000000000000000000000000000000000000000000000000000000000000000000000000000000000000000000000000A9
:020000040003F7
:0200000480007A
:40000000055200400264004002650040380401402F0501405C0601403707014002090140060B01403E0C0140170D0140591401403A15014044160140391701400219014074
:40004000031B0140074001400D4101400F420140094301400245014009460140014701400A4801400D490140074C0140064D0140055001400351014000C00140118060805B
:400080006180850D860D8577860F010122012C022F013101340236013E10580459045C335F01820183028A048F019701A201AE02AF02B002B204B401B502B701BF10C05064
:4000C000C104C5D0C601C720C826C9FFCAFFCBFFCDA0CF04D018D280D405D804D904DA04DB04DC33DD33DF01E040E2C0E440E540E6C0E8C0EAC0ECC0EEC00501060407046F
:400100001140124016401740180119201D011E101F222040264027082A402C022F02370438013D803F0245024C024D015502564057015C405D015F0877408A408D40C05079
:40014000C499CA18CC40CE91D080D210D6D0E040E220E608EA02EE080010020C030104090610070208140902120314101E2021042220281C2A022C0C2E11301F3102330418
:400180003420361F37013E103F044010410445D04721483249FF4AFF4BFF4DA04F04501852805405580459045A045B045C325D335F01604062C06440654066C068C06AC01C
:4001C0006CC06EC08003870C8C0397089802990C9B039D019F06A601A703AD01AF0EB203B50FB808BB20BE04C003C704C9FFCA07CBFFCC40CD20CEF0CF05D008D804D904A2
:40020000DA04DC20DD02DF01E040E1A8E240E32001C0034004040608074009200D080E800F0210201560170118101E881F80213024602540270129882F8031283340380425
:400240003C0A3E1040104541482049084D01510854045501560457015C405D015E08740192109E04A540AD20B320C079C2B2C4D4CA8ACC0ECEE2D092D6D0E608EA809102A0
:40028000E6089102AE04AF80B401E608EE081F01310137014010410649FF4AFF4BFF4DA04F045018528059045A045B045C105D115F01604062C06440654066C068C06AC0F6
:4002C0006CC06EC080019E02A602B401B602B902BE10BF01C040C106C501C702C811C9FFCAFFCBFFCDAFCE0FCF04D018D804D904DA04DC01DD01DF01E040E2C0E440E5404A
:40030000E6C0E8C0EAC0ECC0EEC003800940102018011A04210124402540278037404040478048204A084E0852087740C008C201C404CC10D011D2240001050509050D108B
:40034000140115031803190A1D052001233025052F0330013120330C3402350337103E103F5040214103420149FF4AFF4BFF4DA04F0150185280580459045A045B045F01BD
:400380006040628064406540668068406A506BA86C406D206E506FA8830591019902AF0AB104B308B502B701BF50C024C105C204C55CC620C70EC83BC9FFCAFFCBFFCDAF87
:4003C000CE07CF01D018D417D604D904DA04DB04DF01E040E280E440E540E680E840EA50EBA8EC40ED20EE50EFA803800B28128019011A04204521282303264227282820AA
:4004000029012A802F023020310832803602372038403A203B283F0240054308452047024E014F06560857125E805F18633066086785728080208380860487448A818B0804
:400440009A20A020A680AA20AB80C008C206C408CA1BCCAECE8ED0AED210D670D8F00001050306010704090A0B040C011A011B081D031F0C2110240227052A012D032F047E
:400480003001310F351036023B023E413F104012410545EC470B481349FF4AFF4BFF4EF04F44500C5401580459045A045B045C205D225F0166C06A406B02800186028B01CD
:4004C0008E06920A96049D01A502A60CA80CAA02AD01B201B503B60EB920BA80BE04D804D904DC22DF01018802800588076009090F081110122015301620182019801E802D
:400500001F80200422202501274829882C802D8833403620374039203D103F0847604C804D814F0856085C205D015E805F0880208C308F049120940499089D809E089F4052
:40054000A108B410C0BDC24CC466CADACC38CE64D030D210D6F0E6409102EC4089019102E2A032023380344036043B40CCF0CE1031203301354036085C02670897409C40F1
:40058000A606A780CCF0D680D8800102878088028D0297489C42A520A60EA780AD40AF01C010E610EA40EE10844099029C40A520A60EAF40B304E610EE406102D8020280B6
:4005C0001B018701A680AE80B502C008C608EC0886100310232083208D209902A520A60EC010C840E08003208102860A87209902A60AAA04AB10C010E250E430E820EE207D
:400600000C400E20A002A610B402C205EC02740288409840A002DE04E201000E0A0C0E0210051A0500FF01FF0203000000E3E300C00000008000048080008000000000000A
:400640001120200000000000A04B4B0000000000008686008000010001000000000000000E001801000000000000000000000000000000000000000000000000000000003E
:40068000000000000000000000000000000000000000000000000000000000000000000000000000000000000000000000000000000000000000000000000000000000003A
:4006C00000000000000000000000000000000000000000000000000000000000000000000000000000000000000000000000000000000000000000000000000000000000FA
:4007000000000000000000000000000000000000000000000000000000000000000000000000000000000000000000000000000000000000000000000000000000000000B9
:400740000000000000000000000000000000000000000000000000000000000000000000000000000000000000000000000000000000000000000000000000000000000079
:0200000490006A
:0400000000004005B7
:0200000490105A
:04000000BC90ACAF55
:0200000490303A
:020000003BF3D0
:0200000490402A
:4000000000000000000000000000000000000000000000000000000000000000000000000000000000000000000000000000000000000000000000000000000000000000C0
:400040000000000000000000000000000000000000000000000000000000000000000000000000000000000000000000000000000000000000000000000000000000000080
:400080000000000000000000000000000000000000000000000000000000000000000000000000000000000000000000000000000000000000000000000000000000000040
:4000C0000000000000000000000000000000000000000000000000000000000000000000000000000000000000000000000000000000000000000000000000000000000000
:0200000490501A
:0C00000000012E16106900012E204C5C3F
:00000001FF