:400000000080002011000000CD090000CD09000008B5044B1A6803F53F5302331A6000F0F5FC00BFFA46004010B5054C237833B9044B13B10448AFF300800123237010BDDA
:400040008081FF1F00000000EC150000084B10B51BB108490848AFF300800848036803B910BD074B002BFBD0BDE81040184700BF000000008481FF1FEC150000C880FF1F90
:400080000000000010B5084C0023236000F044F9032000F003FB4FF4FA6000F07FFD00F0D5FA0123236010BDD482FF1F08B50022134B1A600122134B1A6062B6124800F07F
:4000C00041FF00F06DF800F035FA00F0D1FA01F009F801F015F803220C4B1A6004E000F075F9FA2000F05AFD054B1B68012B02D1F5E700F093FA024B1B68002BF9D0F3E73F
:40010000D482FF1FD481FF1F85000000C881FF1F074B01221A6019685A6811449A680A44DB681344042B02D10A22014B1A6170479C81FF1F074B01225A6019685A681144CD
:400140009A680A44DB681344042B02D11422014B1A6170479C81FF1F074B01229A6019685A6811449A680A44DB681344042B02D11E22014B1A6170479C81FF1F074B012243
:40018000DA6019685A6811449A680A44DB681344042B02D12822014B1A6170479C81FF1F08B500F08DFC00F0E9FC00F0D9FC00F0D1FD084800F05CFD074800F0F3FD0748D9
:4001C00000F018FE064800F03DFE064800F062FE08BD00BF010200001101000035010000590100007D010000044B186900221A611A605A609A60DA60704700BF9C81FF1FB5
:4002000008B500F073FC00F05BFD1E4B18601B685B001D4A13601368B3F5E16F03DD1B4A136901331361194B1B690B3B1E2B1FD8DFE803F0101E1E1E1E1E1E1E1E1E131E6E
:400240001E1E1E1E1E1E1E1E171E1E1E1E1E1E1E1E1E1B0000F02EF90CE0012000F0E4F808E0022000F0E0F804E000F023F901E000F00EF8FFF7B8FF00F016FD00F070FCB9
:4002800008BD00BFE483FF1FE883FF1F9C81FF1F08B50F4B1B68012B19D100F06BFF00F0DDFF002000F010FE012000F001FE002000F016FE012000F01FFE502000F06EFF4E
:4002C000502000F0DFFF00F0B3FF01F025F808BDD482FF1F08B50F4B1B68012B19D100F049FF00F0BBFF012000F0EEFD002000F0DFFD012000F0F4FD002000F0FDFD5020E1
:4003000000F04CFF502000F0BDFF00F091FF01F003F808BDD482FF1F08B500F02BFF00F09DFF08BD08B500F025FF00F097FF154B1A68154B53F832300A3B3C2B09D8AA20FC
:4003400000F026FF0F4B1A680F4B13F8320000F025FF0C4B1A680C4B03EBC2035B68283B3C2B0AD8AA2000F087FF064B1A68064B03EBC203187900F085FF00F059FF00F03B
:40038000CBFF08BDC881FF1FCC80FF1F08B5012802D0B0F1FF3F15D10B4B1B68002B08DDB0F1FF3F05D11844074B1860FFF7BAFF08BD052B06DC012804D11844024B1860F7
:4003C000FFF7B0FF08BD00BFC881FF1F08B5144B1B6873B901F058F8124A80FB0223C218C317C3EBA203C3EBC303C31A033B0C4A13600B4B1B68002B08DA4FF0FF30FFF7BC
:40040000C5FF074A13680133136008BD002B06DD0120FFF7BBFF024A1368013B136008BDCC81FF1F93244992214B1B68012B3ED110B5044600F09EFE00F010FFFA2000F0DB
:40044000ADFB012C02D0022C0DD018E0002000F03BFD012000F02CFD012000F041FD002000F04AFD0BE0002000F022FD012000F02BFD012000F040FD002000F031FD642047
:4004800000F08CFE642000F0FDFE00F0D1FE00F043FF4FF4FA7000F081FB00F06BFE00F0DDFEFA2000F07AFBFFF7F2FE10BD7047D482FF1F08B51E4B1B68012B36D100F0FC
:4004C00059FE00F0CBFEFA2000F068FBFFF702FF4FF47A7000F062FB00F04CFE00F0BEFEFA2000F05BFB002000F0EEFC012000F0DFFC012000F0F4FC002000F0FDFC00F0E8
:4005000097FE00F009FF642000F048FE642000F0B9FE4FF47A7000F041FB00F02BFE00F09DFEFA2000F03AFBFFF7B2FE08BD00BFD482FF1F08B5012000F012FD08BD00BF0E
:4005400070B500263446354658E0002000F0E0FD48B952E000F0EEFD2044C4B20A2000F01DFB013500E00025092DF3D9254B1A88013292B21A80244BA3FB0413C3F3C703F8
:4005800022490B80A02B09D921490B8801339BB20B80052B1FD100250D8023E0A3F1460189B25A290BD81B490B8801339BB20B80052B12D10021174B1980012512E0452B84
:4005C0000DD815490B8801339BB20B80052B08D100250D8006E0002504E0002502E0002500E000250A2A08D10023064A13800A4A1380074A1380074A13800136092EA4DD8D
:40060000284670BDE083FF1FCDCCCCCCD882FF1FD081FF1FC481FF1FC681FF1F08B5094B1B68012B0CD1FFF78BFF48B1012000F035F840F6B83000F0B1FA0122024B1A60C7
:4006400008BD00BFD481FF1FD482FF1F08B50022064B1A60FFF774FF0128FBD1FFF770FF0128FBD00122014B1A6008BDD482FF1F10B500F07DFE084C0821204600F092FEF9
:40068000142000F08BFA0821601800F08BFE142000F084FA10BD00BFF015000008B5022808D003280BD001280DD10821064800F079FE08BD0821054800F074FE08BD08210F
:4006C000034800F06FFE08BD001600000816000010160000FEE700BFF0B40022174611E050F82760F3B226F0FF0608E001EB420511F812406D78A5550132013BDBB2002B70
:40070000F4D101371C2FEBD9F0BC704708B50A46002100F0B0FE08BDF8B5164B1B78DBB2154E3478E4B2154F3D78EDB203F00701134A11701B090132137044F0030333709E
:4007400045F003033B700123A2F24272137040220C490A7002310A700B4A137020220B4B1A700A2000F030FA3D7034704422084B1A70F8BDCF010049F8460040F946004029
:400780006E58004001590040205B0040235B00407658004008B500F063FE08BD38B50024354B1C80582202331A702F2202331A801823324A13704FF49C7102321180023236
:4007C000137040F2DF11023211800232137004222B492C48FFF7DEFF02222B4B1A7008224FF040231A70032103F500731970274B1B78DBB226490B70264B1A8041F2512238
:40080000023B1A8019250CE0234B1B7803F0010343EA440404F003044FF4F07000F0E4FD013D0DB1032CEFD115B90320FFF752FF1A4B4FF480721A8007221A70002218494E
:400840000A704820023108701A700222033B1A7004220A331A70134A137843F00F031370013A137843F001031370013A137843F08003137038BD00BF80400040864000409F
:4008800058060048004100400043004008010049A146004022420040254200400440004006400040A243004038B572B6324A137843F00403137000240CE0304D63001919A0
:4008C0004A0011462A44084691882858FFF71EFF0134E4B2052CF0D929494FF09040FFF7FBFE284A137843F0020313701032137843F002031370244C237843F04003237066
:40090000A2F58632513A137843F01003137008221E491F48FFF73EFF0A221E491E48FFF739FF08221D491E48FFF734FF08221D491D48FFF72FFF08221C491D48FFF72AFFEC
:4009400008221C491C48FFF725FF1C4A137843F0080313701A4D61232B70FFF71FFF81232B700122174B1A70FFF7D6FE0E2221461548FFF70FFF38BDE8460040181600007D
:400980007400004803500140A043004024060048025100402C060048C051004038060048F2510040400600481251004048060048225100405006004832510040224300406B
:4009C0000048004004000840B043004008B500F01BFD03680C2B00D1FEE7FEE708B5094B1A681044084BC31A802B02DC054B186005E000F009FD0C2303604FF0FF32104653
:400A000008BD00BF0481FF1F0084FF1F08B5104E104D16E029686B68AC68002204E051F8040B43F8040B0432A242F8D1E868002203E0002143F8041B04328242F9D11035A3
:400A4000013E002EE6D100F0E5FCFFF72FFBFEE7010000006416000008B5104A104B1A60104A136843F40073136000230AE0032B03D80D4A52F8231000E00C490C4A42F874
:400A8000231001332F2BF2D90A4B1A780A4B1A70074A0A4B1A60FFF707FF08BD0004FA050CED00E014ED00E000000000CD0900000080FF1FBC760040C080FF1F08ED00E02D
:400AC000054A137843F0020313701032137843F002031370704700BFA2430040024A137843F08003137070477D640040024A137803F07F03137070477D640040014B1880CB
:400B0000704700BF18680040014B1880704700BF98680040014B1880704700BF5868004008B50E4A137803F0C00343F0090313701F32137843F0010313700132137843F0EC
:400B4000010313704CF25030FFF7D8FF4CF25030FFF7DAFF0520FFF7DDFF08BD7D64004008B5054B1B7823B9FFF7DAFF0122024B1A70FFF7B3FF08BDB081FF1F054A13781E
:400B800043F0010313701032137843F001031370704700BFA243004001BE704710B5044605E0084B186800F01FFCA4F50044B4F5004FF6D8034B586800FB04F000F014FC71
:400BC00010BD00BF0881FF1F08B5034B1B7A00FB03F000F009FC08BD0881FF1F70B504460E46074B1D681F2802D90020FFF7D4FF04F01F04103455F8240045F8246070BD74
:400C000008ED00E038B504460D46072902D90020FFF7C2FF1F2C02D90020FFF7BDFF04F01F0000F1604000F564406D01EDB2057038BD00BF014B1B681866704708ED00E02F
:400C40004001C0B2014B1870704700BF08E400E04FF48072014B1A60704700BF00E100E04FF48072014B1A60704700BF80E100E010B50446FFF7F4FF2046FFF7DBFF012078
:400C8000FFF7DEFFFFF7E4FF10BD00BF024A137843F080031370704775650040014B1870704700BF85650040014B1878704700BF65650040014B1880704700BF086A00403F
:400CC000014B188880B27047886A0040014B1880704700BF486A0040014B1880704700BF686A004008B501E0FFF7EAFFFFF7DCFF10F0400FF8D108BD08B5144A137803F071
:400D0000F80343F001031370137803F0FC0343F008031370FFF7E6FF4FF6FE70FFF7D6FF0020FFF7C7FF1020FFF7B8FFFFF7BCFF0120FFF7D1FF00F05FFB054A137843F0BF
:400D40001003137000F05CFB08BD00BF756500409565004008B5054B1B7823B9FFF7CCFF0122024B1A70FFF791FF08BDB181FF1F014B1B689864704708ED00E04001C0B2E2
:400D8000014B1870704700BF02E400E00422014B1A60704700E100E00422014B1A60704780E100E010B50446FFF7F6FF2046FFF7DFFF0220FFF7E2FFFFF7E8FF10BD00BF45
:400DC000014B1B68D864704708ED00E04001C0B2014B1870704700BF03E400E00822014B1A60704700E100E00822014B1A60704780E100E010B50446FFF7F6FF2046FFF7F2
:400E0000DFFF0220FFF7E2FFFFF7E8FF10BD00BF014B1B681865704708ED00E04001C0B2014B1870704700BF04E400E01022014B1A60704700E100E01022014B1A607047B6
:400E400080E100E010B50446FFF7F6FF2046FFF7DFFF0220FFF7E2FFFFF7E8FF10BD00BF014B1B685865704708ED00E04001C0B2014B1870704700BF05E400E02022014B2F
:400E80001A60704700E100E02022014B1A60704780E100E010B50446FFF7F6FF2046FFF7DFFF0220FFF7E2FFFFF7E8FF10BD00BF044A137803F0FE0300F001001843107011
:400EC000704700BF00510040044A137803F0DF03400100F02000184310707047F0510040044A137803F0FD03400000F0020018431070704700510040044A137803F0DF030A
:400F0000400100F0200018431070704700510040014B1B685864704708ED00E04001C0B2014B1870704700BF01E400E00222014B1A60704700E100E00222014B1A60704761
:400F400080E100E010B50446FFF7F6FF2046FFF7DFFF0020FFF7E2FFFFF7E8FF10BD00BF044A137803F0F703C00000F008001843107070470051004008B50A280FD00C28F9
:400F800002D0082806D102E04FF4805209E04FF4807206E00020FFF7FFFD002201E04FF480620021094B198042F2107303FB02F303F6C413064A82FB0302DB17C3EBE22324
:400FC000044A1360044B198008BD00BFEC83FF1FAD8BDB68F083FF1FEE83FF1F10B500F00BFA04461E4A137843F0010313701032137843F0010313701A3A137843F001034E
:4010000013701032137843F00103137002F5AA521232137843F0030313701822114B1A70013B1A7842F040021A701A7802F0FC021A70C822053B1A700222A3F597530C3B8F
:401040001A70094A137843F0080313700A20FFF7BBFD0122054B1A60204600F0D1F910BDAB43004006590040275B004080E200E010B504460A280DD00C2802D0082804D19B
:4010800001E0C22207E0422205E00020FFF784FDC22200E08222034B1A702046FFF76CFF10BD00BF0259004008B5102000F050F807210020FFF7A6FD07490020FFF78EFD7F
:4010C000064A137843F0060313700C20FFF7D0FF0022034B1A8008BD4D11000001590040F483FF1F08B5054B1B7823B9FFF7DCFF0122024B1A70FFF771FF08BDB281FF1F46
:40110000024A137843F00103137070470059004010B5074B1B7813F0010401D10028F8D024B10120FFF750FD014B1B78204610BD01590040034B188880B2034B1B88C01A8A
:4011400000B27047A05B0040EE83FF1F704700BF034B1A7800F0F80010431870704700BF02410040024A137843F080031370704775640040024A137803F07F0313707047C4
:4011800075640040014B1870704700BF05640040014B1870704700BF45640040014B1870704700BF25640040014B1870704700BF85640040014B1878704700BF656400400F
:4011C000014B1878704700BF5564004008B501E0FFF7F6FFFFF7EEFF10F0100FF8D108BD10B5114A137803F0C00343F0090313700E4C237843F001032370C820FFF7C2FF0A
:40120000C820FFF7C5FF0020FFF7C8FF0020FFF7CBFF00F0F1F8237843F01003237000F0EFF8FFF7D3FF10BD756400409564004008B5054B1B7823B9FFF7D2FF0122024B91
:401240001A70FFF78FFF08BDB381FF1F024A137843F080031370704777650040024A137803F07F031370704777650040014B1870704700BF07650040014B1870704700BF84
:4012800047650040014B1870704700BF27650040014B1870704700BF87650040014B1878704700BF67650040014B1878704700BF5765004008B501E0FFF7F6FFFFF7EEFF9E
:4012C00010F0100FF8D108BD10B5114A137803F0C00343F0090313700E4C237843F001032370C820FFF7C2FFC820FFF7C5FF0020FFF7C8FF0020FFF7CBFF00F07DF8237861
:4013000043F01003237000F07BF8FFF7D3FF10BD776500409765004008B5054B1B7823B9FFF7D2FF0122024B1A70FFF78FFF08BDB481FF1F0622044B1A70472210331A7074
:40134000022252331A7070472464004010B500F053F80446054A137843F01003137000F035F8204600F04CF810BD00BF9664004008B5054B1B7823B9FFF7DCFF0122024B94
:401380001A70FFF7E3FF08BDB581FF1F034B1B7813F0040FFAD1024B187070476664004046640040084B1B7833B97047305DFFF7EDFF0134E4B203E070B50D4606460024E2
:4013C000AC42F3D370BD00BFB581FF1F054A137843F0040313701032137843F004031370704700BFA24300400230800803D000BF01380046FCD17047EFF3108072B670479D
:4014000080F31088704700BF014B1868704700BF7881FF1F0E4B70B51E460E4C0025E41AA410A54204D056F8253098470135F8E700F006F9084B094C1E46E41AA41000259B
:40144000A54204D056F8253098470135F8E770BD4C1600004C1600004C1600005416000010B5431E0A44914204D011F8014B03F8014FF8E710BD03460244934202D003F8C5
:40148000011BFAE770470000194B10B51C68A36BD3B9182000F032F843F20E33A06303804AF6CD33438041F2342383804EF26D63C3804DF6EC630381052343810B238381CC
:4014C00001220023C0E90423A16B0A4C0B6948695C43094A02FB0040A3FB02230132034443F10003C1E9042323F0004010BD00BF7881FF1F2DF451582D7F954C024B0146FA
:40150000186800F003B800BF7881FF1F70B5CD1C25F0030508350C2D38BF0C25002D064601DBA94202D90C23336046E000F05CF8234B1C681A462146A1B10B685B1B0ED4C4
:401540000B2B03D90B60CC18CD501EE08C420BBF63684B681360636018BF0C4615E00C464968E9E7174C23681BB9304600F02CF820602946304600F027F8431C18D0C41CCB
:4015800024F00304A0420DD12560304600F02DF804F10B00231D20F00700C31A0ED05A42E25070BD211A304600F00EF80130EBD10C233360304600F018F8002070BD00BF5B
:4015C000BC81FF1FB881FF1F38B5064C0023054608462360FFF702FA431C02D1236803B12B6038BDF883FF1F70477047000000007E09000002FFF5EF7E0600001DFFDCEFFA
:401600007E0F000101FFEFEF7E0F000102FFEEEF7E0F000103FFEDEF40510040300000000140001000140140000800400140000A004C0140000200500140200043000000A9
:40164000F8B500BFF8BC08BC9E4670474D000000590A0000F8B500BFF8BC08BC9E4670472900000078160000C880FF1FB80000008002000000000000000000000A0000005B
:40168000640000001E00000064000000320000006400000046000000640000004600000050000000460000003C00000046000000280000000084FF1F0000E02EC05D0000B1
:4016C0001800000000366E0100000000000000000000000000000000000000000000000000000000000000003C1600000000000000000000000000000000000000000000DB
:40170000000000000000000000000000000000000000000000000000000000000000000000000000000000001881FF1F0000000000000000000000000000000000000000F2
:401740000000000000000000000000000000000000000000000000000000000000000000000000000000000000000000000000000000000000000000000000000000000069
:401780000000000000000000000000000000000000000000000000000000000000000000000000000000000000000000000000000000000000000000000000000000000029
:4017C00000000000000000000000000000000000000000000000000000000000000000000000000000000000000000000000000000000000000000000000000000000000E9
:4018000000000000000000000000000000000000000000000000000000000000000000000000000000000000000000000000000000000000000000000000000000000000A8
:020000040003F7
:0200000480007A
:40000000045200400264004002650040530401402F050140470601403907014001090140010B0140350C0140130D01405D140140441501403D16014037170140021B014079
:40004000074001400D4101400F4201400F430140034501400346014001470140124801400D490140044C0140084D0140055001400351014000C0014010806180850D860F8B
:400080008577870D040208030B030F05100317011F022306250627012A013307340338203B083E104002460449FF4A074BFF4C404D204EF04F055008580459045A045C204B
:4000C0005D025F01604061A86240632083018601870E880190019302940295089E04A204B108B302B404B504B603B701B880BE10C010C104C5D0C721C832C9FFCAFFCBFFEC
:40010000CDA0CF04D018D280D405D804D904DA04DB04DC32DD33DF01E040E2C0E440E540E6C0E8C0EAC0ECC0EEC000180108041005080A400B800C080E400F0210081702E0
:4001400018041E081F802010244025402608270629082B803088370638103B803C023F08400445414D0150C8550157055C405D015E0874018608C066C2B8C412CA03CCCAD3
:40018000CECCD094D6D0E60802080702080309020A040C030E0C160518031A0421022702280A2A042B022D0131023501360F3A803F1140564103450B46C047E0482949FF2A
:4001C0004AFF4BFF4EF04F44500C5401580459045A045B045C025D225F0166C06A406B0280098210841C860289018A038B0E8C108F089010920C9703990C9B03A30CA41452
:40020000A80CAA11AD01AF06B41FB50FBB20D804D904DC22DF0100480120024003800410054006440B800C28110412041520180419201D401F40200821102210278829403F
:400240002B802C0A2F603008321038D03C183E2046204A024B804C084D044E02542257205E115F888201909094089780A008A380A404A804C0DFC268C446CAF9CC06CE6C0E
:40028000D040D230D6F0E608E608E6084060410249FF4AFF4BFF4DA04F0450185A045D015F01604062C06440654066C068C06AC06CC06EC086029201A602B202B401C02031
:4002C000C106C501C702C811C9FFCAFFCBFFCDAFCE0FCF04D018D280D804DA04DB04DC01DD11DF01E040E2C0E440E540E6C0E8C0EAC0ECC0EEC000040902102018041B18DF
:400300004004460448284F205008520471028708C004C208C404D024D224E4020801110415011A031D01210125012F06310232023304350136013E403F04403141064201C7
:4003400049FF4AFF4BFF4DA04F015018580459045A045F016040628064406540668068406A506BA86C406D206E506FA88206840288028C0291019404950298019C02A10192
:40038000A209A406A501A901B001B206B408B503BE05C035C106C205C50CC625C70EC83DC9FFCAFFCBFFCDAFCE07CF01D018D280D417D604D804D904DA04DB04DF01E040EE
:4003C000E280E440E540E680E840EA50EBA8EC40ED20EE50EFA8001005080605074209200C440E0416801704181119801A021D081E442126270429082A012B012C482D0834
:400400003048310234043702390C3A203B1040014108450849204A044D204E014F0456A857015D045E405F106580660867847740800882048508874088449A019C409D0816
:400440009E04A204B120B720C0F2C2E2C430CAEBCCCBD04AD234D670D8F0E480EA400404210124012802300132043402350139083E153F14580459045F0185028E0892023D
:4004800095049F05A204A608AC01AF01B008B104B204B301B401B502B602BE11BF10C050C102C5D2C601C807C9FFCAFFCBFFCDA0CF04D018D280D405D804D904DA04DB0491
:4004C000DC33DD33DF01E040E2C0E440E540E6C0E8C0EAC0ECC0EEC0018005080B4010A0120114201604184019801B281C081D0A212023902408260429802C602E043080D6
:40050000330838044204482049815080580859015B8073408048850888248D029004940897109A01A820AA10AF10B002B201C021C208C46DCA88CC0ACE02D004D208D60BA9
:40054000E080E220E610E280EC8032013380344037013940CCF0CE103188358036085E016620954096029C409F01A780CCF0D680D880031086018780954096039C409D809D
:400580009E209F01A588A608A780C010E210E61083108440954096029B109C409D809E209F01A508A608A980E020E610EE805F028702D6011B018701C608861001900320F8
:4005C0002020870189108A018D08954096029D809F01A508A608AE20C050C840E240EA1000018001860887208810A010A320A608B540C010E080E210E4100E200F02A61083
:40060000C20573108B019310A301B310DC01E201EC01000E0A0C0E0210091A0900FF01FF0203000000EBEB00C00000008000048080008000000000000520200000000000DA
:40064000A00B0B0000000000008282008000010001000000000000000E00180100000000000000000000000000000000000000000000000000000000000000000000000017
:40068000000000000000000000000000000000000000000000000000000000000000000000000000000000000000000000000000000000000000000000000000000000003A
:4006C00000000000000000000000000000000000000000000000000000000000000000000000000000000000000000000000000000000000000000000000000000000000FA
:4007000000000000000000000000000000000000000000000000000000000000000000000000000000000000000000000000000000000000000000000000000000000000B9
:400740000000000000000000000000000000000000000000000000000000000000000000000000000000000000000000000000000000000000000000000000000000000079
:0200000490006A
:0400000000004005B7
:0200000490105A
:04000000BC90ACAF55
:0200000490303A
:0200000097580F
:0200000490402A
:4000000000000000000000000000000000000000000000000000000000000000000000000000000000000000000000000000000000000000000000000000000000000000C0
:400040000000000000000000000000000000000000000000000000000000000000000000000000000000000000000000000000000000000000000000000000000000000080
:400080000000000000000000000000000000000000000000000000000000000000000000000000000000000000000000000000000000000000000000000000000000000040
:4000C0000000000000000000000000000000000000000000000000000000000000000000000000000000000000000000000000000000000000000000000000000000000000
:0200000490501A
:0C00000000012E16106900012E20A7C17F
:00000001FF