:400000000080002011000000E1030000E103000080B500AF024A034B1B68136000F0E4F9BC760040FA46004010B5054C237833B9044B13B10448AFF300800123237010BD72
:400040005885FF1F0000000000380000084B10B51BB108480849AFF300800848036803B910BD074B002BFBD0BDE81040184700BF00000000003800005C85FF1F0881FF1F29
:400080000000000080B582B000AF022001214FF480424FF4804301F063FB0346FB7100F09BFD03463B713B7918460221FF22022300F0C0FD3B79184644F610614CF2A17224
:4000C00000F0F8FD3B79FA791046194600F016FDFB791846012100F05DFC0837BD4680BD80B582B000AF022001214FF4804241F6FF7301F04FFD0346FB7100F06DFD0346E3
:400100003B713B7918460221FF22052300F092FD3A790B4B9BB210464CF2A9711A4600F0C9FD3B79FA791046194600F0E7FCFB791846012100F02EFC0837BD4680BD00BF01
:40014000B085FF1F80B400AF064A074B1B881BB21B129BB2DBB2643BDBB21370BD465DF8047B7047835B0040B085FF1F98B500AF204B00221A70204B1B881AB21F4B1B68A8
:4001800013441E4A13601C4B1B881BB2184602F0B3FF0446184B1B881BB2184602F0ACFF03462046194602F0FBFF03461A46144B1B681046194602F0EBFE03461A46104B03
:4001C0001A600D4B1A880F4B1B8812B21BB29A4203DA094B1A880B4B1A80074B1A880A4B1B8812B21BB29A4203DD034B1A88064B1A8098BD7B640040B085FF1F7485FF1F6C
:400200007885FF1F7C85FF1F7E85FF1F80B500AF01F0DAFE01F0CEFD01F0AAFE00F038FF022000F04DFF00F067FFFFF72BFF01F02DFC0020022101F039FCFFF751FF06484F
:4002400001F0DCFC01F0EEFA044801F025FD044B00221A7080BD00BF450100006D0100007B640040B0B500AFFFF7D0FF62B6514B00221A60504B4FF000021A604F4B47F65D
:40028000FF721A804E4B4FF400421A804D4B00221A800EE04C4B01221A7000BF4A4B1B78DBB2002BFAD1474B1B8801339AB2454B1A80444B1B88B3F5806FEBD33D4B1B681A
:4002C0009B129AB2414B1A80404B1B881BB2184602F012FF04463D4B1B881BB2184602F00BFF03462046194602F05AFF03461A46314B1B681046194603F0F0F80346002BE2
:4003000024D02D4B1B6818464FF0894102F0FCFF03461C462D4B1B881BB2184602F0ECFE05462A4B1B881BB2184602F0E5FE03462846194602F034FF03462046194602F00F
:4003400025FE03461A46224B1A6003E0204B4FF000021A601D4B1B881BB2184600F0DCFE02461C4B1A60164B1B881AB2134B1B881BB2D31A184600F0CFFE0246164B1A60CF
:40038000134B1B68184602F0E7FA02460B461046194602F033F802460B461046194602F0C9FD0346184600F0B7FE02460B4B1A605DE700BF7485FF1F7885FF1F7C85FF1F02
:4003C0007E85FF1F9485FF1F7B6400408085FF1F8485FF1F8885FF1F8C85FF1F9085FF1F80B400AFFEE700BF80B586B000AF224B7B61224B3B61204B7B6135E03B691B6839
:40040000FB603B695B68BB603B699B683B6000237B600CE0FB681A68BB681A60BB680433BB60FB680433FB607B6804337B607A683B689A42EED13B69DB683B6000237B6032
:4004400008E0BB6800221A60BB680433BB607B6804337B607A683B689A42F2D13B6910333B617B69013B7B617B69002BC6D103F063F8FFF7F7FEFEE701000000B83E00000D
:4004800080B582B000AF184B184A1A60184A184B1B6843F40073136000237B600FE07B68032B04D8134A7B6852F8233000E0124B12497A6841F822307B6801337B607B68F1
:4004C0002F2BECD90E4B1B78DAB20E4B1A700E4B0A4A1A6000F084F900F02EFA0B4B00221A600837BD4680BD0CED00E00004FA0514ED00E000000000E10300000080FF1F26
:40050000BC7600400481FF1F08ED00E00081FF1F80B582B000AF78603960786800213A6803F0A8F80837BD4680BD00BF80B584B000AFF860B9607A60F868B9687A6803F07E
:4005400023F81037BD4680BD80B483B000AF0346FB71FEE780B487B000AF7860396000233B6100237B6127E07B699B007A6813441B68BB60BB68FB73BB6823F0FF03BB609F
:4005800014E03B695B003A6813441B781A46BB68134419463B695B003A6813445B780B703B6901333B61FB7B013BFB73FB7B002BE7D17B6901337B617B69172BD4D91C3736
:4005C000BD465DF8047B704780B582B000AF3F4B00221A803E4B50221A703E4B40F685021A803D4B19221A703C483D490822FFF79DFF3C4B06221A703B4B52221A703B4B56
:400600003B4A1278D2B21A703A4B4FF4E1621A80394B41F251221A800023FB7019237B6014E0FB785B00DAB2344B1B78DBB203F00103DBB21343DBB203F00303FB704FF494
:40064000F07000F069F97B68013B7B607B68002B02D0FB78032BE4D17B68002B02D10320FFF772FF264B4FF480721A80244B07221A70244B00221A70234B48221A70204BE3
:4006800000221A70214B00221A70214B02221A70204B04221A70204A1F4B1B78DBB243F00303DBB213701D4A1C4B1B78DBB243F00303DBB213701A4A194B1B78DBB263F092
:4006C0007F03DBB213700837BD4680BD8040004082400040844000408640004000410040080100480043004000420040A14600400F01004922420040204200402542004099
:4007000004400040064000400840004009400040014000400B400040A2430040A1430040A043004080B483B000AF1D4B1B78FB711C4AFB7903F00703DBB213701A4AFB79EA
:400740001B09DBB21370194B0A221A70184B0C221A70184B40F201421A80174B80221A70164B80221A70164B01221A70154B20221A70154B01221A70144B20221A70144BB2
:4007800080221A70134B20221A70134B01221A70124B44221A700C37BD465DF8047B7047CF0100496E5800406F5800403D5100406C580040065A0040085A0040105A0040D6
:4007C000165A0040905A0040925A0040985A0040005B0040045B00405A5B00407658004080B582B000AF72B60023FB7113E0FA7913465B0013445B00344A13443B603B68D8
:400800001A683B689B889BB210461946FFF780FEFB790133FB71FB79092BE8D94FF090402B49FFF797FE2B4B0A221A702A480421FFF76EFE29482A490422FFF777FE294A62
:40084000284B1B78DBB243F00203DBB21370264A254B1B78DBB243F00203DBB21370234A224B1B78DBB243F04003DBB21370204A1F4B1B78DBB243F01003DBB213701D4826
:400880001D490822FFF752FE1C481D490822FFF74DFE1C4A1B4B1B78DBB243F00803DBB21370194B61221A70FFF78EFE164B81221A70164B01221A70FFF734FF14480B498B
:4008C0000E22FFF733FE0837BD4680BD0438000060000048835800405076004040760040100100480350014013500140A0430040C243004012510040F80000483251004088
:4009000000010048224300400048004004000840B0430040000000000230800803D000BF01380046FCD17047EFF3108072B6704780F31088704700BF80B483B000AF134B2D
:400940007F221A70124B80221A707F23FB710CE0FB79DB0003F1804303F5F043FA79013AD2B21A70FB79013BFB71FB79002BEFD1FB79DB0003F1804303F5F04300221A7084
:400980000C37BD465DF8047B704700BF0D81FF1F0C81FF1F80B485B000AF03460A46FB711346BB710123FB60FB79172B2FD8BB79002B0ED0FB791A01184B1344FA79110167
:4009C000164A0A441278D2B242F02002D2B21A700DE0FB791A01114B1344FA7911010F4A0A441278D2B222F02002D2B21A70FB791A010A4B1344FA791101084A0A44127844
:400A0000D2B242F00102D2B21A700023FB60FB6818461437BD465DF8047B70471070004080B485B000AF03460A46FB711346BB710123FB60FB79172B18D8FB791A010F4B67
:400A400013441B78DBB223F00E03FB72FB791A010A4B1344BA7902F00702D2B25200D1B2FA7A0A43D2B21A700023FB60FB6818461437BD465DF8047B704700BF1070004046
:400A800080B485B000AF0346FB710B46BB8013467B800123FB60BB8841F6FF72934202D14FF40053BB807B8841F6FF72934202D14FF400537B80FB79172B17D8FB79DB00CE
:400AC00003F1804303F5EC430433BB60BB68BA881A80FB79DB0003F1804303F5EC430633BB60BB687A881A800023FB60FB6818461437BD465DF8047B704700BF80B485B047
:400B000000AF03460A46FB711346BB710123FB60FB79172B07D8FB791A01064B1344BA795A720023FB60FB6818461437BD465DF8047B70471070004090B484B000AF0446E9
:400B4000084611461A462346FB710346BB710B467B7113463B710123FB60FB79172B34D8FB79DB0003F1804303F5EC43BA7902F07F02D1B27A79D201D2B20A43D2B21A70A8
:400B8000FB79DB0003F1804303F5EC433A7E1201D1B23A7902F00F02D2B20A43D2B25A70FB79DB0003F1804303F5EC433A7F02F00F02D2B29A70FB79DB0003F1804303F570
:400BC000EC430022DA700023FB60FB6818461037BD4690BC704700BF80B582B000AFFF23FB71FFF7A1FE0346BB71104B1B78182B12D90F4B1B78FB710C4B1B78013BDAB23A
:400C00000A4B1A70FB79DB0003F1804303F5F0431B78DAB2064B1A70BB791846FFF788FEFB7918460837BD4680BD00BF0C81FF1F0D81FF1F90B484B000AF0446084611461F
:400C40001A462346FB710346BB800B46BB711346FB700123FB60FB795BB2002B23DBBB8823F47F6323F00F039BB2002B1BD1FB79DB0003F1804303F5F043BB60BB68BA88DB
:400C80001A80FB79DB0003F1804303F5F043BA799A70FB79DB0003F1804303F5F043FA78DA700023FB60FB6818461037BD4690BC704700BF80B485B000AF0346FB710B46D6
:400CC000BB8013467B800123FB60FB795BB2002B17DBFB79DB0003F1804303F5F0430433BB60BB68BA881A80FB79DB0003F1804303F5F0430633BB60BB687A881A8000235F
:400D0000FB60FB6818461437BD465DF8047B704780B483B000AF0346FB7101BE0C37BD465DF8047B704700BF80B582B000AF0346FB80FB88044A127802FB03F31846FFF728
:400D4000EBFD0837BD4680BD1C81FF1F80B584B000AF03463960FB710F4B1B68FB60FB791F2B02D90020FFF7D3FFFB7903F01F0310339B00FA6813441B68BB60FB7903F00D
:400D80001F0310339B00FA6813443A681A60BB6818461037BD4680BD08ED00E080B582B000AF03460A46FB711346BB71BB79072B02D90020FFF7ACFFFB791F2B02D9002026
:400DC000FFF7A6FFFB7903F01F0303F1604303F56443BA795201D2B21A700837BD4680BD80B582B002AF414B01221A70404B00221A70102001F0A4FA102001F0BBF91D202D
:400E00000721FFF7CBFF3B4B07221A703A4B00221A703A4B00221A70394A394B1B78DBB243F01803DBB21370364B00221A70364B00221A70354B00221A70354B0A221A70EE
:400E4000344B00221A70344B00221A70334B5B221A70334B5E221A70324B00221A70324B14221A7001230093052049F25B114FF40042102300F06AFB02230093042049F202
:400E8000DA014FF40042102300F060FB03230093042049F2DA014FF40042102300F056FB04230093042049F2DA014FF40042102300F04CFB1D4A0D4B1B78DBB2013B1C4905
:400EC0009B000B449B7813701A4A084B1B78DBB2013B174931F823301380044B1B78DBB2184600F03BF9BD4680BD00BF2481FF1F9885FF1F96580040975800409E5800406F
:400F0000075B004093580040885B0040895B004080580040815800408358004088580040895800408D580040014E00400E4E00409C85FF1F0C4E004080B582B000AFFFF7DB
:400F4000F3FC0346FB71444B1B78BB71434A434B1B78DBB243F00103DBB213703F4A3F4B1B78DBB243F01003DBB213703C4A3C4B1B78DBB243F00103DBB21370384A384BFB
:400F80001B78DBB243F01003DBB21370354A354B1B78DBB243F00203DBB21370324A324B1B78DBB243F00203DBB213702F4A2F4B1B78DBB243F00303DBB213700320FFF77E
:400FC000B3FE284A274B1B78DBB223F00203DBB21370254A244B1B78DBB223F00203DBB21370234A224B1B78DBB243F00603DBB21370204B7A221A701F4A1F4B1B78DBB224
:4010000043F00103DBB213701C4A1C4B1B78DBB243F00103DBB21370194A194B1B78DBB243F00103DBB21370164A164B1B78DBB243F00103DBB21370134B4FF000521A6076
:40104000124B4FF000521A60FB791846FFF770FC0837BD4680BD00BF2481FF1FAA430040BA430040F8460040F9460040915800407758004082580040A1430040B1430040C2
:40108000A2430040B243004080E200E000E100E080B500AF084B1B78002B09D1074B1B78DBB2002B01D1FFF79BFE034B01221A70FFF742FF80BD00BF9A85FF1F9B85FF1F5D
:4010C00080B485B000AF0346FB710A4B1B78DBB223F00303FB73FB7903F00303DAB2FB7B1343FB73034AFB7B13701437BD465DF8047B7047144E004080B400AF054A054BB1
:401100001B78DBB243F00103DBB21370BD465DF8047B7047004E004090B585B000AF78600C4B1B687A68D31A7B60786801F0E4FF0446094B1B68184601F0DEFF03462046F7
:40114000194602F0E1F80346FB60FB6818461437BD4690BDB885FF1FB485FF1F80B582B000AF0346FB71C14B00221A70FB79012B63D1BF4B38221A70BE4B04221A70BE4B8C
:4011800007221A70BD4B00221A70BD4B00221A70BC4B3F221A70BC4B00221A70BB4B00221A70BB4B00221A70BA4B01221A70BA4B50221A70B94B13221A70B94B2B221A70BA
:4011C000B84B00221A70B84B44221A70B74B48221A70B74B02221A70B64B01221A70B64B11221A70B54B19221A70B54B97221A70442000F061FAB34B58221A70B24B002263
:401200001A70B24B05221A70B14B01221A70B14B00221A70B04B0A221A70B04B4FF47A521A600820012100F0CFFF2520012100F0E5FE1D20AA49FFF789FDFB79022B63D12D
:401240008B4B38221A708B4B04221A708A4B07221A708A4B00221A70894B00221A70894B3F221A70884B00221A70884B00221A70874B00221A70874B01221A70864B5022A8
:401280001A70864B27221A70854B2C221A70854B00221A70844B55221A70844B5A221A70834B05221A70834B01221A70824B11221A70824B19221A70814B97221A704420AE
:4012C00000F0FAF97F4B58221A707F4B00221A707E4B05221A707E4B01221A707D4B00221A707D4B0A221A707C4B4FF4FA421A600820012100F068FF2520012100F07EFEB1
:401300001D207849FFF722FDFB79032B63D1584B38221A70574B04221A70574B07221A70564B00221A70564B00221A70554B3F221A70554B00221A70544B00221A70544B3B
:4013400000221A70534B01221A70534B50221A70524B27221A70524B2C221A70514B00221A70514B55221A70504B5A221A70504B05221A704F4B01221A704F4B11221A7087
:401380004E4B19221A704E4B97221A70442000F093F94C4B58221A704B4B00221A704B4B05221A704A4B01221A704A4B00221A70494B0A221A70494B4FF4FA421A6008206D
:4013C000012100F001FF2520012100F017FE1D204549FFF7BBFCFB79042B40F0A680244B38221A70234B04221A70234B07221A70224B00221A70224B00221A70214B3F226D
:401400001A70214B00221A70204B00221A70204B00221A701F4B01221A701F4B50221A701E4B27221A701E4B2C221A701D4B00221A701D4B55221A701C4B5A221A701C4B91
:4014400005221A701B4B01221A701B4B11221A701A4B19221A701A4B97221A70442000F02BF9184B58221A7040E000BF9985FF1F004E0040024E0040034E0040044E004078
:40148000054E0040064E0040084E0040094E00400A4E0040144E0040845800408558004086580040875800408A5800408B5800408C5800408E5800408F580040905800404A
:4014C0009158004094580040955800409A5800409B5800409C5800409D580040B485FF1F311700003D17000049170000104B00221A70104B05221A700F4B01221A700F4BD5
:4015000000221A700E4B0A221A700E4B4FF4FA421A600820012100F057FE2520012100F06DFD1D200849FFF711FC0837BD4680BD955800409A5800409B5800409C58004078
:401540009D580040B485FF1F5517000090B587B000AF0446084611461A462346FB710346BB800B467B801346BB7197F82830002B00F08A8097F82830042B00F28580FB7942
:40158000013B092B4AD801A252F823F0B51500001D1600001D160000B51500001D1600001D160000CF150000E91500001D16000003160000BB790F2B04D9364B1B78DBB21F
:4015C000FB752EE0344B1B78DBB2FB7529E0BB790F2B04D9314B1B78DBB2FB7521E0304B1B78DBB2FB751CE0BB790F2B04D92D4B1B78DBB2FB7514E02B4B1B78DBB2FB75A9
:401600000FE0BB790F2B04D9284B1B78DBB2FB7507E0274B1B78DBB2FB7502E00023FB7500BFBA8897F917305B0113443B617B883A6902FB03F3FB60FB68DB0BBB82BB793A
:401640000D2B11D8BB8ABA79C2F10E021341BB8297F82830013BBA790132D1B2154A9B0013440A469A7007E097F82830013B114A9B0013440F229A7097F82830013B0D49BB
:40168000BA8A21F8232002E00020FFF741FB1C37BD4690BD180100491C010049190100491D0100491A0100491E0100491B0100491F0100499C85FF1F80B584B000AF0346E7
:4016C000FB71FFF731F90346FB73164A154B1B78DBB243F00303DBB21370134A124B1B78DBB243F00303DBB21370104AFB7913700320FFF719FB0B4A0A4B1B78DBB223F000
:401700000303DBB21370084A074B1B78DBB223F00303DBB21370FB7B1846FFF709F91037BD4680BDF8460040F94600409258004080B400AFBD465DF8047B704780B400AFD8
:40174000BD465DF8047B704780B400AFBD465DF8047B704780B400AFBD465DF8047B704790B585B002AF0446084611461A462346FB710346BB710B46BB8013467B80114BF9
:401780000A221A700F4B1878F979BA7900230093002301930023FFF7CFF90A4B1978BA887B88084611461A46FFF76AF9054B1B7818460221FFF734F9024B1B7818460C3705
:4017C000BD4690BD2581FF1F80B500AF064B00221A70064B00221A70042000F057F8002000F034F880BD00BF2C5800402D58004080B400AF094A094B1B78DBB243F00803EB
:40180000DBB21370064A064B1B78DBB243F00803DBB21370BD465DF8047B7047A8430040B843004080B500AF074B1B78002B04D1FFF7CAFF044B01221A70FFF7D9FF6420BF
:4018400000F044F880BD00BFAC85FF1F80B483B000AF0346FB710C4A0B4B1B78DBB223F00203DBB213700849074B1B78DAB2FB7903F00203DBB21343DBB20B700C37BD46D3
:401880005DF8047B704700BF2C58004080B582B000AF0346FB710C4A0B4B1B78DBB223F00C03DBB213700849074B1B78DAB2FB7903F00C03DBB21343DBB20B7000F016F830
:4018C0000837BD4680BD00BF2C58004080B483B000AF0346FB71044AFB7913700C37BD465DF8047B704700BF835B004080B483B000AF0B4B1B78DBB203F00C039B08DBB26A
:401900000633FB71074AFB7903F1924303F59C731B78DBB213700C37BD465DF8047B70472C5800400B460040F8B500AF354A354B1B78DBB243F01003DBB21370324A324BDA
:401940001B78DBB223F00103DBB213702F4B3F221A702F4B3F221A702E4A2F4B11461A464FF48073084611461A4601F00DFE2B4A294B11461A464FF48073084611461A469B
:4019800001F002FE264A274B11461A464FF48073084611461A4601F0F7FD234A234B11461A464FF40073084611461A4601F0ECFD1F4A204B11461A464FF400730846114670
:4019C0001A4601F0E1FD1C4B1C4A14461E4604F1400E35462346186859689A68DB680FC5103410367445F4D1094B00221A70002000F0A8F8012000F0B9F8114BF8221A7032
:401A0000F8BD00BFA643004080C7004088C700408CC7004000C400404038000000C5004000C60040803D000000C000404039000000C20040403B000000C70040403D0000A2
:401A400084C7004080B400AF0D4A0D4B1B78DBB243F01003DBB213700A4A0A4B1B78DBB243F01003DBB21370074A074B1B78DBB243F00103DBB21370BD465DF8047B70471C
:401A8000A6430040B643004080C7004080B500AF054B1B78002B04D1FFF746FF024B01221A70FFF7CFFF80BDAD85FF1F80B483B000AF03460A46FB711346BB71FB79002BB1
:401AC0001AD11F4A1E4B1B78DBB223F03303DBB213701B491A4B1B78DAB2BB791343DBB20B701749164B1B78DAB2BB791B01DBB21343DBB20B701EE0FB79012B1BD1104A37
:401B00000F4B1B78DBB203F03303DBB213700C490B4B1B78DAB2BB799B00DBB21343DBB20B700749064B1B78DAB2BB799B01DBB21343DBB20B700C37BD465DF8047B704722
:401B4000B0C7004080B483B000AF0346FB71FB7903F01F03FB71044AFB7913700C37BD465DF8047B704700BF98C7004080B483B000AF0346FB71FB7903F00F03FB71044A7C
:401B8000FB7913700C37BD465DF8047B704700BF9CC7004090B585B002AF0446084611461A462346FB710346BB710B46BB8013467B80114B08221A700F4B1878F979BA79B8
:401BC00000230093002301930823FEF7B5FF0A4B1978BA887B88084611461A46FEF750FF054B1B7818460221FEF71AFF024B1B7818460C37BD4690BD2681FF1F80B582B0C1
:401C000000AF786000F03CF8786800F009F8072000F018F800F028F80837BD4680BD00BF80B485B000AF7860054B1B68FB60FB6840337A681A601437BD465DF8047B70478A
:401C400008ED00E080B483B000AF0346FB71054AFB795B01DBB213700C37BD465DF8047B704700BF00E400E080B400AF034B01221A60BD465DF8047B704700BF00E100E065
:401C800080B400AF034B01221A60BD465DF8047B704700BF80E100E080B582B000AF786000F03CF8786800F009F8072000F018F800F028F80837BD4680BD00BF80B485B007
:401CC00000AF7860054B1B68FB60FB6844337A681A601437BD465DF8047B704708ED00E080B483B000AF0346FB71054AFB795B01DBB213700C37BD465DF8047B704700BFC1
:401D000001E400E080B400AF034B02221A60BD465DF8047B704700BF00E100E080B400AF034B02221A60BD465DF8047B704700BF80E100E080B500AF094B02221A70094B6A
:401D40000C221A70084B01221A70002000F05EF8032000F07DF8032000F03CF880BD00BF04580040055800400658004080B400AF0D4A0D4B1B78DBB243F00203DBB21370A9
:401D80000A4A0A4B1B78DBB243F00203DBB21370074A074B1B78DBB263F07F03DBB21370BD465DF8047B7047A9430040B94300407758004080B500AF054B1B78002B04D19E
:401DC000034B01221A70FFF7B5FFFFF7CFFF80BDAE85FF1F80B485B000AF0346FB710A4B1B78DBB223F00303FB73FB7903F00303DAB2FB7B1343FB73034AFB7B137014375F
:401E0000BD465DF8047B70470558004080B483B000AF0346FB71FB79072B11D80B4A0B4B1B78DBB223F07003DBB213700749074B1B78DAB2FB791B01DBB21343DBB20B7080
:401E40000C37BD465DF8047B704700BF0658004080B483B000AF0346FB71FB79032B11D80B4A0B4B1B78DBB223F00C03DBB213700749074B1B78DAB2FB799B00DBB213432E
:401E8000DBB20B700C37BD465DF8047B704700BF0658004080B582B000AF134B7B60134B04221A70124B08221A707868114901F015FB0346002B03D00F4B05221A7002E00F
:401EC0000D4B07221A700D4A0C4B1B78DBB243F00803DBB21370032000F05AF8102000F073FA0837BD4680BD0000304100580040015800400000C842025800400B5A00405F
:401F000080B500AF154A154B1B78DBB243F00103DBB21370124A124B1B78DBB243F00103DBB213700F4A0F4B1B78DBB243F00203DBB213700C4A0C4B1B78DBB243F0020357
:401F4000DBB2137000F026FA084A084B1B78DBB263F07F03DBB2137080BD00BFA9430040B9430040A1430040B14300407758004080B500AF054B1B78002B04D1FFF78AFF86
:401F8000024B01221A70FFF7BBFF80BDAF85FF1F80B485B000AF0346FB710A4B1B78DBB223F00303FB73FB7903F00303DAB2FB7B1343FB73034AFB7B13701437BD465DF803
:401FC000047B70470158004080B400AF094A094B1B78DBB243F00203DBB21370064A064B1B78DBB243F00203DBB21370BD465DF8047B7047A2430040B243004080B584B0C6
:4020000000AF03460A46FB8013467B7100F0CCF80346FB7300F0A2F80346BB81FA88BB899A4200F08780454B1B78DBB203F00103FB72FB7B002B20D1BB89002B02D0FB881B
:40204000002B1AD1BB89002B0BD13D4AFB8813803C4A3C4B1B78DBB223F04003DBB2137068E0384A374B1B78DBB243F04003DBB21370334AFB8813805CE0FB7A002B33D06B
:40208000314B00221A70314B01221A70304B00221A70304A2F4B1B78DBB203F07F03DBB21370284B1B78DBB203F00803002B02D0FB88002B18D1284ABB891380224B07220B
:4020C0001A7000BF204B1B78DBB203F00103002BF8D11A4A194B1B78DBB223F00103DBB21370194B00221A70144B1B78DBB203F00103002B13D0184AFB881380124A7B79B6
:40210000002B01D0032300E00123137000BF0E4B1B78DBB203F00103002BF8D10AE0084AFB8813800549054B1B78DAB2FB7A1343DBB20B701037BD4680BD00BFA143004087
:402140000041004002410040014000401440004010400040084000400240004080B400AF034B1B889BB21846BD465DF8047B70470041004080B483B000AF0346FB71094BFF
:40218000084A1278D2B2D1B2FA7922F00702D2B20A43D2B2D2B21A700C37BD465DF8047B704700BF0241004080B400AF054B1B78DBB203F00703DBB21846BD465DF8047B26
:4021C000704700BF0241004080B584B000AF03460A46FB8013467B7100F0CCF80346FB7300F0A2F80346BB81FA88BB899A4200F08780454B1B78DBB203F00103FB72FB7BD8
:40220000002B20D1BB89002B02D0FB88002B1AD1BB89002B0BD13D4AFB8813803C4A3C4B1B78DBB223F04003DBB2137068E0384A374B1B78DBB243F04003DBB21370334ABE
:40224000FB8813805CE0FB7A002B33D0314B00221A70314B01221A70304B00221A70304A2F4B1B78DBB203F07F03DBB21370284B1B78DBB203F00803002B02D0FB88002B1C
:4022800018D1284ABB891380224B07221A7000BF204B1B78DBB203F00103002BF8D11A4A194B1B78DBB223F00103DBB21370194B00221A70144B1B78DBB203F00103002BD7
:4022C00013D0184AFB881380124A7B79002B01D0032300E00123137000BF0E4B1B78DBB203F00103002BF8D10AE0084AFB8813800549054B1B78DAB2FB7A1343DBB20B7085
:402300001037BD4680BD00BFA24300408040004082400040014000401040004014400040084000400240004080B400AF034B1B889BB21846BD465DF8047B70478040004074
:4023400080B483B000AF0346FB71094B084A1278D2B2D1B2FA7922F00702D2B20A43D2B2D2B21A700C37BD465DF8047B704700BF8240004080B400AF054B1B78DBB203F092
:402380000703DBB21846BD465DF8047B704700BF8240004080B400AF094A094B1B78DBB243F00203DBB21370064A064B1B78DBB243F00203DBB21370BD465DF8047B704750
:4023C000A1430040B143004080B483B000AF0346FB71094B084A1278D2B2D1B2FA7922F00702D2B20A43D2B2D2B21A700C37BD465DF8047B704700BF064100402DE9F0472E
:402400008AB006460F4600F04FF8DFF898A004469AF900300D4601330FD03046394600F009F950B14FF000084FF000093046394642464B4600F056FD20B9204629460AB0D8
:40244000BDE8F08716499AF8004001220023CDE90467CDE9026701910092089364B9CDE90689684600F012F980B1089B9BB9DDE906010AB0BDE8F0874046494642464B46C6
:4024800000F0E8FB022CCDE90601EAD101F04EF821230360E9E701F049F8089B0360E6E7803E00002781FF1F2DE9F041604E0C46B6460E40764505460B4600F09880002953
:4024C000024676DD5FEA215E00F08180AEF2FF3EC3F313031EF0010F43F480135ED100273C46D10F01EB43034FEA6E0E520016204FF4001165189D424FEAD2764FEA420222
:4025000002DC5B1B6C180F44013806EB43034FEA5101EFD1844620264FF000410AE0A34220D0D50F013E4FEA510105EB43034FEA420220D09C420CEB0105F0DA002D05EB53
:40254000010C09DBA0461B1B954288BF03F1FF334446521B0844E4E7BCF1000FF2DB04F10108F0E7954217D8002D05EB010C48DB98460023ECE7134315D140087B1003F1B4
:402580007F5303F50013FA0703EB0E57394648BF40F00040BDE8F0811C46C2E7D10F01EB430352009BE7411C31D000F001031844E3E721F000460643ECD079BB8E46D30A34
:4025C000AEF1150E5205002BF9D0DC0222D400215B00D80201F10101FAD5C1F10100C1F1200422FA04F4234386448A406EE702460B4600F005FA2A46234600F04FF8BDE8B8
:40260000F081BCF1000FAADAA0460023A0E701373046B3E7202401200021E2E702460B4600F03AF802460B4600F014FBB2E700BF0000F07F10B431F0004408D0114BA1F5B5
:4026400080129A4208D804205DF8044B704718B902205DF8044B704701F1FF41094B01F5E0019942EFD9B4F5801F01D20320EBE7054B9C4201D00020E6E7B0FA80F04009E0
:40268000E2E700BFFFFFDF7F0000F07F0020704781F0004102E000BF83F0004330B54FEA41044FEA430594EA050F08BF90EA020F1FBF54EA000C55EA020C7FEA645C7FEA18
:4026C000655C00F0E2804FEA5454D4EB5555B8BF6D420CDD2C4480EA020281EA030382EA000083EA010180EA020281EA0303362D88BF30BD11F0004F4FEA01314FF4801C34
:402700004CEA113102D0404261EB410113F0004F4FEA03334CEA133302D0524263EB430394EA050F00F0A780A4F10104D5F1200E0DDB02FA0EFC22FA05F2801841F1000105
:4027400003FA0EF2801843FA05F359410EE0A5F120050EF1200E012A03FA0EFC28BF4CF0020C43FA05F3C01851EBE37101F0004507D54FF0000EDCF1000C7EEB00006EEB25
:402780000101B1F5801F1BD3B1F5001F0CD349085FEA30004FEA3C0C04F101044FEA445212F5800F80F09A80BCF1004F08BF5FEA500C50F1000041EB045141EA050130BDC4
:4027C0005FEA4C0C404141EB010111F4801FA4F10104E9D191F0000F04BF01460020B1FA81F308BF2033A3F10B03B3F120020CDA0C3208DD02F1140CC2F10C0201FA0CF062
:4028000021FA02F10CE002F11402D8BFC2F1200C01FA02F120FA0CFCDCBF41EA0C019040E41AA2BF01EB0451294330BD6FEA04041F3C1CDA0C340EDC04F11404C4F12002B3
:4028400020FA04F001FA02F340EA030021FA04F345EA030130BDC4F10C04C4F1200220FA02F001FA04F340EA0300294630BD21FA04F0294630BD94F0000F83F4801306BF0B
:4028800081F480110134013D4EE77FEA645C18BF7FEA655C29D094EA050F08BF90EA020F05D054EA000C04BF1946104630BD91EA030F1EBF0021002030BD5FEA545C05D178
:4028C0004000494128BF41F0004130BD14F580043CBF01F5801130BD01F0004545F0FE4141F470014FF0000030BD7FEA645C1ABF194610467FEA655C1CBF0B46024650EAC1
:40290000013406BF52EA033591EA030F41F4002130BD00BF90F0000F04BF0021704730B54FF4806404F132044FF000054FF0000150E700BF90F0000F04BF0021704730B5B0
:402940004FF4806404F1320410F0004548BF40424FF000013EE700BF42004FEAE2014FEA31014FEA02701FBF12F07F4393F07F4F81F06051704792F0000F14BF93F07F4F1E
:40298000704730B54FF4607401F0004521F0004120E700BF50EA010208BF704730B54FF000050AE050EA010208BF704730B511F0004502D5404261EB41014FF4806404F15F
:4029C00032045FEA915C3FF4DCAE4FF003025FEADC0C18BF03325FEADC0C18BF033202EBDC02C2F1200300FA03FC20FA02F001FA03FE40EA0E0021FA02F11444C1E600BF4A
:402A000070B54FF0FF0C4CF4E06C1CEA11541DBF1CEA135594EA0C0F95EA0C0F00F0DEF82C4481EA030621EA4C5123EA4C5350EA013518BF52EA033541F4801143F480136A
:402A400038D0A0FB02CE4FF00005E1FB02E506F00042E0FB03E54FF00006E1FB03569CF0000F18BF4EF0010EA4F1FF04B6F5007F64F5407404D25FEA4E0E6D4146EB060673
:402A800042EAC62141EA55514FEAC52040EA5E504FEACE2EB4F1FD0C88BFBCF5E06F1ED8BEF1004F08BF5FEA500E50F1000041EB045170BD06F0004646EA010140EA020027
:402AC00081EA0301B4EB5C04C2BFD4EB0C0541EA045170BD41F480114FF0000E013C00F3AB8014F1360FDEBF002001F0004170BDC4F10004203C35DA0C341BDC04F114042E
:402B0000C4F1200500FA05F320FA04F001FA05F240EA020001F0004221F0004110EBD37021FA04F642EB06015EEA430E08BF20EAD37070BDC4F10C04C4F1200500FA04F327
:402B400020FA05F001FA04F240EA020001F0004110EBD37041F100015EEA430E08BF20EAD37070BDC4F1200500FA05F24EEA020E20FA04F301FA05F243EA020321FA04F055
:402B800001F0004121FA04F220EA020000EBD3705EEA430E08BF20EAD37070BD94F0000F0FD101F00046400041EB010111F4801F08BF013CF7D041EA060195F0000F18BF9A
:402BC000704703F00046520043EB030313F4801F08BF013DF7D043EA0603704794EA0C0F0CEA135518BF95EA0C0F0CD050EA410618BF52EA4306D1D181EA030101F000419C
:402C00004FF0000070BD50EA410606BF1046194652EA430619D094EA0C0F02D150EA013613D195EA0C0F05D152EA03361CBF104619460AD181EA030101F0004141F0FE419D
:402C400041F470014FF0000070BD41F0FE4141F4780170BD70B54FF0FF0C4CF4E06C1CEA11541DBF1CEA135594EA0C0F95EA0C0F00F0A7F8A4EB050481EA030E52EA0335FD
:402C80004FEA013100F088804FEA03334FF0805545EA131343EA12634FEA022245EA111545EA10654FEA00260EF000419D4208BF964244F1FD0404F5407402D25B084FEA72
:402CC0003202B61A65EB03055B084FEA32024FF480104FF4002CB6EB020E75EB030E22BFB61A754640EA0C005B084FEA3202B6EB020E75EB030E22BFB61A754640EA5C00BE
:402D00005B084FEA3202B6EB020E75EB030E22BFB61A754640EA9C005B084FEA3202B6EB020E75EB030E22BFB61A754640EADC0055EA060E18D04FEA051545EA16754FEA8A
:402D400006164FEAC30343EA52734FEAC2025FEA1C1CC0D111F4801F0BD141EA00014FF000004FF0004CB6E711F4801F04BF01430020B4F1FD0C88BFBCF5E06F3FF6AFAED2
:402D8000B5EB030C04BFB6EB020C5FEA500C50F1000041EB045170BD0EF0004E4EEA113114EB5C04C2BFD4EB0C0541EA045170BD41F480114FF0000E013C90E645EA060E32
:402DC0008DE60CEA135594EA0C0F08BF95EA0C0F3FF43BAF94EA0C0F0AD150EA01347FF434AF95EA0C0F7FF425AF104619462CE795EA0C0F06D152EA03353FF4FDAE1046F0
:402E0000194622E750EA410618BF52EA43067FF4C5AE50EA41047FF40DAF52EA43057FF4EBAE12E74FF0FF3C06E000BF4FF0010C02E000BF4FF0010C4DF804CD4FEA410C3C
:402E40007FEA6C5C4FEA430C18BF7FEA6C5C1BD001B050EA410C0CBF52EA430C91EA030F02BF90EA020F0020704710F1000F91EA030F58BF994208BF90422CBFD8176FEA0D
:402E8000E37040F0010070474FEA410C7FEA6C5C02D150EA013C07D14FEA430C7FEA6C5CD6D152EA033CD3D05DF8040B704700BF8446104662468C461946634600E000BF65
:402EC00001B5FFF7B7FF002848BF10F1000F01BD4DF808EDFFF7F4FF0CBF012000205DF808FB00BF4DF808EDFFF7EAFF34BF012000205DF808FB00BF4DF808EDFFF7E0FFBA
:402F000094BF012000205DF808FB00BF4DF808EDFFF7CEFF94BF012000205DF808FB00BF4DF808EDFFF7C4FF34BF012000205DF808FB00BF4FEA410212F5001215D211D59E
:402F40006FF47873B3EB625212D94FEAC12343F0004343EA505311F0004F23FA02F018BF404270474FF00000704750EA013005D111F0004008BF6FF0004070474FF0000020
:402F8000704700BF80F0004002E000BF81F0004142001FBF5FEA410392EA030F7FEA226C7FEA236C6AD04FEA1262D2EB1363C1BFD218414048404140B8BF5B42192B88BFC1
:402FC000704710F0004F40F4000020F07F4018BF404211F0004F41F4000121F07F4118BF494292EA030F3FD0A2F1010241FA03FC10EB0C00C3F1200301FA03F100F0004349
:4030000002D5494260EB4000B0F5000F13D3B0F1807F06D340084FEA310102F10102FE2A51D2B1F1004F40EBC25008BF20F0010040EA03007047490040EB000010F4000F2B
:40304000A2F10102EDD1B0FA80FCACF1080CB2EB0C0200FA0CF0AABF00EBC25052421843BCBFD0401843704792F0000F81F4000106BF80F400000132013BB5E74FEA4103CA
:403080007FEA226C18BF7FEA236C21D092EA030F04D092F0000F08BF0846704790EA010F1CBF0020704712F07F4F04D1400028BF40F00040704712F100723CBF00F5000006
:4030C000704700F0004343F0FE4040F4000070477FEA226216BF08467FEA23630146420206BF5FEA412390EA010F40F4800070474FF0000304E000BF10F0004348BF4042E8
:403100005FEA000C08BF704743F0964301464FF000001CE050EA010208BF70474FF000030AE000BF50EA010208BF704711F0004302D5404261EB41015FEA010C02BF8446C1
:403140000146002043F0B64308BFA3F18053A3F50003BCFA8CF2083AA3EBC25310DB01FA02FC634400FA02FCC2F12002BCF1004F20FA02F243EB020008BF20F001007047B9
:4031800002F1200201FA02FCC2F1200250EA4C0021FA02F243EB020008BF20EADC7070474FF0FF0C1CEAD0521EBF1CEAD15392EA0C0F93EA0C0F6FD01A4480EA010C400295
:4031C00018BF5FEA41211ED04FF0006343EA501043EA5111A0FB01310CF00040B1F5000F3EBF490041EAD3715B0040EA010062F17F02FD2A1DD8B3F1004F40EBC25008BFC1
:4032000020F00100704790F0000F0CF0004C08BF49024CEA502040EA51207F3AC2BFD2F1FF0340EAC250704740F400004FF00003013A5DDC12F1190FDCBF00F00040704713
:40324000C2F10002410021FA02F1C2F1200200FA02FC5FEA310040F1000053EA4C0308BF20EADC70704792F0000F00F0004C02BF400010F4000F013AF9D040EA0C0093F0D4
:40328000000F01F0004C02BF490011F4000F013BF9D041EA0C018FE70CEAD15392EA0C0F18BF93EA0C0F0AD030F0004C18BF31F0004CD8D180EA010000F00040704790F0CC
:4032C000000F17BF90F0004F084691F0000F91F0004F14D092EA0C0F01D142020FD193EA0C0F03D14B0218BF084608D180EA010000F0004040F0FE4040F40000704740F020
:40330000FE4040F4400070474FF0FF0C1CEAD0521EBF1CEAD15392EA0C0F93EA0C0F69D0A2EB030280EA010C49024FEA402037D04FF0805343EA111143EA10130CF0004062
:403340008B4238BF5B0042F17D024FF4000C8B4224BF5B1A40EA0C00B3EB510F24BFA3EB510340EA5C00B3EB910F24BFA3EB910340EA9C00B3EBD10F24BFA3EBD10340EA93
:40338000DC001B0118BF5FEA1C1CE0D1FD2A3FF650AF8B4240EBC25008BF20F0010070470CF0004C4CEA50207F32C2BFD2F1FF0340EAC250704740F400004FF00003013A8F
:4033C00037E792F0000F00F0004C02BF400010F4000F013AF9D040EA0C0093F0000F01F0004C02BF490011F4000F013BF9D041EA0C0195E70CEAD15392EA0C0F08D1420220
:403400007FF47DAF93EA0C0F7FF470AF084676E793EA0C0F04D14B023FF44CAF08466EE730F0004C18BF31F0004CCAD130F000427FF45CAF31F000437FF43CAF5FE700BF9B
:403440004FF0FF3C06E000BF4FF0010C02E000BF4FF0010C4DF804CD4FEA40024FEA41037FEA226C18BF7FEA236C11D001B052EA530C18BF90EA010F58BFB2EB030088BF94
:40348000C81738BF6FEAE17018BF40F0010070477FEA226C02D15FEA402C05D17FEA236CE4D15FEA412CE1D05DF8040B704700BF844608466146FFE70FB5FFF7C9FF00283B
:4034C00048BF10F1000F0FBD4DF808EDFFF7F4FF0CBF012000205DF808FB00BF4DF808EDFFF7EAFF34BF012000205DF808FB00BF4DF808EDFFF7E0FF94BF012000205DF847
:4035000008FB00BF4DF808EDFFF7D2FF94BF012000205DF808FB00BF4DF808EDFFF7C8FF34BF012000205DF808FB00BF014B1868704700BF5085FF1F70B50F4E0F4D761B37
:40354000B61018BF002405D0013455F8043B9847A642F9D10A4E0B4D00F09AFC761BB61018BF002406D0013455F8043B9847A642F9D170BD70BD00BF9C3E00009C3E0000E6
:40358000A83E00009C3E0000844641EA000313F0030349D1403A23D30B6803604B6843608B688360CB68C3600B6903614B6943618B698361CB69C3610B6A03624B6A4362D4
:4035C0008B6A8362CB6AC3620B6B03634B6B43638B6B8363CB6BC36340304031403ADBD230320BD30B6803604B6843608B688360CB68C36010301031103AF3D20C3205D3E1
:4036000051F8043B40F8043B043AF9D2043208D0D2071CBF11F8013B00F8013B01D30B8803806046704700BF082A13D38B07B1D010F00303AED0C3F10403D21ADB071CBF2E
:4036400011F8013B00F8013BA4D331F8023B20F8023B9FE7043AD9D3013A11F8013B00F8013BF9D20B7803704B7843708B7883706046704770B4840746D0541E002A41D07F
:40368000CDB2034602E0621EE4B3144603F8015B9A07F8D1032C2ED9CDB245EA05250F2C45EA054519D9264603F11002103E0F2E42F8105C42F80C5C42F8085C42F8045CFD
:4036C00002F11002F2D8A4F1100222F00F0204F00F041032032C13440DD91E462246043A032A46F8045BFAD8221F22F003020432134404F003042CB1C9B21C4403F8011B27
:40370000A342FBD170BC704714460346C2E700BF024B13B1024800F005B870470000000031370000014600200246034600F016B838B5084B084DED1AAC1018BFED1805D004
:40374000013C55F8043D9847002CF9D1BDE8384000F0AABBB43E0000B83E00002DE9F047254C064625688846D5F8484192469946C4B360681F2817DC411C76B104EB80036E
:40378000C3F888A0D4F88851012282401543022EC4F88851C3F808911ED0831C6160002044F82380BDE8F087144B03B34FF4C870AFF300800446D0B1D5F84831002784E86C
:4037C00088003846C5F848410121C4F88871C4F88C71002EE1D0D1E7D4F88C311A43C4F88C21DAE705F5A674C5F84841C1E74FF0FF30BDE8F08700BF8C3E00000000000031
:4038000000000000005100401000205100401000405100403000C05100401000F0510040100000000140001000140140000800400140000A004C01400002005001402000BA
:40384000201300256117802601008026E00E8026C20C8026020080066587186D6409183E00008026032080262102187F00000000000000000000000000000000000000003E
:403880000000000000000000000000000000000000000000000000000000000000000000000000000000000000000000000000000000000000000000000000000000000008
:4038C00000000000000000000000000000000000000000000000000000000000000000000000000000000000000000000000000000000000000000000000000000000000C8
:403900000000000000000000000000000000000000000000000000000000000000000000000000000000000000000000000000000000000000000000000000000000000087
:403940000000000000000000000000000000000000000000000000000000000000000000000000000000000000000000000000000000000000000000000000000000000047
:403980000000000000000000000000000000000000000000000000000000000000000000000000000000000000000000000000000000000000000000000000000000000007
:4039C00000000000000000000000000000000000000000000000000000000000000000000000000000000000000000000000000000000000000000000000000000000000C7
:403A00000000000000000000000000000000000000000000000000000000000000000000000000000000000000000000000000000000000000000000000000000000000086
:403A40000000000000000000000000000000000000000000000000000000000000000000000000000000000000000000000000000000000000000000000000000000000046
:403A80000000000000000000000000000000000000000000000000000000000000000000000000000000000000000000000000000000000000000000000000000000000006
:403AC00000000000000000000000000000000000000000000000000000000000000000000000000000000000000000000000000000000000000000000000000000000000C6
:403B00000000000000000000000000000000000000000000000000000000000000000000000000000000000000000000000000000000000000000000000000000000000085
:403B400000004000000040000000000000000000000000000000000000000000000000000000000000000000000000000000000000000000000000000000000000000000C5
:403B80000000000000000000000000000000000000000000000000000000000000000000000000000000000000000000000000000000000000000000000000000000000005
:403BC00000000000000000000000000000000000000000000000000000000000000000000000000000000000000000000000000000000000000000000000000000000000C5
:403C00000000000000000000000000000000000000000000000000000000000000000000000000000000000000000000000000000000000000000000000000000000000084
:403C40000000000000000000000000000000000000000000000000000000000000000000000000000000000000000000000000000000000000000000000000000000000044
:403C80000000000000000000000000000000000000000000000000000000000000000000000000000000000000000000000000000000000000000000000000000000000004
:403CC00000000000000000000000000000000000000000000000000000000000000000000000000000000000000000000000000000000000000000000000000000000000C4
:403D00000000000000000000000000000000000000000000000000000000000000000000000000000000000000000000000000000000000000000000000000000000000083
:403D400081000000000000000000000000000000000000000000000000000000000000000000000000000000000000000000000000000000000000000000000000000000C2
:403D800021F805014210864064F8150181F8050143518E21000000000000000000000000000000000000000000000000000000000000000000000000000000000000000098
:403DC00000000000000000000000000000000000000000000000000000000000000000000000000000000000000000000000000000000000000000000000000000000000C3
:403E00000000000000000000000000000000000000000000000000000000000000000000000000000000000000000000000000000000000000000000000000000000000082
:403E40000000000000000000000000000000000000000000000000000000000000000000000000000000000000000000000000000000000000000000000000000000000042
:403E80007371727400000000430000002881FF1FF8B500BFF8BC08BC9E467047113700004D00000081040000F8B500BFF8BC08BC9E46704729000000C83E00000881FF1F40
:403EC000500400006800000000000000807F00000005000000366E01C05D0000180000000000E02E01FFFF01000000001484FF1F7C84FF1FE484FF1F0000000000000000C0
:403F000000000000000000000000000000000000000000000000000000000000883E00000000000000000000000000000000000000000000000000000000000000000000BB
:403F40000000000000000000000000000000000000000000000000000000000000000000000000000000000000000000000000000000000000000000000000000000000041
:403F80000000000000000000000000000000000001000000000000000E33CDAB34126DE6ECDE05000B000000000000000000000000000000000000000000000000000000D4
:403FC00000000000000000000000000000000000000000000000000000000000000000000000000000000000000000000000000000000000000000000000000000000000C1
:404000000000000000000000000000000000000000000000000000000000000000000000000000000000000000000000000000000000000000000000000000000000000080
:404040000000000000000000000000000000000000000000000000000000000000000000000000000000000000000000000000000000000000000000000000000000000040
:404080000000000000000000000000000000000000000000000000000000000000000000000000000000000000000000000000000000000000000000000000000000000000
:4040C00000000000000000000000000000000000000000000000000000000000000000000000000000000000000000000000000000000000000000000000000000000000C0
:40410000000000000000000000000000000000000000000000000000000000000000000000000000000000000000000000000000000000000000000000000000000000007F
:40414000000000000000000000000000000000000000000000000000000000000000000000000000000000000000000000000000000000000000000000000000000000003F
:4041800000000000000000000000000000000000000000000000000000000000000000000000000000000000000000000000000000000000000000000000000000000000FF
:4041C00000000000000000000000000000000000000000000000000000000000000000000000000000000000000000000000000000000000000000000000000000000000BF
:40420000000000000000000000000000000000000000000000000000000000000000000000000000000000000000000000000000000000000000000000000000000000007E
:40424000000000000000000000000000000000000000000000000000000000000000000000000000000000000000000000000000000000000000000000000000000000003E
:4042800000000000000000000000000000000000000000000000000000000000000000000000000000000000000000000000000000000000000000000000000000000000FE
:4042C00000000000000000000000000000000000000000000000000000000000000000000000000000000000000000000000000000000000000000000000000000000000BE
:40430000000000000000000000000000000000002881FF1F0000000000000000000000000000000000000000000000000000000000000000000000000000000000000000B6
:40434000000000000000000000000000000000000000000000000000000000000000000000000000000000000000000000000000000000000000000000000000000000003D
:4043800000000000000000000000000000000000000000000000000000000000000000000000000000000000000000000000000000000000000000000000000000000000FD
:4043C00000000000000000000000000000000000000000000000000000000000000000000000000000000000000000000000000000000000000000000000000000000000BD
:40440000000000000000000000000000000000000000000000000000000000000000000000000000000000000000000000000000000000000000000000000000000000007C
:020000040003F7
:0200000480007A
:4000000002520040025A0040010301400105014001090140080A0140080B0140020D0140011501400217014002190140011B0140034001400641014002420140044401403E
:400040000245014004460140044701400848014001490140074C0140024D014001510140082009200B010C04E280E808B502A601AE01B601B802BE41D804DB04DF011548DA
:400080001D021F806D409108A780AD04C4A08B80E280EC20E080EC10E080EC10EC2030403610CC30104013088A109C40A610C410AF08E81030017C01CC02DE0194019C016A
:4000C000450294019C01D0019C01A502B401EC081008220427048A049F04B704C440C860B00866028A029C01B502D801E001EC08B001EC04000F000000202000200000008A
:400100000000000000000A002500180185081901000800000000000000000000000000000000000000000000000000000000000000000000000000000000000000000000C8
:40014000000000000000000000000000000000000000000000000000000000000000000000000000000000000000000000000000000000000000000000000000000000007F
:40018000000000000000000000000000000000000000000000000000000000000000000000000000000000000000000000000000000000000000000000000000000000003F
:4001C00000000000000000000000000000000000000000000000000000000000000000000000000000000000000000000000000000000000000000000000000000000000FF
:4002000000000000000000000000000000000000000000000000000000000000000000000000000000000000000000000000000000000000000000000000000000000000BE
:0200000490006A
:0400000000004007B5
:0200000490105A
:04000000BC90ACAF55
:0200000490303A
:0200000029973E
:0200000490402A
:4000000000000000000000000000000000000000000000000000000000000000000000000000000000000000000000000000000000000000000000000000000000000000C0
:400040000000000000000000000000000000000000000000000000000000000000000000000000000000000000000000000000000000000000000000000000000000000080
:400080000000000000000000000000000000000000000000000000000000000000000000000000000000000000000000000000000000000000000000000000000000000040
:4000C0000000000000000000000000000000000000000000000000000000000000000000000000000000000000000000000000000000000000000000000000000000000000
:0200000490501A
:0C00000000012E16106900012E2C3A00A1
:00000001FF